{
  "contracts/MasterChef.sol": {
    "MasterChef": {
      "abi": [
        {
          "inputs": [
            {
              "internalType": "contract POPSToken",
              "name": "_pops",
              "type": "address"
            },
            {
              "internalType": "address",
              "name": "_devaddr",
              "type": "address"
            },
            {
              "internalType": "uint256",
              "name": "_popsPerBlock",
              "type": "uint256"
            },
            {
              "internalType": "uint256",
              "name": "_startBlock",
              "type": "uint256"
            },
            {
              "internalType": "uint256",
              "name": "_bonusEndBlock",
              "type": "uint256"
            }
          ],
          "stateMutability": "nonpayable",
          "type": "constructor"
        },
        {
          "anonymous": false,
          "inputs": [
            {
              "indexed": true,
              "internalType": "address",
              "name": "user",
              "type": "address"
            },
            {
              "indexed": true,
              "internalType": "uint256",
              "name": "pid",
              "type": "uint256"
            },
            {
              "indexed": false,
              "internalType": "uint256",
              "name": "amount",
              "type": "uint256"
            }
          ],
          "name": "Deposit",
          "type": "event"
        },
        {
          "anonymous": false,
          "inputs": [
            {
              "indexed": true,
              "internalType": "address",
              "name": "_devaddr",
              "type": "address"
            }
          ],
          "name": "DevAddress",
          "type": "event"
        },
        {
          "anonymous": false,
          "inputs": [
            {
              "indexed": true,
              "internalType": "address",
              "name": "user",
              "type": "address"
            },
            {
              "indexed": true,
              "internalType": "uint256",
              "name": "pid",
              "type": "uint256"
            },
            {
              "indexed": false,
              "internalType": "uint256",
              "name": "amount",
              "type": "uint256"
            }
          ],
          "name": "EmergencyWithdraw",
          "type": "event"
        },
        {
          "anonymous": false,
          "inputs": [
            {
              "indexed": false,
              "internalType": "uint256",
              "name": "_allocPoint",
              "type": "uint256"
            },
            {
              "indexed": true,
              "internalType": "address",
              "name": "_lptoken",
              "type": "address"
            }
          ],
          "name": "LpAdded",
          "type": "event"
        },
        {
          "anonymous": false,
          "inputs": [
            {
              "indexed": true,
              "internalType": "address",
              "name": "_migrator",
              "type": "address"
            }
          ],
          "name": "MigratorSet",
          "type": "event"
        },
        {
          "anonymous": false,
          "inputs": [
            {
              "indexed": true,
              "internalType": "address",
              "name": "previousOwner",
              "type": "address"
            },
            {
              "indexed": true,
              "internalType": "address",
              "name": "newOwner",
              "type": "address"
            }
          ],
          "name": "OwnershipTransferred",
          "type": "event"
        },
        {
          "anonymous": false,
          "inputs": [
            {
              "indexed": false,
              "internalType": "uint256",
              "name": "_pid",
              "type": "uint256"
            },
            {
              "indexed": false,
              "internalType": "uint256",
              "name": "allocPoint",
              "type": "uint256"
            },
            {
              "indexed": false,
              "internalType": "bool",
              "name": "_withUpdate",
              "type": "bool"
            }
          ],
          "name": "UpdateAlloc",
          "type": "event"
        },
        {
          "anonymous": false,
          "inputs": [
            {
              "indexed": true,
              "internalType": "address",
              "name": "user",
              "type": "address"
            },
            {
              "indexed": true,
              "internalType": "uint256",
              "name": "pid",
              "type": "uint256"
            },
            {
              "indexed": false,
              "internalType": "uint256",
              "name": "amount",
              "type": "uint256"
            }
          ],
          "name": "Withdraw",
          "type": "event"
        },
        {
          "inputs": [],
          "name": "BONUS_MULTIPLIER",
          "outputs": [
            {
              "internalType": "uint256",
              "name": "",
              "type": "uint256"
            }
          ],
          "stateMutability": "view",
          "type": "function"
        },
        {
          "inputs": [
            {
              "internalType": "uint256",
              "name": "_allocPoint",
              "type": "uint256"
            },
            {
              "internalType": "contract IERC20",
              "name": "_lpToken",
              "type": "address"
            },
            {
              "internalType": "bool",
              "name": "_withUpdate",
              "type": "bool"
            }
          ],
          "name": "add",
          "outputs": [],
          "stateMutability": "nonpayable",
          "type": "function"
        },
        {
          "inputs": [],
          "name": "bonusEndBlock",
          "outputs": [
            {
              "internalType": "uint256",
              "name": "",
              "type": "uint256"
            }
          ],
          "stateMutability": "view",
          "type": "function"
        },
        {
          "inputs": [
            {
              "internalType": "uint256",
              "name": "_pid",
              "type": "uint256"
            },
            {
              "internalType": "uint256",
              "name": "_amount",
              "type": "uint256"
            }
          ],
          "name": "deposit",
          "outputs": [],
          "stateMutability": "nonpayable",
          "type": "function"
        },
        {
          "inputs": [
            {
              "internalType": "address",
              "name": "_devaddr",
              "type": "address"
            }
          ],
          "name": "dev",
          "outputs": [],
          "stateMutability": "nonpayable",
          "type": "function"
        },
        {
          "inputs": [],
          "name": "devaddr",
          "outputs": [
            {
              "internalType": "address",
              "name": "",
              "type": "address"
            }
          ],
          "stateMutability": "view",
          "type": "function"
        },
        {
          "inputs": [
            {
              "internalType": "uint256",
              "name": "_pid",
              "type": "uint256"
            }
          ],
          "name": "emergencyWithdraw",
          "outputs": [],
          "stateMutability": "nonpayable",
          "type": "function"
        },
        {
          "inputs": [
            {
              "internalType": "uint256",
              "name": "_from",
              "type": "uint256"
            },
            {
              "internalType": "uint256",
              "name": "_to",
              "type": "uint256"
            }
          ],
          "name": "getMultiplier",
          "outputs": [
            {
              "internalType": "uint256",
              "name": "",
              "type": "uint256"
            }
          ],
          "stateMutability": "view",
          "type": "function"
        },
        {
          "inputs": [
            {
              "internalType": "address",
              "name": "",
              "type": "address"
            }
          ],
          "name": "lpCheck",
          "outputs": [
            {
              "internalType": "bool",
              "name": "",
              "type": "bool"
            }
          ],
          "stateMutability": "view",
          "type": "function"
        },
        {
          "inputs": [],
          "name": "massUpdatePools",
          "outputs": [],
          "stateMutability": "nonpayable",
          "type": "function"
        },
        {
          "inputs": [
            {
              "internalType": "uint256",
              "name": "_pid",
              "type": "uint256"
            }
          ],
          "name": "migrate",
          "outputs": [],
          "stateMutability": "nonpayable",
          "type": "function"
        },
        {
          "inputs": [],
          "name": "migrator",
          "outputs": [
            {
              "internalType": "contract IMigratorChef",
              "name": "",
              "type": "address"
            }
          ],
          "stateMutability": "view",
          "type": "function"
        },
        {
          "inputs": [],
          "name": "owner",
          "outputs": [
            {
              "internalType": "address",
              "name": "",
              "type": "address"
            }
          ],
          "stateMutability": "view",
          "type": "function"
        },
        {
          "inputs": [
            {
              "internalType": "uint256",
              "name": "_pid",
              "type": "uint256"
            },
            {
              "internalType": "address",
              "name": "_user",
              "type": "address"
            }
          ],
          "name": "pendingPops",
          "outputs": [
            {
              "internalType": "uint256",
              "name": "",
              "type": "uint256"
            }
          ],
          "stateMutability": "view",
          "type": "function"
        },
        {
          "inputs": [
            {
              "internalType": "uint256",
              "name": "",
              "type": "uint256"
            }
          ],
          "name": "poolInfo",
          "outputs": [
            {
              "internalType": "contract IERC20",
              "name": "lpToken",
              "type": "address"
            },
            {
              "internalType": "uint256",
              "name": "allocPoint",
              "type": "uint256"
            },
            {
              "internalType": "uint256",
              "name": "lastRewardBlock",
              "type": "uint256"
            },
            {
              "internalType": "uint256",
              "name": "accPopsPerShare",
              "type": "uint256"
            }
          ],
          "stateMutability": "view",
          "type": "function"
        },
        {
          "inputs": [],
          "name": "poolLength",
          "outputs": [
            {
              "internalType": "uint256",
              "name": "",
              "type": "uint256"
            }
          ],
          "stateMutability": "view",
          "type": "function"
        },
        {
          "inputs": [],
          "name": "pops",
          "outputs": [
            {
              "internalType": "contract POPSToken",
              "name": "",
              "type": "address"
            }
          ],
          "stateMutability": "view",
          "type": "function"
        },
        {
          "inputs": [],
          "name": "popsPerBlock",
          "outputs": [
            {
              "internalType": "uint256",
              "name": "",
              "type": "uint256"
            }
          ],
          "stateMutability": "view",
          "type": "function"
        },
        {
          "inputs": [],
          "name": "renounceOwnership",
          "outputs": [],
          "stateMutability": "nonpayable",
          "type": "function"
        },
        {
          "inputs": [
            {
              "internalType": "uint256",
              "name": "_pid",
              "type": "uint256"
            },
            {
              "internalType": "uint256",
              "name": "_allocPoint",
              "type": "uint256"
            },
            {
              "internalType": "bool",
              "name": "_withUpdate",
              "type": "bool"
            }
          ],
          "name": "set",
          "outputs": [],
          "stateMutability": "nonpayable",
          "type": "function"
        },
        {
          "inputs": [
            {
              "internalType": "contract IMigratorChef",
              "name": "_migrator",
              "type": "address"
            }
          ],
          "name": "setMigrator",
          "outputs": [],
          "stateMutability": "nonpayable",
          "type": "function"
        },
        {
          "inputs": [],
          "name": "startBlock",
          "outputs": [
            {
              "internalType": "uint256",
              "name": "",
              "type": "uint256"
            }
          ],
          "stateMutability": "view",
          "type": "function"
        },
        {
          "inputs": [],
          "name": "totalAllocPoint",
          "outputs": [
            {
              "internalType": "uint256",
              "name": "",
              "type": "uint256"
            }
          ],
          "stateMutability": "view",
          "type": "function"
        },
        {
          "inputs": [
            {
              "internalType": "address",
              "name": "newOwner",
              "type": "address"
            }
          ],
          "name": "transferOwnership",
          "outputs": [],
          "stateMutability": "nonpayable",
          "type": "function"
        },
        {
          "inputs": [
            {
              "internalType": "uint256",
              "name": "_pid",
              "type": "uint256"
            }
          ],
          "name": "updatePool",
          "outputs": [],
          "stateMutability": "nonpayable",
          "type": "function"
        },
        {
          "inputs": [
            {
              "internalType": "uint256",
              "name": "",
              "type": "uint256"
            },
            {
              "internalType": "address",
              "name": "",
              "type": "address"
            }
          ],
          "name": "userInfo",
          "outputs": [
            {
              "internalType": "uint256",
              "name": "amount",
              "type": "uint256"
            },
            {
              "internalType": "uint256",
              "name": "rewardDebt",
              "type": "uint256"
            }
          ],
          "stateMutability": "view",
          "type": "function"
        },
        {
          "inputs": [
            {
              "internalType": "uint256",
              "name": "_pid",
              "type": "uint256"
            },
            {
              "internalType": "uint256",
              "name": "_amount",
              "type": "uint256"
            }
          ],
          "name": "withdraw",
          "outputs": [],
          "stateMutability": "nonpayable",
          "type": "function"
        }
      ],
      "evm": {
        "bytecode": {
          "linkReferences": {},
          "object": "6080604052600060095534801561001557600080fd5b506040516120f53803806120f5833981810160405260a081101561003857600080fd5b5080516020820151604083015160608401516080909401519293919290919060006100616100e9565b600080546001600160a01b0319166001600160a01b0383169081178255604051929350917f8be0079c531659141344cd1fd0a4f28419497f9722a3daafe3b4186f6b6457e0908290a350600180546001600160a01b039687166001600160a01b0319918216179091556002805495909616941693909317909355600455600355600a556100ed565b3390565b611ff9806100fc6000396000f3fe608060405234801561001057600080fd5b50600436106101a85760003560e01c8063630b5ba1116100f95780638d88a90e1161009757806393f1a40b1161007157806393f1a40b14610430578063d49e77cd14610475578063e2bbb1581461047d578063f2fde38b146104a0576101a8565b80638d88a90e146103df5780638da5cb5b146104055780638dbb1e3a1461040d576101a8565b80636dca5a59116100d35780636dca5a59146103bf578063715018a6146103c75780637cd07e47146103cf5780638aa28550146103d7576101a8565b8063630b5ba11461035257806364482f791461035a57806367968dac14610385576101a8565b806323cf311811610166578063454b060811610140578063454b0608146102f357806348cd4cb11461031057806351eb05a6146103185780635312ea8e14610335576101a8565b806323cf31181461028657806329a91b09146102ac578063441a3e70146102d0576101a8565b80628201d5146101ad578063081e3eda146101eb5780631526fe27146101f357806317caf6f1146102405780631aed6553146102485780631eaaa04514610250575b600080fd5b6101d9600480360360408110156101c357600080fd5b50803590602001356001600160a01b03166104c6565b60408051918252519081900360200190f35b6101d9610683565b6102106004803603602081101561020957600080fd5b5035610689565b604080516001600160a01b0390951685526020850193909352838301919091526060830152519081900360800190f35b6101d96106ca565b6101d96106d0565b6102846004803603606081101561026657600080fd5b508035906001600160a01b03602082013516906040013515156106d6565b005b6102846004803603602081101561029c57600080fd5b50356001600160a01b0316610922565b6102b46109ce565b604080516001600160a01b039092168252519081900360200190f35b610284600480360360408110156102e657600080fd5b50803590602001356109dd565b6102846004803603602081101561030957600080fd5b5035610b69565b6101d9610e0a565b6102846004803603602081101561032e57600080fd5b5035610e10565b6102846004803603602081101561034b57600080fd5b5035611076565b610284611151565b6102846004803603606081101561037057600080fd5b50803590602081013590604001351515611174565b6103ab6004803603602081101561039b57600080fd5b50356001600160a01b03166112d6565b604080519115158252519081900360200190f35b6101d96112eb565b6102846112f1565b6102b461139d565b6101d96113ac565b610284600480360360208110156103f557600080fd5b50356001600160a01b03166113b1565b6102b4611446565b6101d96004803603604081101561042357600080fd5b5080359060200135611455565b61045c6004803603604081101561044657600080fd5b50803590602001356001600160a01b03166114bb565b6040805192835260208301919091528051918290030190f35b6102b46114df565b6102846004803603604081101561049357600080fd5b50803590602001356114ee565b610284600480360360208110156104b657600080fd5b50356001600160a01b0316611638565b600654600090831061050e576040805162461bcd60e51b815260206004820152600c60248201526b1a5b9d985b1a590817dc1a5960a21b604482015290519081900360640190fd5b60006006848154811061051d57fe5b600091825260208083208784526007825260408085206001600160a01b03898116875290845281862060049586029093016003810154815484516370a0823160e01b81523098810198909852935191985093969395939492909116926370a08231926024808301939192829003018186803b15801561059b57600080fd5b505afa1580156105af573d6000803e3d6000fd5b505050506040513d60208110156105c557600080fd5b50516002850154909150431180156105dc57508015155b156106485760006105f1856002015443611455565b9050600061062460095461061e88600101546106186004548761173a90919063ffffffff16565b9061173a565b9061179a565b905061064361063c8461061e8464e8d4a5100061173a565b8590611801565b935050505b610676836001015461067064e8d4a5100061061e86886000015461173a90919063ffffffff16565b9061185b565b9450505050505b92915050565b60065490565b6006818154811061069657fe5b600091825260209091206004909102018054600182015460028301546003909301546001600160a01b039092169350919084565b60095481565b60035481565b6106de6118b8565b6001600160a01b03166106ef611446565b6001600160a01b031614610738576040805162461bcd60e51b81526020600482018190526024820152600080516020611f44833981519152604482015290519081900360640190fd5b6001600160a01b03821660009081526008602052604090205460ff161515600114156107ab576040805162461bcd60e51b815260206004820152601c60248201527f4d6173746572436865663a204c5020616c726561647920616464656400000000604482015290519081900360640190fd5b80156107b9576107b9611151565b6000600a5443116107cc57600a546107ce565b435b6009549091506107de9085611801565b600955604080516080810182526001600160a01b038581168083526020808401898152848601878152600060608701818152600680546001808201835591845298517ff652222313e28459528d920b65115c16c04f3efc82aaedc97be59f3f377c0d3f6004909a02998a0180546001600160a01b031916919099161790975592517ff652222313e28459528d920b65115c16c04f3efc82aaedc97be59f3f377c0d4088015590517ff652222313e28459528d920b65115c16c04f3efc82aaedc97be59f3f377c0d4187015590517ff652222313e28459528d920b65115c16c04f3efc82aaedc97be59f3f377c0d42909501949094558184526008815292849020805460ff19169092179091558251878152925190927f4b2733d4c19ff86ca1469bf779ee11b098d271775a4559ed4ad78c3ca048b2fa92908290030190a250505050565b61092a6118b8565b6001600160a01b031661093b611446565b6001600160a01b031614610984576040805162461bcd60e51b81526020600482018190526024820152600080516020611f44833981519152604482015290519081900360640190fd5b600580546001600160a01b0319166001600160a01b0383169081179091556040517f3ba4758949febc607e14523620298f8b5995b1848492ad7aa083372ac886ae0790600090a250565b6001546001600160a01b031681565b6006548210610a22576040805162461bcd60e51b815260206004820152600c60248201526b1a5b9d985b1a590817dc1a5960a21b604482015290519081900360640190fd5b600060068381548110610a3157fe5b600091825260208083208684526007825260408085203386529092529220805460049092029092019250831115610aa4576040805162461bcd60e51b81526020600482015260126024820152711dda5d1a191c985dce881b9bdd0819dbdbd960721b604482015290519081900360640190fd5b610aad84610e10565b6000610adb826001015461067064e8d4a5100061061e8760030154876000015461173a90919063ffffffff16565b9050610ae733826118bc565b8154610af3908561185b565b8083556003840154610b109164e8d4a510009161061e919061173a565b60018301558254610b2b906001600160a01b03163386611a4d565b604080518581529051869133917ff279e6a1f5e320cca91135676d9cb6e44ca8a08c0b88342bcdb1144f6511b5689181900360200190a35050505050565b6006548110610bae576040805162461bcd60e51b815260206004820152600c60248201526b1a5b9d985b1a590817dc1a5960a21b604482015290519081900360640190fd5b6005546001600160a01b0316610c02576040805162461bcd60e51b815260206004820152601460248201527336b4b3b930ba329d1037379036b4b3b930ba37b960611b604482015290519081900360640190fd5b600060068281548110610c1157fe5b600091825260208083206004928302018054604080516370a0823160e01b81523095810195909552519195506001600160a01b0316939284926370a0823192602480840193829003018186803b158015610c6a57600080fd5b505afa158015610c7e573d6000803e3d6000fd5b505050506040513d6020811015610c9457600080fd5b5051600554909150610cb3906001600160a01b03848116911683611a9f565b6005546040805163ce5494bb60e01b81526001600160a01b0385811660048301529151600093929092169163ce5494bb9160248082019260209290919082900301818787803b158015610d0557600080fd5b505af1158015610d19573d6000803e3d6000fd5b505050506040513d6020811015610d2f57600080fd5b5051604080516370a0823160e01b815230600482015290519192506001600160a01b038316916370a0823191602480820192602092909190829003018186803b158015610d7b57600080fd5b505afa158015610d8f573d6000803e3d6000fd5b505050506040513d6020811015610da557600080fd5b50518214610de9576040805162461bcd60e51b815260206004820152600c60248201526b1b5a59dc985d194e8818985960a21b604482015290519081900360640190fd5b83546001600160a01b0319166001600160a01b039190911617909255505050565b600a5481565b6006548110610e55576040805162461bcd60e51b815260206004820152600c60248201526b1a5b9d985b1a590817dc1a5960a21b604482015290519081900360640190fd5b600060068281548110610e6457fe5b9060005260206000209060040201905080600201544311610e855750611073565b8054604080516370a0823160e01b815230600482015290516000926001600160a01b0316916370a08231916024808301926020929190829003018186803b158015610ecf57600080fd5b505afa158015610ee3573d6000803e3d6000fd5b505050506040513d6020811015610ef957600080fd5b5051905080610f0f575043600290910155611073565b6000610f1f836002015443611455565b90506000610f4660095461061e86600101546106186004548761173a90919063ffffffff16565b6001546002549192506001600160a01b03908116916340c10f199116610f6d84600a61179a565b6040518363ffffffff1660e01b815260040180836001600160a01b0316815260200182815260200192505050600060405180830381600087803b158015610fb357600080fd5b505af1158015610fc7573d6000803e3d6000fd5b5050600154604080516340c10f1960e01b81523060048201526024810186905290516001600160a01b0390921693506340c10f19925060448082019260009290919082900301818387803b15801561101e57600080fd5b505af1158015611032573d6000803e3d6000fd5b505050506110606110558461061e64e8d4a510008561173a90919063ffffffff16565b600386015490611801565b6003850155505043600290920191909155505b50565b60065481106110bb576040805162461bcd60e51b815260206004820152600c60248201526b1a5b9d985b1a590817dc1a5960a21b604482015290519081900360640190fd5b6000600682815481106110ca57fe5b600091825260208083208584526007825260408085203380875290845281862080548782556001820197909755825187815292516004909602909301965091949387937fbb757047c2b5f3974fe26b7c10f732e7bce710b0952a71082702781e62ae0595928290030190a3825461114b906001600160a01b03163383611a4d565b50505050565b60065460005b818110156111705761116881610e10565b600101611157565b5050565b61117c6118b8565b6001600160a01b031661118d611446565b6001600160a01b0316146111d6576040805162461bcd60e51b81526020600482018190526024820152600080516020611f44833981519152604482015290519081900360640190fd5b600654831061121b576040805162461bcd60e51b815260206004820152600c60248201526b1a5b9d985b1a590817dc1a5960a21b604482015290519081900360640190fd5b801561122957611229611151565b611266826112606006868154811061123d57fe5b90600052602060002090600402016001015460095461185b90919063ffffffff16565b90611801565b600981905550816006848154811061127a57fe5b6000918252602091829020600160049092020101919091556040805185815291820184905282151582820152517f16569560b3c6b0fcc09e1015438b2a2a4309aacff1ea040a0382061a8f28a9bd9181900360600190a1505050565b60086020526000908152604090205460ff1681565b60045481565b6112f96118b8565b6001600160a01b031661130a611446565b6001600160a01b031614611353576040805162461bcd60e51b81526020600482018190526024820152600080516020611f44833981519152604482015290519081900360640190fd5b600080546040516001600160a01b03909116907f8be0079c531659141344cd1fd0a4f28419497f9722a3daafe3b4186f6b6457e0908390a3600080546001600160a01b0319169055565b6005546001600160a01b031681565b600a81565b6002546001600160a01b031633146113fc576040805162461bcd60e51b81526020600482015260096024820152686465763a207775743f60b81b604482015290519081900360640190fd5b600280546001600160a01b0319166001600160a01b0383169081179091556040517f7b25fd50423fb3ec134bcb3c13ddbefa904827e880fc79fe8f91528cbea087cd90600090a250565b6000546001600160a01b031690565b600060035482116114765761146f600a610618848661185b565b905061067d565b60035483106114895761146f828461185b565b61146f6114a16003548461185b90919063ffffffff16565b611260600a6106188760035461185b90919063ffffffff16565b60076020908152600092835260408084209091529082529020805460019091015482565b6002546001600160a01b031681565b6006548210611533576040805162461bcd60e51b815260206004820152600c60248201526b1a5b9d985b1a590817dc1a5960a21b604482015290519081900360640190fd5b60006006838154811061154257fe5b6000918252602080832086845260078252604080852033865290925292206004909102909101915061157384610e10565b8054156115b65760006115a8826001015461067064e8d4a5100061061e8760030154876000015461173a90919063ffffffff16565b90506115b433826118bc565b505b81546115cd906001600160a01b0316333086611bb2565b80546115d99084611801565b80825560038301546115f69164e8d4a510009161061e919061173a565b6001820155604080518481529051859133917f90890809c654f11d6e72a28fa60149770a0d11ec6c92319d6ceb2bb0a4ea1a159181900360200190a350505050565b6116406118b8565b6001600160a01b0316611651611446565b6001600160a01b03161461169a576040805162461bcd60e51b81526020600482018190526024820152600080516020611f44833981519152604482015290519081900360640190fd5b6001600160a01b0381166116df5760405162461bcd60e51b8152600401808060200182810382526026815260200180611ed76026913960400191505060405180910390fd5b600080546040516001600160a01b03808516939216917f8be0079c531659141344cd1fd0a4f28419497f9722a3daafe3b4186f6b6457e091a3600080546001600160a01b0319166001600160a01b0392909216919091179055565b6000826117495750600061067d565b8282028284828161175657fe5b04146117935760405162461bcd60e51b8152600401808060200182810382526021815260200180611f236021913960400191505060405180910390fd5b9392505050565b60008082116117f0576040805162461bcd60e51b815260206004820152601a60248201527f536166654d6174683a206469766973696f6e206279207a65726f000000000000604482015290519081900360640190fd5b8183816117f957fe5b049392505050565b600082820183811015611793576040805162461bcd60e51b815260206004820152601b60248201527f536166654d6174683a206164646974696f6e206f766572666c6f770000000000604482015290519081900360640190fd5b6000828211156118b2576040805162461bcd60e51b815260206004820152601e60248201527f536166654d6174683a207375627472616374696f6e206f766572666c6f770000604482015290519081900360640190fd5b50900390565b3390565b600154604080516370a0823160e01b815230600482015290516000926001600160a01b0316916370a08231916024808301926020929190829003018186803b15801561190757600080fd5b505afa15801561191b573d6000803e3d6000fd5b505050506040513d602081101561193157600080fd5b50519050808211156119c5576001546040805163a9059cbb60e01b81526001600160a01b038681166004830152602482018590529151919092169163a9059cbb9160448083019260209291908290030181600087803b15801561199357600080fd5b505af11580156119a7573d6000803e3d6000fd5b505050506040513d60208110156119bd57600080fd5b50611a489050565b6001546040805163a9059cbb60e01b81526001600160a01b038681166004830152602482018690529151919092169163a9059cbb9160448083019260209291908290030181600087803b158015611a1b57600080fd5b505af1158015611a2f573d6000803e3d6000fd5b505050506040513d6020811015611a4557600080fd5b50505b505050565b604080516001600160a01b038416602482015260448082018490528251808303909101815260649091019091526020810180516001600160e01b031663a9059cbb60e01b179052611a48908490611c08565b801580611b25575060408051636eb1769f60e11b81523060048201526001600160a01b03848116602483015291519185169163dd62ed3e91604480820192602092909190829003018186803b158015611af757600080fd5b505afa158015611b0b573d6000803e3d6000fd5b505050506040513d6020811015611b2157600080fd5b5051155b611b605760405162461bcd60e51b8152600401808060200182810382526036815260200180611f8e6036913960400191505060405180910390fd5b604080516001600160a01b038416602482015260448082018490528251808303909101815260649091019091526020810180516001600160e01b031663095ea7b360e01b179052611a48908490611c08565b604080516001600160a01b0380861660248301528416604482015260648082018490528251808303909101815260849091019091526020810180516001600160e01b03166323b872dd60e01b17905261114b9085905b6060611c5d826040518060400160405280602081526020017f5361666545524332303a206c6f772d6c6576656c2063616c6c206661696c6564815250856001600160a01b0316611cb99092919063ffffffff16565b805190915015611a4857808060200190516020811015611c7c57600080fd5b5051611a485760405162461bcd60e51b815260040180806020018281038252602a815260200180611f64602a913960400191505060405180910390fd5b6060611cc88484600085611cd0565b949350505050565b606082471015611d115760405162461bcd60e51b8152600401808060200182810382526026815260200180611efd6026913960400191505060405180910390fd5b611d1a85611e2c565b611d6b576040805162461bcd60e51b815260206004820152601d60248201527f416464726573733a2063616c6c20746f206e6f6e2d636f6e7472616374000000604482015290519081900360640190fd5b60006060866001600160a01b031685876040518082805190602001908083835b60208310611daa5780518252601f199092019160209182019101611d8b565b6001836020036101000a03801982511681845116808217855250505050505090500191505060006040518083038185875af1925050503d8060008114611e0c576040519150601f19603f3d011682016040523d82523d6000602084013e611e11565b606091505b5091509150611e21828286611e32565b979650505050505050565b3b151590565b60608315611e41575081611793565b825115611e515782518084602001fd5b8160405162461bcd60e51b81526004018080602001828103825283818151815260200191508051906020019080838360005b83811015611e9b578181015183820152602001611e83565b50505050905090810190601f168015611ec85780820380516001836020036101000a031916815260200191505b509250505060405180910390fdfe4f776e61626c653a206e6577206f776e657220697320746865207a65726f2061646472657373416464726573733a20696e73756666696369656e742062616c616e636520666f722063616c6c536166654d6174683a206d756c7469706c69636174696f6e206f766572666c6f774f776e61626c653a2063616c6c6572206973206e6f7420746865206f776e65725361666545524332303a204552433230206f7065726174696f6e20646964206e6f7420737563636565645361666545524332303a20617070726f76652066726f6d206e6f6e2d7a65726f20746f206e6f6e2d7a65726f20616c6c6f77616e6365a26469706673582212204ec485a2f73d5edc03149d3c33d89bd254f0252ab30e0fb8ee298f12a0d0be8164736f6c634300060c0033",
          "opcodes": "PUSH1 0x80 PUSH1 0x40 MSTORE PUSH1 0x0 PUSH1 0x9 SSTORE CALLVALUE DUP1 ISZERO PUSH2 0x15 JUMPI PUSH1 0x0 DUP1 REVERT JUMPDEST POP PUSH1 0x40 MLOAD PUSH2 0x20F5 CODESIZE SUB DUP1 PUSH2 0x20F5 DUP4 CODECOPY DUP2 DUP2 ADD PUSH1 0x40 MSTORE PUSH1 0xA0 DUP2 LT ISZERO PUSH2 0x38 JUMPI PUSH1 0x0 DUP1 REVERT JUMPDEST POP DUP1 MLOAD PUSH1 0x20 DUP3 ADD MLOAD PUSH1 0x40 DUP4 ADD MLOAD PUSH1 0x60 DUP5 ADD MLOAD PUSH1 0x80 SWAP1 SWAP5 ADD MLOAD SWAP3 SWAP4 SWAP2 SWAP3 SWAP1 SWAP2 SWAP1 PUSH1 0x0 PUSH2 0x61 PUSH2 0xE9 JUMP JUMPDEST PUSH1 0x0 DUP1 SLOAD PUSH1 0x1 PUSH1 0x1 PUSH1 0xA0 SHL SUB NOT AND PUSH1 0x1 PUSH1 0x1 PUSH1 0xA0 SHL SUB DUP4 AND SWAP1 DUP2 OR DUP3 SSTORE PUSH1 0x40 MLOAD SWAP3 SWAP4 POP SWAP2 PUSH32 0x8BE0079C531659141344CD1FD0A4F28419497F9722A3DAAFE3B4186F6B6457E0 SWAP1 DUP3 SWAP1 LOG3 POP PUSH1 0x1 DUP1 SLOAD PUSH1 0x1 PUSH1 0x1 PUSH1 0xA0 SHL SUB SWAP7 DUP8 AND PUSH1 0x1 PUSH1 0x1 PUSH1 0xA0 SHL SUB NOT SWAP2 DUP3 AND OR SWAP1 SWAP2 SSTORE PUSH1 0x2 DUP1 SLOAD SWAP6 SWAP1 SWAP7 AND SWAP5 AND SWAP4 SWAP1 SWAP4 OR SWAP1 SWAP4 SSTORE PUSH1 0x4 SSTORE PUSH1 0x3 SSTORE PUSH1 0xA SSTORE PUSH2 0xED JUMP JUMPDEST CALLER SWAP1 JUMP JUMPDEST PUSH2 0x1FF9 DUP1 PUSH2 0xFC PUSH1 0x0 CODECOPY PUSH1 0x0 RETURN INVALID PUSH1 0x80 PUSH1 0x40 MSTORE CALLVALUE DUP1 ISZERO PUSH2 0x10 JUMPI PUSH1 0x0 DUP1 REVERT JUMPDEST POP PUSH1 0x4 CALLDATASIZE LT PUSH2 0x1A8 JUMPI PUSH1 0x0 CALLDATALOAD PUSH1 0xE0 SHR DUP1 PUSH4 0x630B5BA1 GT PUSH2 0xF9 JUMPI DUP1 PUSH4 0x8D88A90E GT PUSH2 0x97 JUMPI DUP1 PUSH4 0x93F1A40B GT PUSH2 0x71 JUMPI DUP1 PUSH4 0x93F1A40B EQ PUSH2 0x430 JUMPI DUP1 PUSH4 0xD49E77CD EQ PUSH2 0x475 JUMPI DUP1 PUSH4 0xE2BBB158 EQ PUSH2 0x47D JUMPI DUP1 PUSH4 0xF2FDE38B EQ PUSH2 0x4A0 JUMPI PUSH2 0x1A8 JUMP JUMPDEST DUP1 PUSH4 0x8D88A90E EQ PUSH2 0x3DF JUMPI DUP1 PUSH4 0x8DA5CB5B EQ PUSH2 0x405 JUMPI DUP1 PUSH4 0x8DBB1E3A EQ PUSH2 0x40D JUMPI PUSH2 0x1A8 JUMP JUMPDEST DUP1 PUSH4 0x6DCA5A59 GT PUSH2 0xD3 JUMPI DUP1 PUSH4 0x6DCA5A59 EQ PUSH2 0x3BF JUMPI DUP1 PUSH4 0x715018A6 EQ PUSH2 0x3C7 JUMPI DUP1 PUSH4 0x7CD07E47 EQ PUSH2 0x3CF JUMPI DUP1 PUSH4 0x8AA28550 EQ PUSH2 0x3D7 JUMPI PUSH2 0x1A8 JUMP JUMPDEST DUP1 PUSH4 0x630B5BA1 EQ PUSH2 0x352 JUMPI DUP1 PUSH4 0x64482F79 EQ PUSH2 0x35A JUMPI DUP1 PUSH4 0x67968DAC EQ PUSH2 0x385 JUMPI PUSH2 0x1A8 JUMP JUMPDEST DUP1 PUSH4 0x23CF3118 GT PUSH2 0x166 JUMPI DUP1 PUSH4 0x454B0608 GT PUSH2 0x140 JUMPI DUP1 PUSH4 0x454B0608 EQ PUSH2 0x2F3 JUMPI DUP1 PUSH4 0x48CD4CB1 EQ PUSH2 0x310 JUMPI DUP1 PUSH4 0x51EB05A6 EQ PUSH2 0x318 JUMPI DUP1 PUSH4 0x5312EA8E EQ PUSH2 0x335 JUMPI PUSH2 0x1A8 JUMP JUMPDEST DUP1 PUSH4 0x23CF3118 EQ PUSH2 0x286 JUMPI DUP1 PUSH4 0x29A91B09 EQ PUSH2 0x2AC JUMPI DUP1 PUSH4 0x441A3E70 EQ PUSH2 0x2D0 JUMPI PUSH2 0x1A8 JUMP JUMPDEST DUP1 PUSH3 0x8201D5 EQ PUSH2 0x1AD JUMPI DUP1 PUSH4 0x81E3EDA EQ PUSH2 0x1EB JUMPI DUP1 PUSH4 0x1526FE27 EQ PUSH2 0x1F3 JUMPI DUP1 PUSH4 0x17CAF6F1 EQ PUSH2 0x240 JUMPI DUP1 PUSH4 0x1AED6553 EQ PUSH2 0x248 JUMPI DUP1 PUSH4 0x1EAAA045 EQ PUSH2 0x250 JUMPI JUMPDEST PUSH1 0x0 DUP1 REVERT JUMPDEST PUSH2 0x1D9 PUSH1 0x4 DUP1 CALLDATASIZE SUB PUSH1 0x40 DUP2 LT ISZERO PUSH2 0x1C3 JUMPI PUSH1 0x0 DUP1 REVERT JUMPDEST POP DUP1 CALLDATALOAD SWAP1 PUSH1 0x20 ADD CALLDATALOAD PUSH1 0x1 PUSH1 0x1 PUSH1 0xA0 SHL SUB AND PUSH2 0x4C6 JUMP JUMPDEST PUSH1 0x40 DUP1 MLOAD SWAP2 DUP3 MSTORE MLOAD SWAP1 DUP2 SWAP1 SUB PUSH1 0x20 ADD SWAP1 RETURN JUMPDEST PUSH2 0x1D9 PUSH2 0x683 JUMP JUMPDEST PUSH2 0x210 PUSH1 0x4 DUP1 CALLDATASIZE SUB PUSH1 0x20 DUP2 LT ISZERO PUSH2 0x209 JUMPI PUSH1 0x0 DUP1 REVERT JUMPDEST POP CALLDATALOAD PUSH2 0x689 JUMP JUMPDEST PUSH1 0x40 DUP1 MLOAD PUSH1 0x1 PUSH1 0x1 PUSH1 0xA0 SHL SUB SWAP1 SWAP6 AND DUP6 MSTORE PUSH1 0x20 DUP6 ADD SWAP4 SWAP1 SWAP4 MSTORE DUP4 DUP4 ADD SWAP2 SWAP1 SWAP2 MSTORE PUSH1 0x60 DUP4 ADD MSTORE MLOAD SWAP1 DUP2 SWAP1 SUB PUSH1 0x80 ADD SWAP1 RETURN JUMPDEST PUSH2 0x1D9 PUSH2 0x6CA JUMP JUMPDEST PUSH2 0x1D9 PUSH2 0x6D0 JUMP JUMPDEST PUSH2 0x284 PUSH1 0x4 DUP1 CALLDATASIZE SUB PUSH1 0x60 DUP2 LT ISZERO PUSH2 0x266 JUMPI PUSH1 0x0 DUP1 REVERT JUMPDEST POP DUP1 CALLDATALOAD SWAP1 PUSH1 0x1 PUSH1 0x1 PUSH1 0xA0 SHL SUB PUSH1 0x20 DUP3 ADD CALLDATALOAD AND SWAP1 PUSH1 0x40 ADD CALLDATALOAD ISZERO ISZERO PUSH2 0x6D6 JUMP JUMPDEST STOP JUMPDEST PUSH2 0x284 PUSH1 0x4 DUP1 CALLDATASIZE SUB PUSH1 0x20 DUP2 LT ISZERO PUSH2 0x29C JUMPI PUSH1 0x0 DUP1 REVERT JUMPDEST POP CALLDATALOAD PUSH1 0x1 PUSH1 0x1 PUSH1 0xA0 SHL SUB AND PUSH2 0x922 JUMP JUMPDEST PUSH2 0x2B4 PUSH2 0x9CE JUMP JUMPDEST PUSH1 0x40 DUP1 MLOAD PUSH1 0x1 PUSH1 0x1 PUSH1 0xA0 SHL SUB SWAP1 SWAP3 AND DUP3 MSTORE MLOAD SWAP1 DUP2 SWAP1 SUB PUSH1 0x20 ADD SWAP1 RETURN JUMPDEST PUSH2 0x284 PUSH1 0x4 DUP1 CALLDATASIZE SUB PUSH1 0x40 DUP2 LT ISZERO PUSH2 0x2E6 JUMPI PUSH1 0x0 DUP1 REVERT JUMPDEST POP DUP1 CALLDATALOAD SWAP1 PUSH1 0x20 ADD CALLDATALOAD PUSH2 0x9DD JUMP JUMPDEST PUSH2 0x284 PUSH1 0x4 DUP1 CALLDATASIZE SUB PUSH1 0x20 DUP2 LT ISZERO PUSH2 0x309 JUMPI PUSH1 0x0 DUP1 REVERT JUMPDEST POP CALLDATALOAD PUSH2 0xB69 JUMP JUMPDEST PUSH2 0x1D9 PUSH2 0xE0A JUMP JUMPDEST PUSH2 0x284 PUSH1 0x4 DUP1 CALLDATASIZE SUB PUSH1 0x20 DUP2 LT ISZERO PUSH2 0x32E JUMPI PUSH1 0x0 DUP1 REVERT JUMPDEST POP CALLDATALOAD PUSH2 0xE10 JUMP JUMPDEST PUSH2 0x284 PUSH1 0x4 DUP1 CALLDATASIZE SUB PUSH1 0x20 DUP2 LT ISZERO PUSH2 0x34B JUMPI PUSH1 0x0 DUP1 REVERT JUMPDEST POP CALLDATALOAD PUSH2 0x1076 JUMP JUMPDEST PUSH2 0x284 PUSH2 0x1151 JUMP JUMPDEST PUSH2 0x284 PUSH1 0x4 DUP1 CALLDATASIZE SUB PUSH1 0x60 DUP2 LT ISZERO PUSH2 0x370 JUMPI PUSH1 0x0 DUP1 REVERT JUMPDEST POP DUP1 CALLDATALOAD SWAP1 PUSH1 0x20 DUP2 ADD CALLDATALOAD SWAP1 PUSH1 0x40 ADD CALLDATALOAD ISZERO ISZERO PUSH2 0x1174 JUMP JUMPDEST PUSH2 0x3AB PUSH1 0x4 DUP1 CALLDATASIZE SUB PUSH1 0x20 DUP2 LT ISZERO PUSH2 0x39B JUMPI PUSH1 0x0 DUP1 REVERT JUMPDEST POP CALLDATALOAD PUSH1 0x1 PUSH1 0x1 PUSH1 0xA0 SHL SUB AND PUSH2 0x12D6 JUMP JUMPDEST PUSH1 0x40 DUP1 MLOAD SWAP2 ISZERO ISZERO DUP3 MSTORE MLOAD SWAP1 DUP2 SWAP1 SUB PUSH1 0x20 ADD SWAP1 RETURN JUMPDEST PUSH2 0x1D9 PUSH2 0x12EB JUMP JUMPDEST PUSH2 0x284 PUSH2 0x12F1 JUMP JUMPDEST PUSH2 0x2B4 PUSH2 0x139D JUMP JUMPDEST PUSH2 0x1D9 PUSH2 0x13AC JUMP JUMPDEST PUSH2 0x284 PUSH1 0x4 DUP1 CALLDATASIZE SUB PUSH1 0x20 DUP2 LT ISZERO PUSH2 0x3F5 JUMPI PUSH1 0x0 DUP1 REVERT JUMPDEST POP CALLDATALOAD PUSH1 0x1 PUSH1 0x1 PUSH1 0xA0 SHL SUB AND PUSH2 0x13B1 JUMP JUMPDEST PUSH2 0x2B4 PUSH2 0x1446 JUMP JUMPDEST PUSH2 0x1D9 PUSH1 0x4 DUP1 CALLDATASIZE SUB PUSH1 0x40 DUP2 LT ISZERO PUSH2 0x423 JUMPI PUSH1 0x0 DUP1 REVERT JUMPDEST POP DUP1 CALLDATALOAD SWAP1 PUSH1 0x20 ADD CALLDATALOAD PUSH2 0x1455 JUMP JUMPDEST PUSH2 0x45C PUSH1 0x4 DUP1 CALLDATASIZE SUB PUSH1 0x40 DUP2 LT ISZERO PUSH2 0x446 JUMPI PUSH1 0x0 DUP1 REVERT JUMPDEST POP DUP1 CALLDATALOAD SWAP1 PUSH1 0x20 ADD CALLDATALOAD PUSH1 0x1 PUSH1 0x1 PUSH1 0xA0 SHL SUB AND PUSH2 0x14BB JUMP JUMPDEST PUSH1 0x40 DUP1 MLOAD SWAP3 DUP4 MSTORE PUSH1 0x20 DUP4 ADD SWAP2 SWAP1 SWAP2 MSTORE DUP1 MLOAD SWAP2 DUP3 SWAP1 SUB ADD SWAP1 RETURN JUMPDEST PUSH2 0x2B4 PUSH2 0x14DF JUMP JUMPDEST PUSH2 0x284 PUSH1 0x4 DUP1 CALLDATASIZE SUB PUSH1 0x40 DUP2 LT ISZERO PUSH2 0x493 JUMPI PUSH1 0x0 DUP1 REVERT JUMPDEST POP DUP1 CALLDATALOAD SWAP1 PUSH1 0x20 ADD CALLDATALOAD PUSH2 0x14EE JUMP JUMPDEST PUSH2 0x284 PUSH1 0x4 DUP1 CALLDATASIZE SUB PUSH1 0x20 DUP2 LT ISZERO PUSH2 0x4B6 JUMPI PUSH1 0x0 DUP1 REVERT JUMPDEST POP CALLDATALOAD PUSH1 0x1 PUSH1 0x1 PUSH1 0xA0 SHL SUB AND PUSH2 0x1638 JUMP JUMPDEST PUSH1 0x6 SLOAD PUSH1 0x0 SWAP1 DUP4 LT PUSH2 0x50E JUMPI PUSH1 0x40 DUP1 MLOAD PUSH3 0x461BCD PUSH1 0xE5 SHL DUP2 MSTORE PUSH1 0x20 PUSH1 0x4 DUP3 ADD MSTORE PUSH1 0xC PUSH1 0x24 DUP3 ADD MSTORE PUSH12 0x1A5B9D985B1A590817DC1A59 PUSH1 0xA2 SHL PUSH1 0x44 DUP3 ADD MSTORE SWAP1 MLOAD SWAP1 DUP2 SWAP1 SUB PUSH1 0x64 ADD SWAP1 REVERT JUMPDEST PUSH1 0x0 PUSH1 0x6 DUP5 DUP2 SLOAD DUP2 LT PUSH2 0x51D JUMPI INVALID JUMPDEST PUSH1 0x0 SWAP2 DUP3 MSTORE PUSH1 0x20 DUP1 DUP4 KECCAK256 DUP8 DUP5 MSTORE PUSH1 0x7 DUP3 MSTORE PUSH1 0x40 DUP1 DUP6 KECCAK256 PUSH1 0x1 PUSH1 0x1 PUSH1 0xA0 SHL SUB DUP10 DUP2 AND DUP8 MSTORE SWAP1 DUP5 MSTORE DUP2 DUP7 KECCAK256 PUSH1 0x4 SWAP6 DUP7 MUL SWAP1 SWAP4 ADD PUSH1 0x3 DUP2 ADD SLOAD DUP2 SLOAD DUP5 MLOAD PUSH4 0x70A08231 PUSH1 0xE0 SHL DUP2 MSTORE ADDRESS SWAP9 DUP2 ADD SWAP9 SWAP1 SWAP9 MSTORE SWAP4 MLOAD SWAP2 SWAP9 POP SWAP4 SWAP7 SWAP4 SWAP6 SWAP4 SWAP5 SWAP3 SWAP1 SWAP2 AND SWAP3 PUSH4 0x70A08231 SWAP3 PUSH1 0x24 DUP1 DUP4 ADD SWAP4 SWAP2 SWAP3 DUP3 SWAP1 SUB ADD DUP2 DUP7 DUP1 EXTCODESIZE ISZERO DUP1 ISZERO PUSH2 0x59B JUMPI PUSH1 0x0 DUP1 REVERT JUMPDEST POP GAS STATICCALL ISZERO DUP1 ISZERO PUSH2 0x5AF JUMPI RETURNDATASIZE PUSH1 0x0 DUP1 RETURNDATACOPY RETURNDATASIZE PUSH1 0x0 REVERT JUMPDEST POP POP POP POP PUSH1 0x40 MLOAD RETURNDATASIZE PUSH1 0x20 DUP2 LT ISZERO PUSH2 0x5C5 JUMPI PUSH1 0x0 DUP1 REVERT JUMPDEST POP MLOAD PUSH1 0x2 DUP6 ADD SLOAD SWAP1 SWAP2 POP NUMBER GT DUP1 ISZERO PUSH2 0x5DC JUMPI POP DUP1 ISZERO ISZERO JUMPDEST ISZERO PUSH2 0x648 JUMPI PUSH1 0x0 PUSH2 0x5F1 DUP6 PUSH1 0x2 ADD SLOAD NUMBER PUSH2 0x1455 JUMP JUMPDEST SWAP1 POP PUSH1 0x0 PUSH2 0x624 PUSH1 0x9 SLOAD PUSH2 0x61E DUP9 PUSH1 0x1 ADD SLOAD PUSH2 0x618 PUSH1 0x4 SLOAD DUP8 PUSH2 0x173A SWAP1 SWAP2 SWAP1 PUSH4 0xFFFFFFFF AND JUMP JUMPDEST SWAP1 PUSH2 0x173A JUMP JUMPDEST SWAP1 PUSH2 0x179A JUMP JUMPDEST SWAP1 POP PUSH2 0x643 PUSH2 0x63C DUP5 PUSH2 0x61E DUP5 PUSH5 0xE8D4A51000 PUSH2 0x173A JUMP JUMPDEST DUP6 SWAP1 PUSH2 0x1801 JUMP JUMPDEST SWAP4 POP POP POP JUMPDEST PUSH2 0x676 DUP4 PUSH1 0x1 ADD SLOAD PUSH2 0x670 PUSH5 0xE8D4A51000 PUSH2 0x61E DUP7 DUP9 PUSH1 0x0 ADD SLOAD PUSH2 0x173A SWAP1 SWAP2 SWAP1 PUSH4 0xFFFFFFFF AND JUMP JUMPDEST SWAP1 PUSH2 0x185B JUMP JUMPDEST SWAP5 POP POP POP POP POP JUMPDEST SWAP3 SWAP2 POP POP JUMP JUMPDEST PUSH1 0x6 SLOAD SWAP1 JUMP JUMPDEST PUSH1 0x6 DUP2 DUP2 SLOAD DUP2 LT PUSH2 0x696 JUMPI INVALID JUMPDEST PUSH1 0x0 SWAP2 DUP3 MSTORE PUSH1 0x20 SWAP1 SWAP2 KECCAK256 PUSH1 0x4 SWAP1 SWAP2 MUL ADD DUP1 SLOAD PUSH1 0x1 DUP3 ADD SLOAD PUSH1 0x2 DUP4 ADD SLOAD PUSH1 0x3 SWAP1 SWAP4 ADD SLOAD PUSH1 0x1 PUSH1 0x1 PUSH1 0xA0 SHL SUB SWAP1 SWAP3 AND SWAP4 POP SWAP2 SWAP1 DUP5 JUMP JUMPDEST PUSH1 0x9 SLOAD DUP2 JUMP JUMPDEST PUSH1 0x3 SLOAD DUP2 JUMP JUMPDEST PUSH2 0x6DE PUSH2 0x18B8 JUMP JUMPDEST PUSH1 0x1 PUSH1 0x1 PUSH1 0xA0 SHL SUB AND PUSH2 0x6EF PUSH2 0x1446 JUMP JUMPDEST PUSH1 0x1 PUSH1 0x1 PUSH1 0xA0 SHL SUB AND EQ PUSH2 0x738 JUMPI PUSH1 0x40 DUP1 MLOAD PUSH3 0x461BCD PUSH1 0xE5 SHL DUP2 MSTORE PUSH1 0x20 PUSH1 0x4 DUP3 ADD DUP2 SWAP1 MSTORE PUSH1 0x24 DUP3 ADD MSTORE PUSH1 0x0 DUP1 MLOAD PUSH1 0x20 PUSH2 0x1F44 DUP4 CODECOPY DUP2 MLOAD SWAP2 MSTORE PUSH1 0x44 DUP3 ADD MSTORE SWAP1 MLOAD SWAP1 DUP2 SWAP1 SUB PUSH1 0x64 ADD SWAP1 REVERT JUMPDEST PUSH1 0x1 PUSH1 0x1 PUSH1 0xA0 SHL SUB DUP3 AND PUSH1 0x0 SWAP1 DUP2 MSTORE PUSH1 0x8 PUSH1 0x20 MSTORE PUSH1 0x40 SWAP1 KECCAK256 SLOAD PUSH1 0xFF AND ISZERO ISZERO PUSH1 0x1 EQ ISZERO PUSH2 0x7AB JUMPI PUSH1 0x40 DUP1 MLOAD PUSH3 0x461BCD PUSH1 0xE5 SHL DUP2 MSTORE PUSH1 0x20 PUSH1 0x4 DUP3 ADD MSTORE PUSH1 0x1C PUSH1 0x24 DUP3 ADD MSTORE PUSH32 0x4D6173746572436865663A204C5020616C726561647920616464656400000000 PUSH1 0x44 DUP3 ADD MSTORE SWAP1 MLOAD SWAP1 DUP2 SWAP1 SUB PUSH1 0x64 ADD SWAP1 REVERT JUMPDEST DUP1 ISZERO PUSH2 0x7B9 JUMPI PUSH2 0x7B9 PUSH2 0x1151 JUMP JUMPDEST PUSH1 0x0 PUSH1 0xA SLOAD NUMBER GT PUSH2 0x7CC JUMPI PUSH1 0xA SLOAD PUSH2 0x7CE JUMP JUMPDEST NUMBER JUMPDEST PUSH1 0x9 SLOAD SWAP1 SWAP2 POP PUSH2 0x7DE SWAP1 DUP6 PUSH2 0x1801 JUMP JUMPDEST PUSH1 0x9 SSTORE PUSH1 0x40 DUP1 MLOAD PUSH1 0x80 DUP2 ADD DUP3 MSTORE PUSH1 0x1 PUSH1 0x1 PUSH1 0xA0 SHL SUB DUP6 DUP2 AND DUP1 DUP4 MSTORE PUSH1 0x20 DUP1 DUP5 ADD DUP10 DUP2 MSTORE DUP5 DUP7 ADD DUP8 DUP2 MSTORE PUSH1 0x0 PUSH1 0x60 DUP8 ADD DUP2 DUP2 MSTORE PUSH1 0x6 DUP1 SLOAD PUSH1 0x1 DUP1 DUP3 ADD DUP4 SSTORE SWAP2 DUP5 MSTORE SWAP9 MLOAD PUSH32 0xF652222313E28459528D920B65115C16C04F3EFC82AAEDC97BE59F3F377C0D3F PUSH1 0x4 SWAP1 SWAP11 MUL SWAP10 DUP11 ADD DUP1 SLOAD PUSH1 0x1 PUSH1 0x1 PUSH1 0xA0 SHL SUB NOT AND SWAP2 SWAP1 SWAP10 AND OR SWAP1 SWAP8 SSTORE SWAP3 MLOAD PUSH32 0xF652222313E28459528D920B65115C16C04F3EFC82AAEDC97BE59F3F377C0D40 DUP9 ADD SSTORE SWAP1 MLOAD PUSH32 0xF652222313E28459528D920B65115C16C04F3EFC82AAEDC97BE59F3F377C0D41 DUP8 ADD SSTORE SWAP1 MLOAD PUSH32 0xF652222313E28459528D920B65115C16C04F3EFC82AAEDC97BE59F3F377C0D42 SWAP1 SWAP6 ADD SWAP5 SWAP1 SWAP5 SSTORE DUP2 DUP5 MSTORE PUSH1 0x8 DUP2 MSTORE SWAP3 DUP5 SWAP1 KECCAK256 DUP1 SLOAD PUSH1 0xFF NOT AND SWAP1 SWAP3 OR SWAP1 SWAP2 SSTORE DUP3 MLOAD DUP8 DUP2 MSTORE SWAP3 MLOAD SWAP1 SWAP3 PUSH32 0x4B2733D4C19FF86CA1469BF779EE11B098D271775A4559ED4AD78C3CA048B2FA SWAP3 SWAP1 DUP3 SWAP1 SUB ADD SWAP1 LOG2 POP POP POP POP JUMP JUMPDEST PUSH2 0x92A PUSH2 0x18B8 JUMP JUMPDEST PUSH1 0x1 PUSH1 0x1 PUSH1 0xA0 SHL SUB AND PUSH2 0x93B PUSH2 0x1446 JUMP JUMPDEST PUSH1 0x1 PUSH1 0x1 PUSH1 0xA0 SHL SUB AND EQ PUSH2 0x984 JUMPI PUSH1 0x40 DUP1 MLOAD PUSH3 0x461BCD PUSH1 0xE5 SHL DUP2 MSTORE PUSH1 0x20 PUSH1 0x4 DUP3 ADD DUP2 SWAP1 MSTORE PUSH1 0x24 DUP3 ADD MSTORE PUSH1 0x0 DUP1 MLOAD PUSH1 0x20 PUSH2 0x1F44 DUP4 CODECOPY DUP2 MLOAD SWAP2 MSTORE PUSH1 0x44 DUP3 ADD MSTORE SWAP1 MLOAD SWAP1 DUP2 SWAP1 SUB PUSH1 0x64 ADD SWAP1 REVERT JUMPDEST PUSH1 0x5 DUP1 SLOAD PUSH1 0x1 PUSH1 0x1 PUSH1 0xA0 SHL SUB NOT AND PUSH1 0x1 PUSH1 0x1 PUSH1 0xA0 SHL SUB DUP4 AND SWAP1 DUP2 OR SWAP1 SWAP2 SSTORE PUSH1 0x40 MLOAD PUSH32 0x3BA4758949FEBC607E14523620298F8B5995B1848492AD7AA083372AC886AE07 SWAP1 PUSH1 0x0 SWAP1 LOG2 POP JUMP JUMPDEST PUSH1 0x1 SLOAD PUSH1 0x1 PUSH1 0x1 PUSH1 0xA0 SHL SUB AND DUP2 JUMP JUMPDEST PUSH1 0x6 SLOAD DUP3 LT PUSH2 0xA22 JUMPI PUSH1 0x40 DUP1 MLOAD PUSH3 0x461BCD PUSH1 0xE5 SHL DUP2 MSTORE PUSH1 0x20 PUSH1 0x4 DUP3 ADD MSTORE PUSH1 0xC PUSH1 0x24 DUP3 ADD MSTORE PUSH12 0x1A5B9D985B1A590817DC1A59 PUSH1 0xA2 SHL PUSH1 0x44 DUP3 ADD MSTORE SWAP1 MLOAD SWAP1 DUP2 SWAP1 SUB PUSH1 0x64 ADD SWAP1 REVERT JUMPDEST PUSH1 0x0 PUSH1 0x6 DUP4 DUP2 SLOAD DUP2 LT PUSH2 0xA31 JUMPI INVALID JUMPDEST PUSH1 0x0 SWAP2 DUP3 MSTORE PUSH1 0x20 DUP1 DUP4 KECCAK256 DUP7 DUP5 MSTORE PUSH1 0x7 DUP3 MSTORE PUSH1 0x40 DUP1 DUP6 KECCAK256 CALLER DUP7 MSTORE SWAP1 SWAP3 MSTORE SWAP3 KECCAK256 DUP1 SLOAD PUSH1 0x4 SWAP1 SWAP3 MUL SWAP1 SWAP3 ADD SWAP3 POP DUP4 GT ISZERO PUSH2 0xAA4 JUMPI PUSH1 0x40 DUP1 MLOAD PUSH3 0x461BCD PUSH1 0xE5 SHL DUP2 MSTORE PUSH1 0x20 PUSH1 0x4 DUP3 ADD MSTORE PUSH1 0x12 PUSH1 0x24 DUP3 ADD MSTORE PUSH18 0x1DDA5D1A191C985DCE881B9BDD0819DBDBD9 PUSH1 0x72 SHL PUSH1 0x44 DUP3 ADD MSTORE SWAP1 MLOAD SWAP1 DUP2 SWAP1 SUB PUSH1 0x64 ADD SWAP1 REVERT JUMPDEST PUSH2 0xAAD DUP5 PUSH2 0xE10 JUMP JUMPDEST PUSH1 0x0 PUSH2 0xADB DUP3 PUSH1 0x1 ADD SLOAD PUSH2 0x670 PUSH5 0xE8D4A51000 PUSH2 0x61E DUP8 PUSH1 0x3 ADD SLOAD DUP8 PUSH1 0x0 ADD SLOAD PUSH2 0x173A SWAP1 SWAP2 SWAP1 PUSH4 0xFFFFFFFF AND JUMP JUMPDEST SWAP1 POP PUSH2 0xAE7 CALLER DUP3 PUSH2 0x18BC JUMP JUMPDEST DUP2 SLOAD PUSH2 0xAF3 SWAP1 DUP6 PUSH2 0x185B JUMP JUMPDEST DUP1 DUP4 SSTORE PUSH1 0x3 DUP5 ADD SLOAD PUSH2 0xB10 SWAP2 PUSH5 0xE8D4A51000 SWAP2 PUSH2 0x61E SWAP2 SWAP1 PUSH2 0x173A JUMP JUMPDEST PUSH1 0x1 DUP4 ADD SSTORE DUP3 SLOAD PUSH2 0xB2B SWAP1 PUSH1 0x1 PUSH1 0x1 PUSH1 0xA0 SHL SUB AND CALLER DUP7 PUSH2 0x1A4D JUMP JUMPDEST PUSH1 0x40 DUP1 MLOAD DUP6 DUP2 MSTORE SWAP1 MLOAD DUP7 SWAP2 CALLER SWAP2 PUSH32 0xF279E6A1F5E320CCA91135676D9CB6E44CA8A08C0B88342BCDB1144F6511B568 SWAP2 DUP2 SWAP1 SUB PUSH1 0x20 ADD SWAP1 LOG3 POP POP POP POP POP JUMP JUMPDEST PUSH1 0x6 SLOAD DUP2 LT PUSH2 0xBAE JUMPI PUSH1 0x40 DUP1 MLOAD PUSH3 0x461BCD PUSH1 0xE5 SHL DUP2 MSTORE PUSH1 0x20 PUSH1 0x4 DUP3 ADD MSTORE PUSH1 0xC PUSH1 0x24 DUP3 ADD MSTORE PUSH12 0x1A5B9D985B1A590817DC1A59 PUSH1 0xA2 SHL PUSH1 0x44 DUP3 ADD MSTORE SWAP1 MLOAD SWAP1 DUP2 SWAP1 SUB PUSH1 0x64 ADD SWAP1 REVERT JUMPDEST PUSH1 0x5 SLOAD PUSH1 0x1 PUSH1 0x1 PUSH1 0xA0 SHL SUB AND PUSH2 0xC02 JUMPI PUSH1 0x40 DUP1 MLOAD PUSH3 0x461BCD PUSH1 0xE5 SHL DUP2 MSTORE PUSH1 0x20 PUSH1 0x4 DUP3 ADD MSTORE PUSH1 0x14 PUSH1 0x24 DUP3 ADD MSTORE PUSH20 0x36B4B3B930BA329D1037379036B4B3B930BA37B9 PUSH1 0x61 SHL PUSH1 0x44 DUP3 ADD MSTORE SWAP1 MLOAD SWAP1 DUP2 SWAP1 SUB PUSH1 0x64 ADD SWAP1 REVERT JUMPDEST PUSH1 0x0 PUSH1 0x6 DUP3 DUP2 SLOAD DUP2 LT PUSH2 0xC11 JUMPI INVALID JUMPDEST PUSH1 0x0 SWAP2 DUP3 MSTORE PUSH1 0x20 DUP1 DUP4 KECCAK256 PUSH1 0x4 SWAP3 DUP4 MUL ADD DUP1 SLOAD PUSH1 0x40 DUP1 MLOAD PUSH4 0x70A08231 PUSH1 0xE0 SHL DUP2 MSTORE ADDRESS SWAP6 DUP2 ADD SWAP6 SWAP1 SWAP6 MSTORE MLOAD SWAP2 SWAP6 POP PUSH1 0x1 PUSH1 0x1 PUSH1 0xA0 SHL SUB AND SWAP4 SWAP3 DUP5 SWAP3 PUSH4 0x70A08231 SWAP3 PUSH1 0x24 DUP1 DUP5 ADD SWAP4 DUP3 SWAP1 SUB ADD DUP2 DUP7 DUP1 EXTCODESIZE ISZERO DUP1 ISZERO PUSH2 0xC6A JUMPI PUSH1 0x0 DUP1 REVERT JUMPDEST POP GAS STATICCALL ISZERO DUP1 ISZERO PUSH2 0xC7E JUMPI RETURNDATASIZE PUSH1 0x0 DUP1 RETURNDATACOPY RETURNDATASIZE PUSH1 0x0 REVERT JUMPDEST POP POP POP POP PUSH1 0x40 MLOAD RETURNDATASIZE PUSH1 0x20 DUP2 LT ISZERO PUSH2 0xC94 JUMPI PUSH1 0x0 DUP1 REVERT JUMPDEST POP MLOAD PUSH1 0x5 SLOAD SWAP1 SWAP2 POP PUSH2 0xCB3 SWAP1 PUSH1 0x1 PUSH1 0x1 PUSH1 0xA0 SHL SUB DUP5 DUP2 AND SWAP2 AND DUP4 PUSH2 0x1A9F JUMP JUMPDEST PUSH1 0x5 SLOAD PUSH1 0x40 DUP1 MLOAD PUSH4 0xCE5494BB PUSH1 0xE0 SHL DUP2 MSTORE PUSH1 0x1 PUSH1 0x1 PUSH1 0xA0 SHL SUB DUP6 DUP2 AND PUSH1 0x4 DUP4 ADD MSTORE SWAP2 MLOAD PUSH1 0x0 SWAP4 SWAP3 SWAP1 SWAP3 AND SWAP2 PUSH4 0xCE5494BB SWAP2 PUSH1 0x24 DUP1 DUP3 ADD SWAP3 PUSH1 0x20 SWAP3 SWAP1 SWAP2 SWAP1 DUP3 SWAP1 SUB ADD DUP2 DUP8 DUP8 DUP1 EXTCODESIZE ISZERO DUP1 ISZERO PUSH2 0xD05 JUMPI PUSH1 0x0 DUP1 REVERT JUMPDEST POP GAS CALL ISZERO DUP1 ISZERO PUSH2 0xD19 JUMPI RETURNDATASIZE PUSH1 0x0 DUP1 RETURNDATACOPY RETURNDATASIZE PUSH1 0x0 REVERT JUMPDEST POP POP POP POP PUSH1 0x40 MLOAD RETURNDATASIZE PUSH1 0x20 DUP2 LT ISZERO PUSH2 0xD2F JUMPI PUSH1 0x0 DUP1 REVERT JUMPDEST POP MLOAD PUSH1 0x40 DUP1 MLOAD PUSH4 0x70A08231 PUSH1 0xE0 SHL DUP2 MSTORE ADDRESS PUSH1 0x4 DUP3 ADD MSTORE SWAP1 MLOAD SWAP2 SWAP3 POP PUSH1 0x1 PUSH1 0x1 PUSH1 0xA0 SHL SUB DUP4 AND SWAP2 PUSH4 0x70A08231 SWAP2 PUSH1 0x24 DUP1 DUP3 ADD SWAP3 PUSH1 0x20 SWAP3 SWAP1 SWAP2 SWAP1 DUP3 SWAP1 SUB ADD DUP2 DUP7 DUP1 EXTCODESIZE ISZERO DUP1 ISZERO PUSH2 0xD7B JUMPI PUSH1 0x0 DUP1 REVERT JUMPDEST POP GAS STATICCALL ISZERO DUP1 ISZERO PUSH2 0xD8F JUMPI RETURNDATASIZE PUSH1 0x0 DUP1 RETURNDATACOPY RETURNDATASIZE PUSH1 0x0 REVERT JUMPDEST POP POP POP POP PUSH1 0x40 MLOAD RETURNDATASIZE PUSH1 0x20 DUP2 LT ISZERO PUSH2 0xDA5 JUMPI PUSH1 0x0 DUP1 REVERT JUMPDEST POP MLOAD DUP3 EQ PUSH2 0xDE9 JUMPI PUSH1 0x40 DUP1 MLOAD PUSH3 0x461BCD PUSH1 0xE5 SHL DUP2 MSTORE PUSH1 0x20 PUSH1 0x4 DUP3 ADD MSTORE PUSH1 0xC PUSH1 0x24 DUP3 ADD MSTORE PUSH12 0x1B5A59DC985D194E88189859 PUSH1 0xA2 SHL PUSH1 0x44 DUP3 ADD MSTORE SWAP1 MLOAD SWAP1 DUP2 SWAP1 SUB PUSH1 0x64 ADD SWAP1 REVERT JUMPDEST DUP4 SLOAD PUSH1 0x1 PUSH1 0x1 PUSH1 0xA0 SHL SUB NOT AND PUSH1 0x1 PUSH1 0x1 PUSH1 0xA0 SHL SUB SWAP2 SWAP1 SWAP2 AND OR SWAP1 SWAP3 SSTORE POP POP POP JUMP JUMPDEST PUSH1 0xA SLOAD DUP2 JUMP JUMPDEST PUSH1 0x6 SLOAD DUP2 LT PUSH2 0xE55 JUMPI PUSH1 0x40 DUP1 MLOAD PUSH3 0x461BCD PUSH1 0xE5 SHL DUP2 MSTORE PUSH1 0x20 PUSH1 0x4 DUP3 ADD MSTORE PUSH1 0xC PUSH1 0x24 DUP3 ADD MSTORE PUSH12 0x1A5B9D985B1A590817DC1A59 PUSH1 0xA2 SHL PUSH1 0x44 DUP3 ADD MSTORE SWAP1 MLOAD SWAP1 DUP2 SWAP1 SUB PUSH1 0x64 ADD SWAP1 REVERT JUMPDEST PUSH1 0x0 PUSH1 0x6 DUP3 DUP2 SLOAD DUP2 LT PUSH2 0xE64 JUMPI INVALID JUMPDEST SWAP1 PUSH1 0x0 MSTORE PUSH1 0x20 PUSH1 0x0 KECCAK256 SWAP1 PUSH1 0x4 MUL ADD SWAP1 POP DUP1 PUSH1 0x2 ADD SLOAD NUMBER GT PUSH2 0xE85 JUMPI POP PUSH2 0x1073 JUMP JUMPDEST DUP1 SLOAD PUSH1 0x40 DUP1 MLOAD PUSH4 0x70A08231 PUSH1 0xE0 SHL DUP2 MSTORE ADDRESS PUSH1 0x4 DUP3 ADD MSTORE SWAP1 MLOAD PUSH1 0x0 SWAP3 PUSH1 0x1 PUSH1 0x1 PUSH1 0xA0 SHL SUB AND SWAP2 PUSH4 0x70A08231 SWAP2 PUSH1 0x24 DUP1 DUP4 ADD SWAP3 PUSH1 0x20 SWAP3 SWAP2 SWAP1 DUP3 SWAP1 SUB ADD DUP2 DUP7 DUP1 EXTCODESIZE ISZERO DUP1 ISZERO PUSH2 0xECF JUMPI PUSH1 0x0 DUP1 REVERT JUMPDEST POP GAS STATICCALL ISZERO DUP1 ISZERO PUSH2 0xEE3 JUMPI RETURNDATASIZE PUSH1 0x0 DUP1 RETURNDATACOPY RETURNDATASIZE PUSH1 0x0 REVERT JUMPDEST POP POP POP POP PUSH1 0x40 MLOAD RETURNDATASIZE PUSH1 0x20 DUP2 LT ISZERO PUSH2 0xEF9 JUMPI PUSH1 0x0 DUP1 REVERT JUMPDEST POP MLOAD SWAP1 POP DUP1 PUSH2 0xF0F JUMPI POP NUMBER PUSH1 0x2 SWAP1 SWAP2 ADD SSTORE PUSH2 0x1073 JUMP JUMPDEST PUSH1 0x0 PUSH2 0xF1F DUP4 PUSH1 0x2 ADD SLOAD NUMBER PUSH2 0x1455 JUMP JUMPDEST SWAP1 POP PUSH1 0x0 PUSH2 0xF46 PUSH1 0x9 SLOAD PUSH2 0x61E DUP7 PUSH1 0x1 ADD SLOAD PUSH2 0x618 PUSH1 0x4 SLOAD DUP8 PUSH2 0x173A SWAP1 SWAP2 SWAP1 PUSH4 0xFFFFFFFF AND JUMP JUMPDEST PUSH1 0x1 SLOAD PUSH1 0x2 SLOAD SWAP2 SWAP3 POP PUSH1 0x1 PUSH1 0x1 PUSH1 0xA0 SHL SUB SWAP1 DUP2 AND SWAP2 PUSH4 0x40C10F19 SWAP2 AND PUSH2 0xF6D DUP5 PUSH1 0xA PUSH2 0x179A JUMP JUMPDEST PUSH1 0x40 MLOAD DUP4 PUSH4 0xFFFFFFFF AND PUSH1 0xE0 SHL DUP2 MSTORE PUSH1 0x4 ADD DUP1 DUP4 PUSH1 0x1 PUSH1 0x1 PUSH1 0xA0 SHL SUB AND DUP2 MSTORE PUSH1 0x20 ADD DUP3 DUP2 MSTORE PUSH1 0x20 ADD SWAP3 POP POP POP PUSH1 0x0 PUSH1 0x40 MLOAD DUP1 DUP4 SUB DUP2 PUSH1 0x0 DUP8 DUP1 EXTCODESIZE ISZERO DUP1 ISZERO PUSH2 0xFB3 JUMPI PUSH1 0x0 DUP1 REVERT JUMPDEST POP GAS CALL ISZERO DUP1 ISZERO PUSH2 0xFC7 JUMPI RETURNDATASIZE PUSH1 0x0 DUP1 RETURNDATACOPY RETURNDATASIZE PUSH1 0x0 REVERT JUMPDEST POP POP PUSH1 0x1 SLOAD PUSH1 0x40 DUP1 MLOAD PUSH4 0x40C10F19 PUSH1 0xE0 SHL DUP2 MSTORE ADDRESS PUSH1 0x4 DUP3 ADD MSTORE PUSH1 0x24 DUP2 ADD DUP7 SWAP1 MSTORE SWAP1 MLOAD PUSH1 0x1 PUSH1 0x1 PUSH1 0xA0 SHL SUB SWAP1 SWAP3 AND SWAP4 POP PUSH4 0x40C10F19 SWAP3 POP PUSH1 0x44 DUP1 DUP3 ADD SWAP3 PUSH1 0x0 SWAP3 SWAP1 SWAP2 SWAP1 DUP3 SWAP1 SUB ADD DUP2 DUP4 DUP8 DUP1 EXTCODESIZE ISZERO DUP1 ISZERO PUSH2 0x101E JUMPI PUSH1 0x0 DUP1 REVERT JUMPDEST POP GAS CALL ISZERO DUP1 ISZERO PUSH2 0x1032 JUMPI RETURNDATASIZE PUSH1 0x0 DUP1 RETURNDATACOPY RETURNDATASIZE PUSH1 0x0 REVERT JUMPDEST POP POP POP POP PUSH2 0x1060 PUSH2 0x1055 DUP5 PUSH2 0x61E PUSH5 0xE8D4A51000 DUP6 PUSH2 0x173A SWAP1 SWAP2 SWAP1 PUSH4 0xFFFFFFFF AND JUMP JUMPDEST PUSH1 0x3 DUP7 ADD SLOAD SWAP1 PUSH2 0x1801 JUMP JUMPDEST PUSH1 0x3 DUP6 ADD SSTORE POP POP NUMBER PUSH1 0x2 SWAP1 SWAP3 ADD SWAP2 SWAP1 SWAP2 SSTORE POP JUMPDEST POP JUMP JUMPDEST PUSH1 0x6 SLOAD DUP2 LT PUSH2 0x10BB JUMPI PUSH1 0x40 DUP1 MLOAD PUSH3 0x461BCD PUSH1 0xE5 SHL DUP2 MSTORE PUSH1 0x20 PUSH1 0x4 DUP3 ADD MSTORE PUSH1 0xC PUSH1 0x24 DUP3 ADD MSTORE PUSH12 0x1A5B9D985B1A590817DC1A59 PUSH1 0xA2 SHL PUSH1 0x44 DUP3 ADD MSTORE SWAP1 MLOAD SWAP1 DUP2 SWAP1 SUB PUSH1 0x64 ADD SWAP1 REVERT JUMPDEST PUSH1 0x0 PUSH1 0x6 DUP3 DUP2 SLOAD DUP2 LT PUSH2 0x10CA JUMPI INVALID JUMPDEST PUSH1 0x0 SWAP2 DUP3 MSTORE PUSH1 0x20 DUP1 DUP4 KECCAK256 DUP6 DUP5 MSTORE PUSH1 0x7 DUP3 MSTORE PUSH1 0x40 DUP1 DUP6 KECCAK256 CALLER DUP1 DUP8 MSTORE SWAP1 DUP5 MSTORE DUP2 DUP7 KECCAK256 DUP1 SLOAD DUP8 DUP3 SSTORE PUSH1 0x1 DUP3 ADD SWAP8 SWAP1 SWAP8 SSTORE DUP3 MLOAD DUP8 DUP2 MSTORE SWAP3 MLOAD PUSH1 0x4 SWAP1 SWAP7 MUL SWAP1 SWAP4 ADD SWAP7 POP SWAP2 SWAP5 SWAP4 DUP8 SWAP4 PUSH32 0xBB757047C2B5F3974FE26B7C10F732E7BCE710B0952A71082702781E62AE0595 SWAP3 DUP3 SWAP1 SUB ADD SWAP1 LOG3 DUP3 SLOAD PUSH2 0x114B SWAP1 PUSH1 0x1 PUSH1 0x1 PUSH1 0xA0 SHL SUB AND CALLER DUP4 PUSH2 0x1A4D JUMP JUMPDEST POP POP POP POP JUMP JUMPDEST PUSH1 0x6 SLOAD PUSH1 0x0 JUMPDEST DUP2 DUP2 LT ISZERO PUSH2 0x1170 JUMPI PUSH2 0x1168 DUP2 PUSH2 0xE10 JUMP JUMPDEST PUSH1 0x1 ADD PUSH2 0x1157 JUMP JUMPDEST POP POP JUMP JUMPDEST PUSH2 0x117C PUSH2 0x18B8 JUMP JUMPDEST PUSH1 0x1 PUSH1 0x1 PUSH1 0xA0 SHL SUB AND PUSH2 0x118D PUSH2 0x1446 JUMP JUMPDEST PUSH1 0x1 PUSH1 0x1 PUSH1 0xA0 SHL SUB AND EQ PUSH2 0x11D6 JUMPI PUSH1 0x40 DUP1 MLOAD PUSH3 0x461BCD PUSH1 0xE5 SHL DUP2 MSTORE PUSH1 0x20 PUSH1 0x4 DUP3 ADD DUP2 SWAP1 MSTORE PUSH1 0x24 DUP3 ADD MSTORE PUSH1 0x0 DUP1 MLOAD PUSH1 0x20 PUSH2 0x1F44 DUP4 CODECOPY DUP2 MLOAD SWAP2 MSTORE PUSH1 0x44 DUP3 ADD MSTORE SWAP1 MLOAD SWAP1 DUP2 SWAP1 SUB PUSH1 0x64 ADD SWAP1 REVERT JUMPDEST PUSH1 0x6 SLOAD DUP4 LT PUSH2 0x121B JUMPI PUSH1 0x40 DUP1 MLOAD PUSH3 0x461BCD PUSH1 0xE5 SHL DUP2 MSTORE PUSH1 0x20 PUSH1 0x4 DUP3 ADD MSTORE PUSH1 0xC PUSH1 0x24 DUP3 ADD MSTORE PUSH12 0x1A5B9D985B1A590817DC1A59 PUSH1 0xA2 SHL PUSH1 0x44 DUP3 ADD MSTORE SWAP1 MLOAD SWAP1 DUP2 SWAP1 SUB PUSH1 0x64 ADD SWAP1 REVERT JUMPDEST DUP1 ISZERO PUSH2 0x1229 JUMPI PUSH2 0x1229 PUSH2 0x1151 JUMP JUMPDEST PUSH2 0x1266 DUP3 PUSH2 0x1260 PUSH1 0x6 DUP7 DUP2 SLOAD DUP2 LT PUSH2 0x123D JUMPI INVALID JUMPDEST SWAP1 PUSH1 0x0 MSTORE PUSH1 0x20 PUSH1 0x0 KECCAK256 SWAP1 PUSH1 0x4 MUL ADD PUSH1 0x1 ADD SLOAD PUSH1 0x9 SLOAD PUSH2 0x185B SWAP1 SWAP2 SWAP1 PUSH4 0xFFFFFFFF AND JUMP JUMPDEST SWAP1 PUSH2 0x1801 JUMP JUMPDEST PUSH1 0x9 DUP2 SWAP1 SSTORE POP DUP2 PUSH1 0x6 DUP5 DUP2 SLOAD DUP2 LT PUSH2 0x127A JUMPI INVALID JUMPDEST PUSH1 0x0 SWAP2 DUP3 MSTORE PUSH1 0x20 SWAP2 DUP3 SWAP1 KECCAK256 PUSH1 0x1 PUSH1 0x4 SWAP1 SWAP3 MUL ADD ADD SWAP2 SWAP1 SWAP2 SSTORE PUSH1 0x40 DUP1 MLOAD DUP6 DUP2 MSTORE SWAP2 DUP3 ADD DUP5 SWAP1 MSTORE DUP3 ISZERO ISZERO DUP3 DUP3 ADD MSTORE MLOAD PUSH32 0x16569560B3C6B0FCC09E1015438B2A2A4309AACFF1EA040A0382061A8F28A9BD SWAP2 DUP2 SWAP1 SUB PUSH1 0x60 ADD SWAP1 LOG1 POP POP POP JUMP JUMPDEST PUSH1 0x8 PUSH1 0x20 MSTORE PUSH1 0x0 SWAP1 DUP2 MSTORE PUSH1 0x40 SWAP1 KECCAK256 SLOAD PUSH1 0xFF AND DUP2 JUMP JUMPDEST PUSH1 0x4 SLOAD DUP2 JUMP JUMPDEST PUSH2 0x12F9 PUSH2 0x18B8 JUMP JUMPDEST PUSH1 0x1 PUSH1 0x1 PUSH1 0xA0 SHL SUB AND PUSH2 0x130A PUSH2 0x1446 JUMP JUMPDEST PUSH1 0x1 PUSH1 0x1 PUSH1 0xA0 SHL SUB AND EQ PUSH2 0x1353 JUMPI PUSH1 0x40 DUP1 MLOAD PUSH3 0x461BCD PUSH1 0xE5 SHL DUP2 MSTORE PUSH1 0x20 PUSH1 0x4 DUP3 ADD DUP2 SWAP1 MSTORE PUSH1 0x24 DUP3 ADD MSTORE PUSH1 0x0 DUP1 MLOAD PUSH1 0x20 PUSH2 0x1F44 DUP4 CODECOPY DUP2 MLOAD SWAP2 MSTORE PUSH1 0x44 DUP3 ADD MSTORE SWAP1 MLOAD SWAP1 DUP2 SWAP1 SUB PUSH1 0x64 ADD SWAP1 REVERT JUMPDEST PUSH1 0x0 DUP1 SLOAD PUSH1 0x40 MLOAD PUSH1 0x1 PUSH1 0x1 PUSH1 0xA0 SHL SUB SWAP1 SWAP2 AND SWAP1 PUSH32 0x8BE0079C531659141344CD1FD0A4F28419497F9722A3DAAFE3B4186F6B6457E0 SWAP1 DUP4 SWAP1 LOG3 PUSH1 0x0 DUP1 SLOAD PUSH1 0x1 PUSH1 0x1 PUSH1 0xA0 SHL SUB NOT AND SWAP1 SSTORE JUMP JUMPDEST PUSH1 0x5 SLOAD PUSH1 0x1 PUSH1 0x1 PUSH1 0xA0 SHL SUB AND DUP2 JUMP JUMPDEST PUSH1 0xA DUP2 JUMP JUMPDEST PUSH1 0x2 SLOAD PUSH1 0x1 PUSH1 0x1 PUSH1 0xA0 SHL SUB AND CALLER EQ PUSH2 0x13FC JUMPI PUSH1 0x40 DUP1 MLOAD PUSH3 0x461BCD PUSH1 0xE5 SHL DUP2 MSTORE PUSH1 0x20 PUSH1 0x4 DUP3 ADD MSTORE PUSH1 0x9 PUSH1 0x24 DUP3 ADD MSTORE PUSH9 0x6465763A207775743F PUSH1 0xB8 SHL PUSH1 0x44 DUP3 ADD MSTORE SWAP1 MLOAD SWAP1 DUP2 SWAP1 SUB PUSH1 0x64 ADD SWAP1 REVERT JUMPDEST PUSH1 0x2 DUP1 SLOAD PUSH1 0x1 PUSH1 0x1 PUSH1 0xA0 SHL SUB NOT AND PUSH1 0x1 PUSH1 0x1 PUSH1 0xA0 SHL SUB DUP4 AND SWAP1 DUP2 OR SWAP1 SWAP2 SSTORE PUSH1 0x40 MLOAD PUSH32 0x7B25FD50423FB3EC134BCB3C13DDBEFA904827E880FC79FE8F91528CBEA087CD SWAP1 PUSH1 0x0 SWAP1 LOG2 POP JUMP JUMPDEST PUSH1 0x0 SLOAD PUSH1 0x1 PUSH1 0x1 PUSH1 0xA0 SHL SUB AND SWAP1 JUMP JUMPDEST PUSH1 0x0 PUSH1 0x3 SLOAD DUP3 GT PUSH2 0x1476 JUMPI PUSH2 0x146F PUSH1 0xA PUSH2 0x618 DUP5 DUP7 PUSH2 0x185B JUMP JUMPDEST SWAP1 POP PUSH2 0x67D JUMP JUMPDEST PUSH1 0x3 SLOAD DUP4 LT PUSH2 0x1489 JUMPI PUSH2 0x146F DUP3 DUP5 PUSH2 0x185B JUMP JUMPDEST PUSH2 0x146F PUSH2 0x14A1 PUSH1 0x3 SLOAD DUP5 PUSH2 0x185B SWAP1 SWAP2 SWAP1 PUSH4 0xFFFFFFFF AND JUMP JUMPDEST PUSH2 0x1260 PUSH1 0xA PUSH2 0x618 DUP8 PUSH1 0x3 SLOAD PUSH2 0x185B SWAP1 SWAP2 SWAP1 PUSH4 0xFFFFFFFF AND JUMP JUMPDEST PUSH1 0x7 PUSH1 0x20 SWAP1 DUP2 MSTORE PUSH1 0x0 SWAP3 DUP4 MSTORE PUSH1 0x40 DUP1 DUP5 KECCAK256 SWAP1 SWAP2 MSTORE SWAP1 DUP3 MSTORE SWAP1 KECCAK256 DUP1 SLOAD PUSH1 0x1 SWAP1 SWAP2 ADD SLOAD DUP3 JUMP JUMPDEST PUSH1 0x2 SLOAD PUSH1 0x1 PUSH1 0x1 PUSH1 0xA0 SHL SUB AND DUP2 JUMP JUMPDEST PUSH1 0x6 SLOAD DUP3 LT PUSH2 0x1533 JUMPI PUSH1 0x40 DUP1 MLOAD PUSH3 0x461BCD PUSH1 0xE5 SHL DUP2 MSTORE PUSH1 0x20 PUSH1 0x4 DUP3 ADD MSTORE PUSH1 0xC PUSH1 0x24 DUP3 ADD MSTORE PUSH12 0x1A5B9D985B1A590817DC1A59 PUSH1 0xA2 SHL PUSH1 0x44 DUP3 ADD MSTORE SWAP1 MLOAD SWAP1 DUP2 SWAP1 SUB PUSH1 0x64 ADD SWAP1 REVERT JUMPDEST PUSH1 0x0 PUSH1 0x6 DUP4 DUP2 SLOAD DUP2 LT PUSH2 0x1542 JUMPI INVALID JUMPDEST PUSH1 0x0 SWAP2 DUP3 MSTORE PUSH1 0x20 DUP1 DUP4 KECCAK256 DUP7 DUP5 MSTORE PUSH1 0x7 DUP3 MSTORE PUSH1 0x40 DUP1 DUP6 KECCAK256 CALLER DUP7 MSTORE SWAP1 SWAP3 MSTORE SWAP3 KECCAK256 PUSH1 0x4 SWAP1 SWAP2 MUL SWAP1 SWAP2 ADD SWAP2 POP PUSH2 0x1573 DUP5 PUSH2 0xE10 JUMP JUMPDEST DUP1 SLOAD ISZERO PUSH2 0x15B6 JUMPI PUSH1 0x0 PUSH2 0x15A8 DUP3 PUSH1 0x1 ADD SLOAD PUSH2 0x670 PUSH5 0xE8D4A51000 PUSH2 0x61E DUP8 PUSH1 0x3 ADD SLOAD DUP8 PUSH1 0x0 ADD SLOAD PUSH2 0x173A SWAP1 SWAP2 SWAP1 PUSH4 0xFFFFFFFF AND JUMP JUMPDEST SWAP1 POP PUSH2 0x15B4 CALLER DUP3 PUSH2 0x18BC JUMP JUMPDEST POP JUMPDEST DUP2 SLOAD PUSH2 0x15CD SWAP1 PUSH1 0x1 PUSH1 0x1 PUSH1 0xA0 SHL SUB AND CALLER ADDRESS DUP7 PUSH2 0x1BB2 JUMP JUMPDEST DUP1 SLOAD PUSH2 0x15D9 SWAP1 DUP5 PUSH2 0x1801 JUMP JUMPDEST DUP1 DUP3 SSTORE PUSH1 0x3 DUP4 ADD SLOAD PUSH2 0x15F6 SWAP2 PUSH5 0xE8D4A51000 SWAP2 PUSH2 0x61E SWAP2 SWAP1 PUSH2 0x173A JUMP JUMPDEST PUSH1 0x1 DUP3 ADD SSTORE PUSH1 0x40 DUP1 MLOAD DUP5 DUP2 MSTORE SWAP1 MLOAD DUP6 SWAP2 CALLER SWAP2 PUSH32 0x90890809C654F11D6E72A28FA60149770A0D11EC6C92319D6CEB2BB0A4EA1A15 SWAP2 DUP2 SWAP1 SUB PUSH1 0x20 ADD SWAP1 LOG3 POP POP POP POP JUMP JUMPDEST PUSH2 0x1640 PUSH2 0x18B8 JUMP JUMPDEST PUSH1 0x1 PUSH1 0x1 PUSH1 0xA0 SHL SUB AND PUSH2 0x1651 PUSH2 0x1446 JUMP JUMPDEST PUSH1 0x1 PUSH1 0x1 PUSH1 0xA0 SHL SUB AND EQ PUSH2 0x169A JUMPI PUSH1 0x40 DUP1 MLOAD PUSH3 0x461BCD PUSH1 0xE5 SHL DUP2 MSTORE PUSH1 0x20 PUSH1 0x4 DUP3 ADD DUP2 SWAP1 MSTORE PUSH1 0x24 DUP3 ADD MSTORE PUSH1 0x0 DUP1 MLOAD PUSH1 0x20 PUSH2 0x1F44 DUP4 CODECOPY DUP2 MLOAD SWAP2 MSTORE PUSH1 0x44 DUP3 ADD MSTORE SWAP1 MLOAD SWAP1 DUP2 SWAP1 SUB PUSH1 0x64 ADD SWAP1 REVERT JUMPDEST PUSH1 0x1 PUSH1 0x1 PUSH1 0xA0 SHL SUB DUP2 AND PUSH2 0x16DF JUMPI PUSH1 0x40 MLOAD PUSH3 0x461BCD PUSH1 0xE5 SHL DUP2 MSTORE PUSH1 0x4 ADD DUP1 DUP1 PUSH1 0x20 ADD DUP3 DUP2 SUB DUP3 MSTORE PUSH1 0x26 DUP2 MSTORE PUSH1 0x20 ADD DUP1 PUSH2 0x1ED7 PUSH1 0x26 SWAP2 CODECOPY PUSH1 0x40 ADD SWAP2 POP POP PUSH1 0x40 MLOAD DUP1 SWAP2 SUB SWAP1 REVERT JUMPDEST PUSH1 0x0 DUP1 SLOAD PUSH1 0x40 MLOAD PUSH1 0x1 PUSH1 0x1 PUSH1 0xA0 SHL SUB DUP1 DUP6 AND SWAP4 SWAP3 AND SWAP2 PUSH32 0x8BE0079C531659141344CD1FD0A4F28419497F9722A3DAAFE3B4186F6B6457E0 SWAP2 LOG3 PUSH1 0x0 DUP1 SLOAD PUSH1 0x1 PUSH1 0x1 PUSH1 0xA0 SHL SUB NOT AND PUSH1 0x1 PUSH1 0x1 PUSH1 0xA0 SHL SUB SWAP3 SWAP1 SWAP3 AND SWAP2 SWAP1 SWAP2 OR SWAP1 SSTORE JUMP JUMPDEST PUSH1 0x0 DUP3 PUSH2 0x1749 JUMPI POP PUSH1 0x0 PUSH2 0x67D JUMP JUMPDEST DUP3 DUP3 MUL DUP3 DUP5 DUP3 DUP2 PUSH2 0x1756 JUMPI INVALID JUMPDEST DIV EQ PUSH2 0x1793 JUMPI PUSH1 0x40 MLOAD PUSH3 0x461BCD PUSH1 0xE5 SHL DUP2 MSTORE PUSH1 0x4 ADD DUP1 DUP1 PUSH1 0x20 ADD DUP3 DUP2 SUB DUP3 MSTORE PUSH1 0x21 DUP2 MSTORE PUSH1 0x20 ADD DUP1 PUSH2 0x1F23 PUSH1 0x21 SWAP2 CODECOPY PUSH1 0x40 ADD SWAP2 POP POP PUSH1 0x40 MLOAD DUP1 SWAP2 SUB SWAP1 REVERT JUMPDEST SWAP4 SWAP3 POP POP POP JUMP JUMPDEST PUSH1 0x0 DUP1 DUP3 GT PUSH2 0x17F0 JUMPI PUSH1 0x40 DUP1 MLOAD PUSH3 0x461BCD PUSH1 0xE5 SHL DUP2 MSTORE PUSH1 0x20 PUSH1 0x4 DUP3 ADD MSTORE PUSH1 0x1A PUSH1 0x24 DUP3 ADD MSTORE PUSH32 0x536166654D6174683A206469766973696F6E206279207A65726F000000000000 PUSH1 0x44 DUP3 ADD MSTORE SWAP1 MLOAD SWAP1 DUP2 SWAP1 SUB PUSH1 0x64 ADD SWAP1 REVERT JUMPDEST DUP2 DUP4 DUP2 PUSH2 0x17F9 JUMPI INVALID JUMPDEST DIV SWAP4 SWAP3 POP POP POP JUMP JUMPDEST PUSH1 0x0 DUP3 DUP3 ADD DUP4 DUP2 LT ISZERO PUSH2 0x1793 JUMPI PUSH1 0x40 DUP1 MLOAD PUSH3 0x461BCD PUSH1 0xE5 SHL DUP2 MSTORE PUSH1 0x20 PUSH1 0x4 DUP3 ADD MSTORE PUSH1 0x1B PUSH1 0x24 DUP3 ADD MSTORE PUSH32 0x536166654D6174683A206164646974696F6E206F766572666C6F770000000000 PUSH1 0x44 DUP3 ADD MSTORE SWAP1 MLOAD SWAP1 DUP2 SWAP1 SUB PUSH1 0x64 ADD SWAP1 REVERT JUMPDEST PUSH1 0x0 DUP3 DUP3 GT ISZERO PUSH2 0x18B2 JUMPI PUSH1 0x40 DUP1 MLOAD PUSH3 0x461BCD PUSH1 0xE5 SHL DUP2 MSTORE PUSH1 0x20 PUSH1 0x4 DUP3 ADD MSTORE PUSH1 0x1E PUSH1 0x24 DUP3 ADD MSTORE PUSH32 0x536166654D6174683A207375627472616374696F6E206F766572666C6F770000 PUSH1 0x44 DUP3 ADD MSTORE SWAP1 MLOAD SWAP1 DUP2 SWAP1 SUB PUSH1 0x64 ADD SWAP1 REVERT JUMPDEST POP SWAP1 SUB SWAP1 JUMP JUMPDEST CALLER SWAP1 JUMP JUMPDEST PUSH1 0x1 SLOAD PUSH1 0x40 DUP1 MLOAD PUSH4 0x70A08231 PUSH1 0xE0 SHL DUP2 MSTORE ADDRESS PUSH1 0x4 DUP3 ADD MSTORE SWAP1 MLOAD PUSH1 0x0 SWAP3 PUSH1 0x1 PUSH1 0x1 PUSH1 0xA0 SHL SUB AND SWAP2 PUSH4 0x70A08231 SWAP2 PUSH1 0x24 DUP1 DUP4 ADD SWAP3 PUSH1 0x20 SWAP3 SWAP2 SWAP1 DUP3 SWAP1 SUB ADD DUP2 DUP7 DUP1 EXTCODESIZE ISZERO DUP1 ISZERO PUSH2 0x1907 JUMPI PUSH1 0x0 DUP1 REVERT JUMPDEST POP GAS STATICCALL ISZERO DUP1 ISZERO PUSH2 0x191B JUMPI RETURNDATASIZE PUSH1 0x0 DUP1 RETURNDATACOPY RETURNDATASIZE PUSH1 0x0 REVERT JUMPDEST POP POP POP POP PUSH1 0x40 MLOAD RETURNDATASIZE PUSH1 0x20 DUP2 LT ISZERO PUSH2 0x1931 JUMPI PUSH1 0x0 DUP1 REVERT JUMPDEST POP MLOAD SWAP1 POP DUP1 DUP3 GT ISZERO PUSH2 0x19C5 JUMPI PUSH1 0x1 SLOAD PUSH1 0x40 DUP1 MLOAD PUSH4 0xA9059CBB PUSH1 0xE0 SHL DUP2 MSTORE PUSH1 0x1 PUSH1 0x1 PUSH1 0xA0 SHL SUB DUP7 DUP2 AND PUSH1 0x4 DUP4 ADD MSTORE PUSH1 0x24 DUP3 ADD DUP6 SWAP1 MSTORE SWAP2 MLOAD SWAP2 SWAP1 SWAP3 AND SWAP2 PUSH4 0xA9059CBB SWAP2 PUSH1 0x44 DUP1 DUP4 ADD SWAP3 PUSH1 0x20 SWAP3 SWAP2 SWAP1 DUP3 SWAP1 SUB ADD DUP2 PUSH1 0x0 DUP8 DUP1 EXTCODESIZE ISZERO DUP1 ISZERO PUSH2 0x1993 JUMPI PUSH1 0x0 DUP1 REVERT JUMPDEST POP GAS CALL ISZERO DUP1 ISZERO PUSH2 0x19A7 JUMPI RETURNDATASIZE PUSH1 0x0 DUP1 RETURNDATACOPY RETURNDATASIZE PUSH1 0x0 REVERT JUMPDEST POP POP POP POP PUSH1 0x40 MLOAD RETURNDATASIZE PUSH1 0x20 DUP2 LT ISZERO PUSH2 0x19BD JUMPI PUSH1 0x0 DUP1 REVERT JUMPDEST POP PUSH2 0x1A48 SWAP1 POP JUMP JUMPDEST PUSH1 0x1 SLOAD PUSH1 0x40 DUP1 MLOAD PUSH4 0xA9059CBB PUSH1 0xE0 SHL DUP2 MSTORE PUSH1 0x1 PUSH1 0x1 PUSH1 0xA0 SHL SUB DUP7 DUP2 AND PUSH1 0x4 DUP4 ADD MSTORE PUSH1 0x24 DUP3 ADD DUP7 SWAP1 MSTORE SWAP2 MLOAD SWAP2 SWAP1 SWAP3 AND SWAP2 PUSH4 0xA9059CBB SWAP2 PUSH1 0x44 DUP1 DUP4 ADD SWAP3 PUSH1 0x20 SWAP3 SWAP2 SWAP1 DUP3 SWAP1 SUB ADD DUP2 PUSH1 0x0 DUP8 DUP1 EXTCODESIZE ISZERO DUP1 ISZERO PUSH2 0x1A1B JUMPI PUSH1 0x0 DUP1 REVERT JUMPDEST POP GAS CALL ISZERO DUP1 ISZERO PUSH2 0x1A2F JUMPI RETURNDATASIZE PUSH1 0x0 DUP1 RETURNDATACOPY RETURNDATASIZE PUSH1 0x0 REVERT JUMPDEST POP POP POP POP PUSH1 0x40 MLOAD RETURNDATASIZE PUSH1 0x20 DUP2 LT ISZERO PUSH2 0x1A45 JUMPI PUSH1 0x0 DUP1 REVERT JUMPDEST POP POP JUMPDEST POP POP POP JUMP JUMPDEST PUSH1 0x40 DUP1 MLOAD PUSH1 0x1 PUSH1 0x1 PUSH1 0xA0 SHL SUB DUP5 AND PUSH1 0x24 DUP3 ADD MSTORE PUSH1 0x44 DUP1 DUP3 ADD DUP5 SWAP1 MSTORE DUP3 MLOAD DUP1 DUP4 SUB SWAP1 SWAP2 ADD DUP2 MSTORE PUSH1 0x64 SWAP1 SWAP2 ADD SWAP1 SWAP2 MSTORE PUSH1 0x20 DUP2 ADD DUP1 MLOAD PUSH1 0x1 PUSH1 0x1 PUSH1 0xE0 SHL SUB AND PUSH4 0xA9059CBB PUSH1 0xE0 SHL OR SWAP1 MSTORE PUSH2 0x1A48 SWAP1 DUP5 SWAP1 PUSH2 0x1C08 JUMP JUMPDEST DUP1 ISZERO DUP1 PUSH2 0x1B25 JUMPI POP PUSH1 0x40 DUP1 MLOAD PUSH4 0x6EB1769F PUSH1 0xE1 SHL DUP2 MSTORE ADDRESS PUSH1 0x4 DUP3 ADD MSTORE PUSH1 0x1 PUSH1 0x1 PUSH1 0xA0 SHL SUB DUP5 DUP2 AND PUSH1 0x24 DUP4 ADD MSTORE SWAP2 MLOAD SWAP2 DUP6 AND SWAP2 PUSH4 0xDD62ED3E SWAP2 PUSH1 0x44 DUP1 DUP3 ADD SWAP3 PUSH1 0x20 SWAP3 SWAP1 SWAP2 SWAP1 DUP3 SWAP1 SUB ADD DUP2 DUP7 DUP1 EXTCODESIZE ISZERO DUP1 ISZERO PUSH2 0x1AF7 JUMPI PUSH1 0x0 DUP1 REVERT JUMPDEST POP GAS STATICCALL ISZERO DUP1 ISZERO PUSH2 0x1B0B JUMPI RETURNDATASIZE PUSH1 0x0 DUP1 RETURNDATACOPY RETURNDATASIZE PUSH1 0x0 REVERT JUMPDEST POP POP POP POP PUSH1 0x40 MLOAD RETURNDATASIZE PUSH1 0x20 DUP2 LT ISZERO PUSH2 0x1B21 JUMPI PUSH1 0x0 DUP1 REVERT JUMPDEST POP MLOAD ISZERO JUMPDEST PUSH2 0x1B60 JUMPI PUSH1 0x40 MLOAD PUSH3 0x461BCD PUSH1 0xE5 SHL DUP2 MSTORE PUSH1 0x4 ADD DUP1 DUP1 PUSH1 0x20 ADD DUP3 DUP2 SUB DUP3 MSTORE PUSH1 0x36 DUP2 MSTORE PUSH1 0x20 ADD DUP1 PUSH2 0x1F8E PUSH1 0x36 SWAP2 CODECOPY PUSH1 0x40 ADD SWAP2 POP POP PUSH1 0x40 MLOAD DUP1 SWAP2 SUB SWAP1 REVERT JUMPDEST PUSH1 0x40 DUP1 MLOAD PUSH1 0x1 PUSH1 0x1 PUSH1 0xA0 SHL SUB DUP5 AND PUSH1 0x24 DUP3 ADD MSTORE PUSH1 0x44 DUP1 DUP3 ADD DUP5 SWAP1 MSTORE DUP3 MLOAD DUP1 DUP4 SUB SWAP1 SWAP2 ADD DUP2 MSTORE PUSH1 0x64 SWAP1 SWAP2 ADD SWAP1 SWAP2 MSTORE PUSH1 0x20 DUP2 ADD DUP1 MLOAD PUSH1 0x1 PUSH1 0x1 PUSH1 0xE0 SHL SUB AND PUSH4 0x95EA7B3 PUSH1 0xE0 SHL OR SWAP1 MSTORE PUSH2 0x1A48 SWAP1 DUP5 SWAP1 PUSH2 0x1C08 JUMP JUMPDEST PUSH1 0x40 DUP1 MLOAD PUSH1 0x1 PUSH1 0x1 PUSH1 0xA0 SHL SUB DUP1 DUP7 AND PUSH1 0x24 DUP4 ADD MSTORE DUP5 AND PUSH1 0x44 DUP3 ADD MSTORE PUSH1 0x64 DUP1 DUP3 ADD DUP5 SWAP1 MSTORE DUP3 MLOAD DUP1 DUP4 SUB SWAP1 SWAP2 ADD DUP2 MSTORE PUSH1 0x84 SWAP1 SWAP2 ADD SWAP1 SWAP2 MSTORE PUSH1 0x20 DUP2 ADD DUP1 MLOAD PUSH1 0x1 PUSH1 0x1 PUSH1 0xE0 SHL SUB AND PUSH4 0x23B872DD PUSH1 0xE0 SHL OR SWAP1 MSTORE PUSH2 0x114B SWAP1 DUP6 SWAP1 JUMPDEST PUSH1 0x60 PUSH2 0x1C5D DUP3 PUSH1 0x40 MLOAD DUP1 PUSH1 0x40 ADD PUSH1 0x40 MSTORE DUP1 PUSH1 0x20 DUP2 MSTORE PUSH1 0x20 ADD PUSH32 0x5361666545524332303A206C6F772D6C6576656C2063616C6C206661696C6564 DUP2 MSTORE POP DUP6 PUSH1 0x1 PUSH1 0x1 PUSH1 0xA0 SHL SUB AND PUSH2 0x1CB9 SWAP1 SWAP3 SWAP2 SWAP1 PUSH4 0xFFFFFFFF AND JUMP JUMPDEST DUP1 MLOAD SWAP1 SWAP2 POP ISZERO PUSH2 0x1A48 JUMPI DUP1 DUP1 PUSH1 0x20 ADD SWAP1 MLOAD PUSH1 0x20 DUP2 LT ISZERO PUSH2 0x1C7C JUMPI PUSH1 0x0 DUP1 REVERT JUMPDEST POP MLOAD PUSH2 0x1A48 JUMPI PUSH1 0x40 MLOAD PUSH3 0x461BCD PUSH1 0xE5 SHL DUP2 MSTORE PUSH1 0x4 ADD DUP1 DUP1 PUSH1 0x20 ADD DUP3 DUP2 SUB DUP3 MSTORE PUSH1 0x2A DUP2 MSTORE PUSH1 0x20 ADD DUP1 PUSH2 0x1F64 PUSH1 0x2A SWAP2 CODECOPY PUSH1 0x40 ADD SWAP2 POP POP PUSH1 0x40 MLOAD DUP1 SWAP2 SUB SWAP1 REVERT JUMPDEST PUSH1 0x60 PUSH2 0x1CC8 DUP5 DUP5 PUSH1 0x0 DUP6 PUSH2 0x1CD0 JUMP JUMPDEST SWAP5 SWAP4 POP POP POP POP JUMP JUMPDEST PUSH1 0x60 DUP3 SELFBALANCE LT ISZERO PUSH2 0x1D11 JUMPI PUSH1 0x40 MLOAD PUSH3 0x461BCD PUSH1 0xE5 SHL DUP2 MSTORE PUSH1 0x4 ADD DUP1 DUP1 PUSH1 0x20 ADD DUP3 DUP2 SUB DUP3 MSTORE PUSH1 0x26 DUP2 MSTORE PUSH1 0x20 ADD DUP1 PUSH2 0x1EFD PUSH1 0x26 SWAP2 CODECOPY PUSH1 0x40 ADD SWAP2 POP POP PUSH1 0x40 MLOAD DUP1 SWAP2 SUB SWAP1 REVERT JUMPDEST PUSH2 0x1D1A DUP6 PUSH2 0x1E2C JUMP JUMPDEST PUSH2 0x1D6B JUMPI PUSH1 0x40 DUP1 MLOAD PUSH3 0x461BCD PUSH1 0xE5 SHL DUP2 MSTORE PUSH1 0x20 PUSH1 0x4 DUP3 ADD MSTORE PUSH1 0x1D PUSH1 0x24 DUP3 ADD MSTORE PUSH32 0x416464726573733A2063616C6C20746F206E6F6E2D636F6E7472616374000000 PUSH1 0x44 DUP3 ADD MSTORE SWAP1 MLOAD SWAP1 DUP2 SWAP1 SUB PUSH1 0x64 ADD SWAP1 REVERT JUMPDEST PUSH1 0x0 PUSH1 0x60 DUP7 PUSH1 0x1 PUSH1 0x1 PUSH1 0xA0 SHL SUB AND DUP6 DUP8 PUSH1 0x40 MLOAD DUP1 DUP3 DUP1 MLOAD SWAP1 PUSH1 0x20 ADD SWAP1 DUP1 DUP4 DUP4 JUMPDEST PUSH1 0x20 DUP4 LT PUSH2 0x1DAA JUMPI DUP1 MLOAD DUP3 MSTORE PUSH1 0x1F NOT SWAP1 SWAP3 ADD SWAP2 PUSH1 0x20 SWAP2 DUP3 ADD SWAP2 ADD PUSH2 0x1D8B JUMP JUMPDEST PUSH1 0x1 DUP4 PUSH1 0x20 SUB PUSH2 0x100 EXP SUB DUP1 NOT DUP3 MLOAD AND DUP2 DUP5 MLOAD AND DUP1 DUP3 OR DUP6 MSTORE POP POP POP POP POP POP SWAP1 POP ADD SWAP2 POP POP PUSH1 0x0 PUSH1 0x40 MLOAD DUP1 DUP4 SUB DUP2 DUP6 DUP8 GAS CALL SWAP3 POP POP POP RETURNDATASIZE DUP1 PUSH1 0x0 DUP2 EQ PUSH2 0x1E0C JUMPI PUSH1 0x40 MLOAD SWAP2 POP PUSH1 0x1F NOT PUSH1 0x3F RETURNDATASIZE ADD AND DUP3 ADD PUSH1 0x40 MSTORE RETURNDATASIZE DUP3 MSTORE RETURNDATASIZE PUSH1 0x0 PUSH1 0x20 DUP5 ADD RETURNDATACOPY PUSH2 0x1E11 JUMP JUMPDEST PUSH1 0x60 SWAP2 POP JUMPDEST POP SWAP2 POP SWAP2 POP PUSH2 0x1E21 DUP3 DUP3 DUP7 PUSH2 0x1E32 JUMP JUMPDEST SWAP8 SWAP7 POP POP POP POP POP POP POP JUMP JUMPDEST EXTCODESIZE ISZERO ISZERO SWAP1 JUMP JUMPDEST PUSH1 0x60 DUP4 ISZERO PUSH2 0x1E41 JUMPI POP DUP2 PUSH2 0x1793 JUMP JUMPDEST DUP3 MLOAD ISZERO PUSH2 0x1E51 JUMPI DUP3 MLOAD DUP1 DUP5 PUSH1 0x20 ADD REVERT JUMPDEST DUP2 PUSH1 0x40 MLOAD PUSH3 0x461BCD PUSH1 0xE5 SHL DUP2 MSTORE PUSH1 0x4 ADD DUP1 DUP1 PUSH1 0x20 ADD DUP3 DUP2 SUB DUP3 MSTORE DUP4 DUP2 DUP2 MLOAD DUP2 MSTORE PUSH1 0x20 ADD SWAP2 POP DUP1 MLOAD SWAP1 PUSH1 0x20 ADD SWAP1 DUP1 DUP4 DUP4 PUSH1 0x0 JUMPDEST DUP4 DUP2 LT ISZERO PUSH2 0x1E9B JUMPI DUP2 DUP2 ADD MLOAD DUP4 DUP3 ADD MSTORE PUSH1 0x20 ADD PUSH2 0x1E83 JUMP JUMPDEST POP POP POP POP SWAP1 POP SWAP1 DUP2 ADD SWAP1 PUSH1 0x1F AND DUP1 ISZERO PUSH2 0x1EC8 JUMPI DUP1 DUP3 SUB DUP1 MLOAD PUSH1 0x1 DUP4 PUSH1 0x20 SUB PUSH2 0x100 EXP SUB NOT AND DUP2 MSTORE PUSH1 0x20 ADD SWAP2 POP JUMPDEST POP SWAP3 POP POP POP PUSH1 0x40 MLOAD DUP1 SWAP2 SUB SWAP1 REVERT INVALID 0x4F PUSH24 0x6E61626C653A206E6577206F776E65722069732074686520 PUSH27 0x65726F2061646472657373416464726573733A20696E7375666669 PUSH4 0x69656E74 KECCAK256 PUSH3 0x616C61 PUSH15 0x636520666F722063616C6C53616665 0x4D PUSH2 0x7468 GASPRICE KECCAK256 PUSH14 0x756C7469706C69636174696F6E20 PUSH16 0x766572666C6F774F776E61626C653A20 PUSH4 0x616C6C65 PUSH19 0x206973206E6F7420746865206F776E65725361 PUSH7 0x6545524332303A KECCAK256 GASLIMIT MSTORE NUMBER ORIGIN ADDRESS KECCAK256 PUSH16 0x7065726174696F6E20646964206E6F74 KECCAK256 PUSH20 0x7563636565645361666545524332303A20617070 PUSH19 0x6F76652066726F6D206E6F6E2D7A65726F2074 PUSH16 0x206E6F6E2D7A65726F20616C6C6F7761 PUSH15 0x6365A26469706673582212204EC485 LOG2 0xF7 RETURNDATASIZE 0x5E 0xDC SUB EQ SWAP14 EXTCODECOPY CALLER 0xD8 SWAP12 0xD2 SLOAD CREATE 0x25 0x2A 0xB3 0xE 0xF 0xB8 0xEE 0x29 DUP16 SLT LOG0 0xD0 0xBE DUP2 PUSH5 0x736F6C6343 STOP MOD 0xC STOP CALLER "
        },
        "methodIdentifiers": {
          "BONUS_MULTIPLIER()": "8aa28550",
          "add(uint256,address,bool)": "1eaaa045",
          "bonusEndBlock()": "1aed6553",
          "deposit(uint256,uint256)": "e2bbb158",
          "dev(address)": "8d88a90e",
          "devaddr()": "d49e77cd",
          "emergencyWithdraw(uint256)": "5312ea8e",
          "getMultiplier(uint256,uint256)": "8dbb1e3a",
          "lpCheck(address)": "67968dac",
          "massUpdatePools()": "630b5ba1",
          "migrate(uint256)": "454b0608",
          "migrator()": "7cd07e47",
          "owner()": "8da5cb5b",
          "pendingPops(uint256,address)": "008201d5",
          "poolInfo(uint256)": "1526fe27",
          "poolLength()": "081e3eda",
          "pops()": "29a91b09",
          "popsPerBlock()": "6dca5a59",
          "renounceOwnership()": "715018a6",
          "set(uint256,uint256,bool)": "64482f79",
          "setMigrator(address)": "23cf3118",
          "startBlock()": "48cd4cb1",
          "totalAllocPoint()": "17caf6f1",
          "transferOwnership(address)": "f2fde38b",
          "updatePool(uint256)": "51eb05a6",
          "userInfo(uint256,address)": "93f1a40b",
          "withdraw(uint256,uint256)": "441a3e70"
        }
      }
    }
  }
}