{
  "_format": "hh-sol-artifact-1",
  "contractName": "MasterChef",
  "sourceName": "contracts/MasterChef.sol",
  "abi": [
    {
      "inputs": [
        {
          "internalType": "contract POPSToken",
          "name": "_pops",
          "type": "address"
        },
        {
          "internalType": "address",
          "name": "_devaddr",
          "type": "address"
        },
        {
          "internalType": "uint256",
          "name": "_popsPerBlock",
          "type": "uint256"
        },
        {
          "internalType": "uint256",
          "name": "_startBlock",
          "type": "uint256"
        },
        {
          "internalType": "uint256",
          "name": "_bonusEndBlock",
          "type": "uint256"
        }
      ],
      "stateMutability": "nonpayable",
      "type": "constructor"
    },
    {
      "anonymous": false,
      "inputs": [
        {
          "indexed": false,
          "internalType": "uint256",
          "name": "_pid",
          "type": "uint256"
        },
        {
          "indexed": false,
          "internalType": "uint256",
          "name": "_allocPoint",
          "type": "uint256"
        },
        {
          "indexed": true,
          "internalType": "address",
          "name": "_lptoken",
          "type": "address"
        }
      ],
      "name": "AddPool",
      "type": "event"
    },
    {
      "anonymous": false,
      "inputs": [
        {
          "indexed": true,
          "internalType": "address",
          "name": "user",
          "type": "address"
        },
        {
          "indexed": true,
          "internalType": "uint256",
          "name": "pid",
          "type": "uint256"
        },
        {
          "indexed": false,
          "internalType": "uint256",
          "name": "amount",
          "type": "uint256"
        }
      ],
      "name": "Deposit",
      "type": "event"
    },
    {
      "anonymous": false,
      "inputs": [
        {
          "indexed": true,
          "internalType": "address",
          "name": "user",
          "type": "address"
        },
        {
          "indexed": true,
          "internalType": "uint256",
          "name": "pid",
          "type": "uint256"
        },
        {
          "indexed": false,
          "internalType": "uint256",
          "name": "amount",
          "type": "uint256"
        }
      ],
      "name": "EmergencyWithdraw",
      "type": "event"
    },
    {
      "anonymous": false,
      "inputs": [
        {
          "indexed": true,
          "internalType": "address",
          "name": "previousOwner",
          "type": "address"
        },
        {
          "indexed": true,
          "internalType": "address",
          "name": "newOwner",
          "type": "address"
        }
      ],
      "name": "OwnershipTransferred",
      "type": "event"
    },
    {
      "anonymous": false,
      "inputs": [
        {
          "indexed": false,
          "internalType": "uint256",
          "name": "_pid",
          "type": "uint256"
        },
        {
          "indexed": false,
          "internalType": "uint256",
          "name": "allocPoint",
          "type": "uint256"
        },
        {
          "indexed": false,
          "internalType": "bool",
          "name": "_withUpdate",
          "type": "bool"
        }
      ],
      "name": "UpdateAlloc",
      "type": "event"
    },
    {
      "anonymous": false,
      "inputs": [
        {
          "indexed": true,
          "internalType": "address",
          "name": "_devaddr",
          "type": "address"
        }
      ],
      "name": "UpdateDevAddress",
      "type": "event"
    },
    {
      "anonymous": false,
      "inputs": [
        {
          "indexed": true,
          "internalType": "address",
          "name": "user",
          "type": "address"
        },
        {
          "indexed": true,
          "internalType": "uint256",
          "name": "pid",
          "type": "uint256"
        },
        {
          "indexed": false,
          "internalType": "uint256",
          "name": "amount",
          "type": "uint256"
        }
      ],
      "name": "Withdraw",
      "type": "event"
    },
    {
      "inputs": [],
      "name": "BONUS_MULTIPLIER",
      "outputs": [
        {
          "internalType": "uint256",
          "name": "",
          "type": "uint256"
        }
      ],
      "stateMutability": "view",
      "type": "function"
    },
    {
      "inputs": [
        {
          "internalType": "uint256",
          "name": "_allocPoint",
          "type": "uint256"
        },
        {
          "internalType": "contract IERC20",
          "name": "_lpToken",
          "type": "address"
        },
        {
          "internalType": "bool",
          "name": "_withUpdate",
          "type": "bool"
        }
      ],
      "name": "add",
      "outputs": [],
      "stateMutability": "nonpayable",
      "type": "function"
    },
    {
      "inputs": [],
      "name": "bonusEndBlock",
      "outputs": [
        {
          "internalType": "uint256",
          "name": "",
          "type": "uint256"
        }
      ],
      "stateMutability": "view",
      "type": "function"
    },
    {
      "inputs": [
        {
          "internalType": "uint256",
          "name": "_pid",
          "type": "uint256"
        },
        {
          "internalType": "uint256",
          "name": "_amount",
          "type": "uint256"
        }
      ],
      "name": "deposit",
      "outputs": [],
      "stateMutability": "nonpayable",
      "type": "function"
    },
    {
      "inputs": [
        {
          "internalType": "address",
          "name": "_devaddr",
          "type": "address"
        }
      ],
      "name": "dev",
      "outputs": [],
      "stateMutability": "nonpayable",
      "type": "function"
    },
    {
      "inputs": [],
      "name": "devaddr",
      "outputs": [
        {
          "internalType": "address",
          "name": "",
          "type": "address"
        }
      ],
      "stateMutability": "view",
      "type": "function"
    },
    {
      "inputs": [
        {
          "internalType": "uint256",
          "name": "_pid",
          "type": "uint256"
        }
      ],
      "name": "emergencyWithdraw",
      "outputs": [],
      "stateMutability": "nonpayable",
      "type": "function"
    },
    {
      "inputs": [
        {
          "internalType": "address",
          "name": "",
          "type": "address"
        }
      ],
      "name": "existingPools",
      "outputs": [
        {
          "internalType": "bool",
          "name": "",
          "type": "bool"
        }
      ],
      "stateMutability": "view",
      "type": "function"
    },
    {
      "inputs": [
        {
          "internalType": "uint256",
          "name": "_from",
          "type": "uint256"
        },
        {
          "internalType": "uint256",
          "name": "_to",
          "type": "uint256"
        }
      ],
      "name": "getMultiplier",
      "outputs": [
        {
          "internalType": "uint256",
          "name": "",
          "type": "uint256"
        }
      ],
      "stateMutability": "view",
      "type": "function"
    },
    {
      "inputs": [],
      "name": "massUpdatePools",
      "outputs": [],
      "stateMutability": "nonpayable",
      "type": "function"
    },
    {
      "inputs": [],
      "name": "owner",
      "outputs": [
        {
          "internalType": "address",
          "name": "",
          "type": "address"
        }
      ],
      "stateMutability": "view",
      "type": "function"
    },
    {
      "inputs": [
        {
          "internalType": "uint256",
          "name": "_pid",
          "type": "uint256"
        },
        {
          "internalType": "address",
          "name": "_user",
          "type": "address"
        }
      ],
      "name": "pendingPops",
      "outputs": [
        {
          "internalType": "uint256",
          "name": "",
          "type": "uint256"
        }
      ],
      "stateMutability": "view",
      "type": "function"
    },
    {
      "inputs": [
        {
          "internalType": "uint256",
          "name": "",
          "type": "uint256"
        }
      ],
      "name": "poolInfo",
      "outputs": [
        {
          "internalType": "contract IERC20",
          "name": "lpToken",
          "type": "address"
        },
        {
          "internalType": "uint256",
          "name": "allocPoint",
          "type": "uint256"
        },
        {
          "internalType": "uint256",
          "name": "lastRewardBlock",
          "type": "uint256"
        },
        {
          "internalType": "uint256",
          "name": "accPopsPerShare",
          "type": "uint256"
        }
      ],
      "stateMutability": "view",
      "type": "function"
    },
    {
      "inputs": [],
      "name": "poolLength",
      "outputs": [
        {
          "internalType": "uint256",
          "name": "",
          "type": "uint256"
        }
      ],
      "stateMutability": "view",
      "type": "function"
    },
    {
      "inputs": [],
      "name": "pops",
      "outputs": [
        {
          "internalType": "contract POPSToken",
          "name": "",
          "type": "address"
        }
      ],
      "stateMutability": "view",
      "type": "function"
    },
    {
      "inputs": [],
      "name": "popsPerBlock",
      "outputs": [
        {
          "internalType": "uint256",
          "name": "",
          "type": "uint256"
        }
      ],
      "stateMutability": "view",
      "type": "function"
    },
    {
      "inputs": [],
      "name": "renounceOwnership",
      "outputs": [],
      "stateMutability": "nonpayable",
      "type": "function"
    },
    {
      "inputs": [
        {
          "internalType": "uint256",
          "name": "_pid",
          "type": "uint256"
        },
        {
          "internalType": "uint256",
          "name": "_allocPoint",
          "type": "uint256"
        },
        {
          "internalType": "bool",
          "name": "_withUpdate",
          "type": "bool"
        }
      ],
      "name": "set",
      "outputs": [],
      "stateMutability": "nonpayable",
      "type": "function"
    },
    {
      "inputs": [],
      "name": "startBlock",
      "outputs": [
        {
          "internalType": "uint256",
          "name": "",
          "type": "uint256"
        }
      ],
      "stateMutability": "view",
      "type": "function"
    },
    {
      "inputs": [],
      "name": "totalAllocPoint",
      "outputs": [
        {
          "internalType": "uint256",
          "name": "",
          "type": "uint256"
        }
      ],
      "stateMutability": "view",
      "type": "function"
    },
    {
      "inputs": [
        {
          "internalType": "address",
          "name": "newOwner",
          "type": "address"
        }
      ],
      "name": "transferOwnership",
      "outputs": [],
      "stateMutability": "nonpayable",
      "type": "function"
    },
    {
      "inputs": [
        {
          "internalType": "uint256",
          "name": "_pid",
          "type": "uint256"
        }
      ],
      "name": "updatePool",
      "outputs": [],
      "stateMutability": "nonpayable",
      "type": "function"
    },
    {
      "inputs": [
        {
          "internalType": "uint256",
          "name": "",
          "type": "uint256"
        },
        {
          "internalType": "address",
          "name": "",
          "type": "address"
        }
      ],
      "name": "userInfo",
      "outputs": [
        {
          "internalType": "uint256",
          "name": "amount",
          "type": "uint256"
        },
        {
          "internalType": "uint256",
          "name": "rewardDebt",
          "type": "uint256"
        }
      ],
      "stateMutability": "view",
      "type": "function"
    },
    {
      "inputs": [
        {
          "internalType": "uint256",
          "name": "_pid",
          "type": "uint256"
        },
        {
          "internalType": "uint256",
          "name": "_amount",
          "type": "uint256"
        }
      ],
      "name": "withdraw",
      "outputs": [],
      "stateMutability": "nonpayable",
      "type": "function"
    }
  ],
  "bytecode": "0x6080604052600060095534801561001557600080fd5b50604051611c30380380611c30833981810160405260a081101561003857600080fd5b5080516020820151604083015160608401516080909401519293919290919060006100616100ed565b600080546001600160a01b0319166001600160a01b0383169081178255604051929350917f8be0079c531659141344cd1fd0a4f28419497f9722a3daafe3b4186f6b6457e0908290a35060018055600280546001600160a01b039687166001600160a01b0319918216179091556003805495909616941693909317909355600555600455600a556100f1565b3390565b611b30806101006000396000f3fe608060405234801561001057600080fd5b50600436106101575760003560e01c806364482f79116100c35780638dbb1e3a1161007c5780638dbb1e3a1461033757806393f1a40b1461035a578063d49e77cd1461039f578063e2bbb158146103a7578063f2fde38b146103ca578063f9ce8217146103f057610157565b806364482f79146102c65780636dca5a59146102f1578063715018a6146102f95780638aa28550146103015780638d88a90e146103095780638da5cb5b1461032f57610157565b806329a91b091161011557806329a91b0914610235578063441a3e701461025957806348cd4cb11461027c57806351eb05a6146102845780635312ea8e146102a1578063630b5ba1146102be57610157565b80628201d51461015c578063081e3eda1461019a5780631526fe27146101a257806317caf6f1146101ef5780631aed6553146101f75780631eaaa045146101ff575b600080fd5b6101886004803603604081101561017257600080fd5b50803590602001356001600160a01b031661042a565b60408051918252519081900360200190f35b6101886105e7565b6101bf600480360360208110156101b857600080fd5b50356105ed565b604080516001600160a01b0390951685526020850193909352838301919091526060830152519081900360800190f35b61018861062e565b610188610634565b6102336004803603606081101561021557600080fd5b508035906001600160a01b036020820135169060400135151561063a565b005b61023d610893565b604080516001600160a01b039092168252519081900360200190f35b6102336004803603604081101561026f57600080fd5b50803590602001356108a2565b610188610a2e565b6102336004803603602081101561029a57600080fd5b5035610a34565b610233600480360360208110156102b757600080fd5b5035610c9a565b610233610dd6565b610233600480360360608110156102dc57600080fd5b50803590602081013590604001351515610df9565b610188610f5b565b610233610f61565b61018861100d565b6102336004803603602081101561031f57600080fd5b50356001600160a01b0316611012565b61023d6110a7565b6101886004803603604081101561034d57600080fd5b50803590602001356110b6565b6103866004803603604081101561037057600080fd5b50803590602001356001600160a01b031661111c565b6040805192835260208301919091528051918290030190f35b61023d611140565b610233600480360360408110156103bd57600080fd5b508035906020013561114f565b610233600480360360208110156103e057600080fd5b50356001600160a01b0316611299565b6104166004803603602081101561040657600080fd5b50356001600160a01b031661139b565b604080519115158252519081900360200190f35b6006546000908310610472576040805162461bcd60e51b815260206004820152600c60248201526b1a5b9d985b1a590817dc1a5960a21b604482015290519081900360640190fd5b60006006848154811061048157fe5b600091825260208083208784526007825260408085206001600160a01b03898116875290845281862060049586029093016003810154815484516370a0823160e01b81523098810198909852935191985093969395939492909116926370a08231926024808301939192829003018186803b1580156104ff57600080fd5b505afa158015610513573d6000803e3d6000fd5b505050506040513d602081101561052957600080fd5b505160028501549091504311801561054057508015155b156105ac5760006105558560020154436110b6565b90506000610588600954610582886001015461057c600554876113b090919063ffffffff16565b906113b0565b90611410565b90506105a76105a0846105828464e8d4a510006113b0565b8590611477565b935050505b6105da83600101546105d464e8d4a510006105828688600001546113b090919063ffffffff16565b906114d1565b9450505050505b92915050565b60065490565b600681815481106105fa57fe5b600091825260209091206004909102018054600182015460028301546003909301546001600160a01b039092169350919084565b60095481565b60045481565b61064261152e565b6001600160a01b03166106536110a7565b6001600160a01b03161461069c576040805162461bcd60e51b81526020600482018190526024820152600080516020611ab1833981519152604482015290519081900360640190fd5b6001600160a01b03821660009081526008602052604090205460ff1615156001141561070f576040805162461bcd60e51b815260206004820152601c60248201527f4d6173746572436865663a204c5020616c726561647920616464656400000000604482015290519081900360640190fd5b801561071d5761071d610dd6565b6000600a54431161073057600a54610732565b435b6009549091506107429085611477565b600955604080516080810182526001600160a01b038581168083526020808401898152848601878152600060608701818152600680546001808201835582855299517ff652222313e28459528d920b65115c16c04f3efc82aaedc97be59f3f377c0d3f600490920291820180546001600160a01b03191691909a161790985593517ff652222313e28459528d920b65115c16c04f3efc82aaedc97be59f3f377c0d4088015591517ff652222313e28459528d920b65115c16c04f3efc82aaedc97be59f3f377c0d4187015590517ff652222313e28459528d920b65115c16c04f3efc82aaedc97be59f3f377c0d42909501949094558284526008825292859020805460ff191690941790935590548351600019919091018152918201879052825190927f44f06e62408d549dc25356ed3ab6326c665b66ce934c0e8d13bd1957a6031d4c928290030190a250505050565b6002546001600160a01b031681565b60065482106108e7576040805162461bcd60e51b815260206004820152600c60248201526b1a5b9d985b1a590817dc1a5960a21b604482015290519081900360640190fd5b6000600683815481106108f657fe5b600091825260208083208684526007825260408085203386529092529220805460049092029092019250831115610969576040805162461bcd60e51b81526020600482015260126024820152711dda5d1a191c985dce881b9bdd0819dbdbd960721b604482015290519081900360640190fd5b61097284610a34565b60006109a082600101546105d464e8d4a51000610582876003015487600001546113b090919063ffffffff16565b90506109ac3382611532565b81546109b890856114d1565b80835560038401546109d59164e8d4a510009161058291906113b0565b600183015582546109f0906001600160a01b031633866116c3565b604080518581529051869133917ff279e6a1f5e320cca91135676d9cb6e44ca8a08c0b88342bcdb1144f6511b5689181900360200190a35050505050565b600a5481565b6006548110610a79576040805162461bcd60e51b815260206004820152600c60248201526b1a5b9d985b1a590817dc1a5960a21b604482015290519081900360640190fd5b600060068281548110610a8857fe5b9060005260206000209060040201905080600201544311610aa95750610c97565b8054604080516370a0823160e01b815230600482015290516000926001600160a01b0316916370a08231916024808301926020929190829003018186803b158015610af357600080fd5b505afa158015610b07573d6000803e3d6000fd5b505050506040513d6020811015610b1d57600080fd5b5051905080610b33575043600290910155610c97565b6000610b438360020154436110b6565b90506000610b6a600954610582866001015461057c600554876113b090919063ffffffff16565b6002546003549192506001600160a01b03908116916340c10f199116610b9184600a611410565b6040518363ffffffff1660e01b815260040180836001600160a01b0316815260200182815260200192505050600060405180830381600087803b158015610bd757600080fd5b505af1158015610beb573d6000803e3d6000fd5b5050600254604080516340c10f1960e01b81523060048201526024810186905290516001600160a01b0390921693506340c10f19925060448082019260009290919082900301818387803b158015610c4257600080fd5b505af1158015610c56573d6000803e3d6000fd5b50505050610c84610c798461058264e8d4a51000856113b090919063ffffffff16565b600386015490611477565b6003850155505043600290920191909155505b50565b60026001541415610cf2576040805162461bcd60e51b815260206004820152601f60248201527f5265656e7472616e637947756172643a207265656e7472616e742063616c6c00604482015290519081900360640190fd5b60026001556006548110610d3c576040805162461bcd60e51b815260206004820152600c60248201526b1a5b9d985b1a590817dc1a5960a21b604482015290519081900360640190fd5b600060068281548110610d4b57fe5b600091825260208083208584526007825260408085203380875290845281862080548782556001820197909755825187815292516004909602909301965091949387937fbb757047c2b5f3974fe26b7c10f732e7bce710b0952a71082702781e62ae0595928290030190a38254610dcc906001600160a01b031633836116c3565b5050600180555050565b60065460005b81811015610df557610ded81610a34565b600101610ddc565b5050565b610e0161152e565b6001600160a01b0316610e126110a7565b6001600160a01b031614610e5b576040805162461bcd60e51b81526020600482018190526024820152600080516020611ab1833981519152604482015290519081900360640190fd5b6006548310610ea0576040805162461bcd60e51b815260206004820152600c60248201526b1a5b9d985b1a590817dc1a5960a21b604482015290519081900360640190fd5b8015610eae57610eae610dd6565b610eeb82610ee560068681548110610ec257fe5b9060005260206000209060040201600101546009546114d190919063ffffffff16565b90611477565b6009819055508160068481548110610eff57fe5b6000918252602091829020600160049092020101919091556040805185815291820184905282151582820152517f16569560b3c6b0fcc09e1015438b2a2a4309aacff1ea040a0382061a8f28a9bd9181900360600190a1505050565b60055481565b610f6961152e565b6001600160a01b0316610f7a6110a7565b6001600160a01b031614610fc3576040805162461bcd60e51b81526020600482018190526024820152600080516020611ab1833981519152604482015290519081900360640190fd5b600080546040516001600160a01b03909116907f8be0079c531659141344cd1fd0a4f28419497f9722a3daafe3b4186f6b6457e0908390a3600080546001600160a01b0319169055565b600a81565b6003546001600160a01b0316331461105d576040805162461bcd60e51b81526020600482015260096024820152686465763a207775743f60b81b604482015290519081900360640190fd5b600380546001600160a01b0319166001600160a01b0383169081179091556040517fd0f413456e11b4287ccbe3c1b860af0249d87a41ac5ebb92afbc72cc4abb68da90600090a250565b6000546001600160a01b031690565b600060045482116110d7576110d0600a61057c84866114d1565b90506105e1565b60045483106110ea576110d082846114d1565b6110d0611102600454846114d190919063ffffffff16565b610ee5600a61057c876004546114d190919063ffffffff16565b60076020908152600092835260408084209091529082529020805460019091015482565b6003546001600160a01b031681565b6006548210611194576040805162461bcd60e51b815260206004820152600c60248201526b1a5b9d985b1a590817dc1a5960a21b604482015290519081900360640190fd5b6000600683815481106111a357fe5b600091825260208083208684526007825260408085203386529092529220600490910290910191506111d484610a34565b80541561121757600061120982600101546105d464e8d4a51000610582876003015487600001546113b090919063ffffffff16565b90506112153382611532565b505b815461122e906001600160a01b0316333086611715565b805461123a9084611477565b80825560038301546112579164e8d4a510009161058291906113b0565b6001820155604080518481529051859133917f90890809c654f11d6e72a28fa60149770a0d11ec6c92319d6ceb2bb0a4ea1a159181900360200190a350505050565b6112a161152e565b6001600160a01b03166112b26110a7565b6001600160a01b0316146112fb576040805162461bcd60e51b81526020600482018190526024820152600080516020611ab1833981519152604482015290519081900360640190fd5b6001600160a01b0381166113405760405162461bcd60e51b8152600401808060200182810382526026815260200180611a446026913960400191505060405180910390fd5b600080546040516001600160a01b03808516939216917f8be0079c531659141344cd1fd0a4f28419497f9722a3daafe3b4186f6b6457e091a3600080546001600160a01b0319166001600160a01b0392909216919091179055565b60086020526000908152604090205460ff1681565b6000826113bf575060006105e1565b828202828482816113cc57fe5b04146114095760405162461bcd60e51b8152600401808060200182810382526021815260200180611a906021913960400191505060405180910390fd5b9392505050565b6000808211611466576040805162461bcd60e51b815260206004820152601a60248201527f536166654d6174683a206469766973696f6e206279207a65726f000000000000604482015290519081900360640190fd5b81838161146f57fe5b049392505050565b600082820183811015611409576040805162461bcd60e51b815260206004820152601b60248201527f536166654d6174683a206164646974696f6e206f766572666c6f770000000000604482015290519081900360640190fd5b600082821115611528576040805162461bcd60e51b815260206004820152601e60248201527f536166654d6174683a207375627472616374696f6e206f766572666c6f770000604482015290519081900360640190fd5b50900390565b3390565b600254604080516370a0823160e01b815230600482015290516000926001600160a01b0316916370a08231916024808301926020929190829003018186803b15801561157d57600080fd5b505afa158015611591573d6000803e3d6000fd5b505050506040513d60208110156115a757600080fd5b505190508082111561163b576002546040805163a9059cbb60e01b81526001600160a01b038681166004830152602482018590529151919092169163a9059cbb9160448083019260209291908290030181600087803b15801561160957600080fd5b505af115801561161d573d6000803e3d6000fd5b505050506040513d602081101561163357600080fd5b506116be9050565b6002546040805163a9059cbb60e01b81526001600160a01b038681166004830152602482018690529151919092169163a9059cbb9160448083019260209291908290030181600087803b15801561169157600080fd5b505af11580156116a5573d6000803e3d6000fd5b505050506040513d60208110156116bb57600080fd5b50505b505050565b604080516001600160a01b038416602482015260448082018490528251808303909101815260649091019091526020810180516001600160e01b031663a9059cbb60e01b1790526116be908490611775565b604080516001600160a01b0380861660248301528416604482015260648082018490528251808303909101815260849091019091526020810180516001600160e01b03166323b872dd60e01b17905261176f908590611775565b50505050565b60606117ca826040518060400160405280602081526020017f5361666545524332303a206c6f772d6c6576656c2063616c6c206661696c6564815250856001600160a01b03166118269092919063ffffffff16565b8051909150156116be578080602001905160208110156117e957600080fd5b50516116be5760405162461bcd60e51b815260040180806020018281038252602a815260200180611ad1602a913960400191505060405180910390fd5b6060611835848460008561183d565b949350505050565b60608247101561187e5760405162461bcd60e51b8152600401808060200182810382526026815260200180611a6a6026913960400191505060405180910390fd5b61188785611999565b6118d8576040805162461bcd60e51b815260206004820152601d60248201527f416464726573733a2063616c6c20746f206e6f6e2d636f6e7472616374000000604482015290519081900360640190fd5b60006060866001600160a01b031685876040518082805190602001908083835b602083106119175780518252601f1990920191602091820191016118f8565b6001836020036101000a03801982511681845116808217855250505050505090500191505060006040518083038185875af1925050503d8060008114611979576040519150601f19603f3d011682016040523d82523d6000602084013e61197e565b606091505b509150915061198e82828661199f565b979650505050505050565b3b151590565b606083156119ae575081611409565b8251156119be5782518084602001fd5b8160405162461bcd60e51b81526004018080602001828103825283818151815260200191508051906020019080838360005b83811015611a085781810151838201526020016119f0565b50505050905090810190601f168015611a355780820380516001836020036101000a031916815260200191505b509250505060405180910390fdfe4f776e61626c653a206e6577206f776e657220697320746865207a65726f2061646472657373416464726573733a20696e73756666696369656e742062616c616e636520666f722063616c6c536166654d6174683a206d756c7469706c69636174696f6e206f766572666c6f774f776e61626c653a2063616c6c6572206973206e6f7420746865206f776e65725361666545524332303a204552433230206f7065726174696f6e20646964206e6f742073756363656564a2646970667358221220155d524c830db16a06d088732e7573d64447229f7e72e517647d9f7590d6547864736f6c634300060c0033",
  "linkReferences": {},
  "deployedLinkReferences": {}
}