{
  "_format": "hh-sol-artifact-1",
  "contractName": "MasterChef",
  "sourceName": "contracts/MasterChef.sol",
  "abi": [
    {
      "inputs": [
        {
          "internalType": "contract POPSToken",
          "name": "_pops",
          "type": "address"
        },
        {
          "internalType": "address",
          "name": "_devaddr",
          "type": "address"
        },
        {
          "internalType": "uint256",
          "name": "_popsPerBlock",
          "type": "uint256"
        },
        {
          "internalType": "uint256",
          "name": "_startBlock",
          "type": "uint256"
        },
        {
          "internalType": "uint256",
          "name": "_bonusEndBlock",
          "type": "uint256"
        }
      ],
      "stateMutability": "nonpayable",
      "type": "constructor"
    },
    {
      "anonymous": false,
      "inputs": [
        {
          "indexed": true,
          "internalType": "address",
          "name": "user",
          "type": "address"
        },
        {
          "indexed": true,
          "internalType": "uint256",
          "name": "pid",
          "type": "uint256"
        },
        {
          "indexed": false,
          "internalType": "uint256",
          "name": "amount",
          "type": "uint256"
        }
      ],
      "name": "Deposit",
      "type": "event"
    },
    {
      "anonymous": false,
      "inputs": [
        {
          "indexed": true,
          "internalType": "address",
          "name": "_devaddr",
          "type": "address"
        }
      ],
      "name": "DevAddress",
      "type": "event"
    },
    {
      "anonymous": false,
      "inputs": [
        {
          "indexed": true,
          "internalType": "address",
          "name": "user",
          "type": "address"
        },
        {
          "indexed": true,
          "internalType": "uint256",
          "name": "pid",
          "type": "uint256"
        },
        {
          "indexed": false,
          "internalType": "uint256",
          "name": "amount",
          "type": "uint256"
        }
      ],
      "name": "EmergencyWithdraw",
      "type": "event"
    },
    {
      "anonymous": false,
      "inputs": [
        {
          "indexed": false,
          "internalType": "uint256",
          "name": "_allocPoint",
          "type": "uint256"
        },
        {
          "indexed": true,
          "internalType": "address",
          "name": "_lptoken",
          "type": "address"
        }
      ],
      "name": "LpAdded",
      "type": "event"
    },
    {
      "anonymous": false,
      "inputs": [
        {
          "indexed": true,
          "internalType": "address",
          "name": "_migrator",
          "type": "address"
        }
      ],
      "name": "MigratorSet",
      "type": "event"
    },
    {
      "anonymous": false,
      "inputs": [
        {
          "indexed": true,
          "internalType": "address",
          "name": "previousOwner",
          "type": "address"
        },
        {
          "indexed": true,
          "internalType": "address",
          "name": "newOwner",
          "type": "address"
        }
      ],
      "name": "OwnershipTransferred",
      "type": "event"
    },
    {
      "anonymous": false,
      "inputs": [
        {
          "indexed": false,
          "internalType": "uint256",
          "name": "_pid",
          "type": "uint256"
        },
        {
          "indexed": false,
          "internalType": "uint256",
          "name": "allocPoint",
          "type": "uint256"
        },
        {
          "indexed": false,
          "internalType": "bool",
          "name": "_withUpdate",
          "type": "bool"
        }
      ],
      "name": "UpdateAlloc",
      "type": "event"
    },
    {
      "anonymous": false,
      "inputs": [
        {
          "indexed": true,
          "internalType": "address",
          "name": "user",
          "type": "address"
        },
        {
          "indexed": true,
          "internalType": "uint256",
          "name": "pid",
          "type": "uint256"
        },
        {
          "indexed": false,
          "internalType": "uint256",
          "name": "amount",
          "type": "uint256"
        }
      ],
      "name": "Withdraw",
      "type": "event"
    },
    {
      "inputs": [],
      "name": "BONUS_MULTIPLIER",
      "outputs": [
        {
          "internalType": "uint256",
          "name": "",
          "type": "uint256"
        }
      ],
      "stateMutability": "view",
      "type": "function"
    },
    {
      "inputs": [
        {
          "internalType": "uint256",
          "name": "_allocPoint",
          "type": "uint256"
        },
        {
          "internalType": "contract IERC20",
          "name": "_lpToken",
          "type": "address"
        },
        {
          "internalType": "bool",
          "name": "_withUpdate",
          "type": "bool"
        }
      ],
      "name": "add",
      "outputs": [],
      "stateMutability": "nonpayable",
      "type": "function"
    },
    {
      "inputs": [],
      "name": "bonusEndBlock",
      "outputs": [
        {
          "internalType": "uint256",
          "name": "",
          "type": "uint256"
        }
      ],
      "stateMutability": "view",
      "type": "function"
    },
    {
      "inputs": [
        {
          "internalType": "uint256",
          "name": "_pid",
          "type": "uint256"
        },
        {
          "internalType": "uint256",
          "name": "_amount",
          "type": "uint256"
        }
      ],
      "name": "deposit",
      "outputs": [],
      "stateMutability": "nonpayable",
      "type": "function"
    },
    {
      "inputs": [
        {
          "internalType": "address",
          "name": "_devaddr",
          "type": "address"
        }
      ],
      "name": "dev",
      "outputs": [],
      "stateMutability": "nonpayable",
      "type": "function"
    },
    {
      "inputs": [],
      "name": "devaddr",
      "outputs": [
        {
          "internalType": "address",
          "name": "",
          "type": "address"
        }
      ],
      "stateMutability": "view",
      "type": "function"
    },
    {
      "inputs": [
        {
          "internalType": "uint256",
          "name": "_pid",
          "type": "uint256"
        }
      ],
      "name": "emergencyWithdraw",
      "outputs": [],
      "stateMutability": "nonpayable",
      "type": "function"
    },
    {
      "inputs": [
        {
          "internalType": "uint256",
          "name": "_from",
          "type": "uint256"
        },
        {
          "internalType": "uint256",
          "name": "_to",
          "type": "uint256"
        }
      ],
      "name": "getMultiplier",
      "outputs": [
        {
          "internalType": "uint256",
          "name": "",
          "type": "uint256"
        }
      ],
      "stateMutability": "view",
      "type": "function"
    },
    {
      "inputs": [
        {
          "internalType": "address",
          "name": "",
          "type": "address"
        }
      ],
      "name": "lpCheck",
      "outputs": [
        {
          "internalType": "bool",
          "name": "",
          "type": "bool"
        }
      ],
      "stateMutability": "view",
      "type": "function"
    },
    {
      "inputs": [],
      "name": "massUpdatePools",
      "outputs": [],
      "stateMutability": "nonpayable",
      "type": "function"
    },
    {
      "inputs": [
        {
          "internalType": "uint256",
          "name": "_pid",
          "type": "uint256"
        }
      ],
      "name": "migrate",
      "outputs": [],
      "stateMutability": "nonpayable",
      "type": "function"
    },
    {
      "inputs": [],
      "name": "migrator",
      "outputs": [
        {
          "internalType": "contract IMigratorChef",
          "name": "",
          "type": "address"
        }
      ],
      "stateMutability": "view",
      "type": "function"
    },
    {
      "inputs": [],
      "name": "owner",
      "outputs": [
        {
          "internalType": "address",
          "name": "",
          "type": "address"
        }
      ],
      "stateMutability": "view",
      "type": "function"
    },
    {
      "inputs": [
        {
          "internalType": "uint256",
          "name": "_pid",
          "type": "uint256"
        },
        {
          "internalType": "address",
          "name": "_user",
          "type": "address"
        }
      ],
      "name": "pendingPops",
      "outputs": [
        {
          "internalType": "uint256",
          "name": "",
          "type": "uint256"
        }
      ],
      "stateMutability": "view",
      "type": "function"
    },
    {
      "inputs": [
        {
          "internalType": "uint256",
          "name": "",
          "type": "uint256"
        }
      ],
      "name": "poolInfo",
      "outputs": [
        {
          "internalType": "contract IERC20",
          "name": "lpToken",
          "type": "address"
        },
        {
          "internalType": "uint256",
          "name": "allocPoint",
          "type": "uint256"
        },
        {
          "internalType": "uint256",
          "name": "lastRewardBlock",
          "type": "uint256"
        },
        {
          "internalType": "uint256",
          "name": "accPopsPerShare",
          "type": "uint256"
        }
      ],
      "stateMutability": "view",
      "type": "function"
    },
    {
      "inputs": [],
      "name": "poolLength",
      "outputs": [
        {
          "internalType": "uint256",
          "name": "",
          "type": "uint256"
        }
      ],
      "stateMutability": "view",
      "type": "function"
    },
    {
      "inputs": [],
      "name": "pops",
      "outputs": [
        {
          "internalType": "contract POPSToken",
          "name": "",
          "type": "address"
        }
      ],
      "stateMutability": "view",
      "type": "function"
    },
    {
      "inputs": [],
      "name": "popsPerBlock",
      "outputs": [
        {
          "internalType": "uint256",
          "name": "",
          "type": "uint256"
        }
      ],
      "stateMutability": "view",
      "type": "function"
    },
    {
      "inputs": [],
      "name": "renounceOwnership",
      "outputs": [],
      "stateMutability": "nonpayable",
      "type": "function"
    },
    {
      "inputs": [
        {
          "internalType": "uint256",
          "name": "_pid",
          "type": "uint256"
        },
        {
          "internalType": "uint256",
          "name": "_allocPoint",
          "type": "uint256"
        },
        {
          "internalType": "bool",
          "name": "_withUpdate",
          "type": "bool"
        }
      ],
      "name": "set",
      "outputs": [],
      "stateMutability": "nonpayable",
      "type": "function"
    },
    {
      "inputs": [
        {
          "internalType": "contract IMigratorChef",
          "name": "_migrator",
          "type": "address"
        }
      ],
      "name": "setMigrator",
      "outputs": [],
      "stateMutability": "nonpayable",
      "type": "function"
    },
    {
      "inputs": [],
      "name": "startBlock",
      "outputs": [
        {
          "internalType": "uint256",
          "name": "",
          "type": "uint256"
        }
      ],
      "stateMutability": "view",
      "type": "function"
    },
    {
      "inputs": [],
      "name": "totalAllocPoint",
      "outputs": [
        {
          "internalType": "uint256",
          "name": "",
          "type": "uint256"
        }
      ],
      "stateMutability": "view",
      "type": "function"
    },
    {
      "inputs": [
        {
          "internalType": "address",
          "name": "newOwner",
          "type": "address"
        }
      ],
      "name": "transferOwnership",
      "outputs": [],
      "stateMutability": "nonpayable",
      "type": "function"
    },
    {
      "inputs": [
        {
          "internalType": "uint256",
          "name": "_pid",
          "type": "uint256"
        }
      ],
      "name": "updatePool",
      "outputs": [],
      "stateMutability": "nonpayable",
      "type": "function"
    },
    {
      "inputs": [
        {
          "internalType": "uint256",
          "name": "",
          "type": "uint256"
        },
        {
          "internalType": "address",
          "name": "",
          "type": "address"
        }
      ],
      "name": "userInfo",
      "outputs": [
        {
          "internalType": "uint256",
          "name": "amount",
          "type": "uint256"
        },
        {
          "internalType": "uint256",
          "name": "rewardDebt",
          "type": "uint256"
        }
      ],
      "stateMutability": "view",
      "type": "function"
    },
    {
      "inputs": [
        {
          "internalType": "uint256",
          "name": "_pid",
          "type": "uint256"
        },
        {
          "internalType": "uint256",
          "name": "_amount",
          "type": "uint256"
        }
      ],
      "name": "withdraw",
      "outputs": [],
      "stateMutability": "nonpayable",
      "type": "function"
    }
  ],
  "bytecode": "0x6080604052600060095534801561001557600080fd5b506040516120f53803806120f5833981810160405260a081101561003857600080fd5b5080516020820151604083015160608401516080909401519293919290919060006100616100e9565b600080546001600160a01b0319166001600160a01b0383169081178255604051929350917f8be0079c531659141344cd1fd0a4f28419497f9722a3daafe3b4186f6b6457e0908290a350600180546001600160a01b039687166001600160a01b0319918216179091556002805495909616941693909317909355600455600355600a556100ed565b3390565b611ff9806100fc6000396000f3fe608060405234801561001057600080fd5b50600436106101a85760003560e01c8063630b5ba1116100f95780638d88a90e1161009757806393f1a40b1161007157806393f1a40b14610430578063d49e77cd14610475578063e2bbb1581461047d578063f2fde38b146104a0576101a8565b80638d88a90e146103df5780638da5cb5b146104055780638dbb1e3a1461040d576101a8565b80636dca5a59116100d35780636dca5a59146103bf578063715018a6146103c75780637cd07e47146103cf5780638aa28550146103d7576101a8565b8063630b5ba11461035257806364482f791461035a57806367968dac14610385576101a8565b806323cf311811610166578063454b060811610140578063454b0608146102f357806348cd4cb11461031057806351eb05a6146103185780635312ea8e14610335576101a8565b806323cf31181461028657806329a91b09146102ac578063441a3e70146102d0576101a8565b80628201d5146101ad578063081e3eda146101eb5780631526fe27146101f357806317caf6f1146102405780631aed6553146102485780631eaaa04514610250575b600080fd5b6101d9600480360360408110156101c357600080fd5b50803590602001356001600160a01b03166104c6565b60408051918252519081900360200190f35b6101d9610683565b6102106004803603602081101561020957600080fd5b5035610689565b604080516001600160a01b0390951685526020850193909352838301919091526060830152519081900360800190f35b6101d96106ca565b6101d96106d0565b6102846004803603606081101561026657600080fd5b508035906001600160a01b03602082013516906040013515156106d6565b005b6102846004803603602081101561029c57600080fd5b50356001600160a01b0316610922565b6102b46109ce565b604080516001600160a01b039092168252519081900360200190f35b610284600480360360408110156102e657600080fd5b50803590602001356109dd565b6102846004803603602081101561030957600080fd5b5035610b69565b6101d9610e0a565b6102846004803603602081101561032e57600080fd5b5035610e10565b6102846004803603602081101561034b57600080fd5b5035611076565b610284611151565b6102846004803603606081101561037057600080fd5b50803590602081013590604001351515611174565b6103ab6004803603602081101561039b57600080fd5b50356001600160a01b03166112d6565b604080519115158252519081900360200190f35b6101d96112eb565b6102846112f1565b6102b461139d565b6101d96113ac565b610284600480360360208110156103f557600080fd5b50356001600160a01b03166113b1565b6102b4611446565b6101d96004803603604081101561042357600080fd5b5080359060200135611455565b61045c6004803603604081101561044657600080fd5b50803590602001356001600160a01b03166114bb565b6040805192835260208301919091528051918290030190f35b6102b46114df565b6102846004803603604081101561049357600080fd5b50803590602001356114ee565b610284600480360360208110156104b657600080fd5b50356001600160a01b0316611638565b600654600090831061050e576040805162461bcd60e51b815260206004820152600c60248201526b1a5b9d985b1a590817dc1a5960a21b604482015290519081900360640190fd5b60006006848154811061051d57fe5b600091825260208083208784526007825260408085206001600160a01b03898116875290845281862060049586029093016003810154815484516370a0823160e01b81523098810198909852935191985093969395939492909116926370a08231926024808301939192829003018186803b15801561059b57600080fd5b505afa1580156105af573d6000803e3d6000fd5b505050506040513d60208110156105c557600080fd5b50516002850154909150431180156105dc57508015155b156106485760006105f1856002015443611455565b9050600061062460095461061e88600101546106186004548761173a90919063ffffffff16565b9061173a565b9061179a565b905061064361063c8461061e8464e8d4a5100061173a565b8590611801565b935050505b610676836001015461067064e8d4a5100061061e86886000015461173a90919063ffffffff16565b9061185b565b9450505050505b92915050565b60065490565b6006818154811061069657fe5b600091825260209091206004909102018054600182015460028301546003909301546001600160a01b039092169350919084565b60095481565b60035481565b6106de6118b8565b6001600160a01b03166106ef611446565b6001600160a01b031614610738576040805162461bcd60e51b81526020600482018190526024820152600080516020611f44833981519152604482015290519081900360640190fd5b6001600160a01b03821660009081526008602052604090205460ff161515600114156107ab576040805162461bcd60e51b815260206004820152601c60248201527f4d6173746572436865663a204c5020616c726561647920616464656400000000604482015290519081900360640190fd5b80156107b9576107b9611151565b6000600a5443116107cc57600a546107ce565b435b6009549091506107de9085611801565b600955604080516080810182526001600160a01b038581168083526020808401898152848601878152600060608701818152600680546001808201835591845298517ff652222313e28459528d920b65115c16c04f3efc82aaedc97be59f3f377c0d3f6004909a02998a0180546001600160a01b031916919099161790975592517ff652222313e28459528d920b65115c16c04f3efc82aaedc97be59f3f377c0d4088015590517ff652222313e28459528d920b65115c16c04f3efc82aaedc97be59f3f377c0d4187015590517ff652222313e28459528d920b65115c16c04f3efc82aaedc97be59f3f377c0d42909501949094558184526008815292849020805460ff19169092179091558251878152925190927f4b2733d4c19ff86ca1469bf779ee11b098d271775a4559ed4ad78c3ca048b2fa92908290030190a250505050565b61092a6118b8565b6001600160a01b031661093b611446565b6001600160a01b031614610984576040805162461bcd60e51b81526020600482018190526024820152600080516020611f44833981519152604482015290519081900360640190fd5b600580546001600160a01b0319166001600160a01b0383169081179091556040517f3ba4758949febc607e14523620298f8b5995b1848492ad7aa083372ac886ae0790600090a250565b6001546001600160a01b031681565b6006548210610a22576040805162461bcd60e51b815260206004820152600c60248201526b1a5b9d985b1a590817dc1a5960a21b604482015290519081900360640190fd5b600060068381548110610a3157fe5b600091825260208083208684526007825260408085203386529092529220805460049092029092019250831115610aa4576040805162461bcd60e51b81526020600482015260126024820152711dda5d1a191c985dce881b9bdd0819dbdbd960721b604482015290519081900360640190fd5b610aad84610e10565b6000610adb826001015461067064e8d4a5100061061e8760030154876000015461173a90919063ffffffff16565b9050610ae733826118bc565b8154610af3908561185b565b8083556003840154610b109164e8d4a510009161061e919061173a565b60018301558254610b2b906001600160a01b03163386611a4d565b604080518581529051869133917ff279e6a1f5e320cca91135676d9cb6e44ca8a08c0b88342bcdb1144f6511b5689181900360200190a35050505050565b6006548110610bae576040805162461bcd60e51b815260206004820152600c60248201526b1a5b9d985b1a590817dc1a5960a21b604482015290519081900360640190fd5b6005546001600160a01b0316610c02576040805162461bcd60e51b815260206004820152601460248201527336b4b3b930ba329d1037379036b4b3b930ba37b960611b604482015290519081900360640190fd5b600060068281548110610c1157fe5b600091825260208083206004928302018054604080516370a0823160e01b81523095810195909552519195506001600160a01b0316939284926370a0823192602480840193829003018186803b158015610c6a57600080fd5b505afa158015610c7e573d6000803e3d6000fd5b505050506040513d6020811015610c9457600080fd5b5051600554909150610cb3906001600160a01b03848116911683611a9f565b6005546040805163ce5494bb60e01b81526001600160a01b0385811660048301529151600093929092169163ce5494bb9160248082019260209290919082900301818787803b158015610d0557600080fd5b505af1158015610d19573d6000803e3d6000fd5b505050506040513d6020811015610d2f57600080fd5b5051604080516370a0823160e01b815230600482015290519192506001600160a01b038316916370a0823191602480820192602092909190829003018186803b158015610d7b57600080fd5b505afa158015610d8f573d6000803e3d6000fd5b505050506040513d6020811015610da557600080fd5b50518214610de9576040805162461bcd60e51b815260206004820152600c60248201526b1b5a59dc985d194e8818985960a21b604482015290519081900360640190fd5b83546001600160a01b0319166001600160a01b039190911617909255505050565b600a5481565b6006548110610e55576040805162461bcd60e51b815260206004820152600c60248201526b1a5b9d985b1a590817dc1a5960a21b604482015290519081900360640190fd5b600060068281548110610e6457fe5b9060005260206000209060040201905080600201544311610e855750611073565b8054604080516370a0823160e01b815230600482015290516000926001600160a01b0316916370a08231916024808301926020929190829003018186803b158015610ecf57600080fd5b505afa158015610ee3573d6000803e3d6000fd5b505050506040513d6020811015610ef957600080fd5b5051905080610f0f575043600290910155611073565b6000610f1f836002015443611455565b90506000610f4660095461061e86600101546106186004548761173a90919063ffffffff16565b6001546002549192506001600160a01b03908116916340c10f199116610f6d84600a61179a565b6040518363ffffffff1660e01b815260040180836001600160a01b0316815260200182815260200192505050600060405180830381600087803b158015610fb357600080fd5b505af1158015610fc7573d6000803e3d6000fd5b5050600154604080516340c10f1960e01b81523060048201526024810186905290516001600160a01b0390921693506340c10f19925060448082019260009290919082900301818387803b15801561101e57600080fd5b505af1158015611032573d6000803e3d6000fd5b505050506110606110558461061e64e8d4a510008561173a90919063ffffffff16565b600386015490611801565b6003850155505043600290920191909155505b50565b60065481106110bb576040805162461bcd60e51b815260206004820152600c60248201526b1a5b9d985b1a590817dc1a5960a21b604482015290519081900360640190fd5b6000600682815481106110ca57fe5b600091825260208083208584526007825260408085203380875290845281862080548782556001820197909755825187815292516004909602909301965091949387937fbb757047c2b5f3974fe26b7c10f732e7bce710b0952a71082702781e62ae0595928290030190a3825461114b906001600160a01b03163383611a4d565b50505050565b60065460005b818110156111705761116881610e10565b600101611157565b5050565b61117c6118b8565b6001600160a01b031661118d611446565b6001600160a01b0316146111d6576040805162461bcd60e51b81526020600482018190526024820152600080516020611f44833981519152604482015290519081900360640190fd5b600654831061121b576040805162461bcd60e51b815260206004820152600c60248201526b1a5b9d985b1a590817dc1a5960a21b604482015290519081900360640190fd5b801561122957611229611151565b611266826112606006868154811061123d57fe5b90600052602060002090600402016001015460095461185b90919063ffffffff16565b90611801565b600981905550816006848154811061127a57fe5b6000918252602091829020600160049092020101919091556040805185815291820184905282151582820152517f16569560b3c6b0fcc09e1015438b2a2a4309aacff1ea040a0382061a8f28a9bd9181900360600190a1505050565b60086020526000908152604090205460ff1681565b60045481565b6112f96118b8565b6001600160a01b031661130a611446565b6001600160a01b031614611353576040805162461bcd60e51b81526020600482018190526024820152600080516020611f44833981519152604482015290519081900360640190fd5b600080546040516001600160a01b03909116907f8be0079c531659141344cd1fd0a4f28419497f9722a3daafe3b4186f6b6457e0908390a3600080546001600160a01b0319169055565b6005546001600160a01b031681565b600a81565b6002546001600160a01b031633146113fc576040805162461bcd60e51b81526020600482015260096024820152686465763a207775743f60b81b604482015290519081900360640190fd5b600280546001600160a01b0319166001600160a01b0383169081179091556040517f7b25fd50423fb3ec134bcb3c13ddbefa904827e880fc79fe8f91528cbea087cd90600090a250565b6000546001600160a01b031690565b600060035482116114765761146f600a610618848661185b565b905061067d565b60035483106114895761146f828461185b565b61146f6114a16003548461185b90919063ffffffff16565b611260600a6106188760035461185b90919063ffffffff16565b60076020908152600092835260408084209091529082529020805460019091015482565b6002546001600160a01b031681565b6006548210611533576040805162461bcd60e51b815260206004820152600c60248201526b1a5b9d985b1a590817dc1a5960a21b604482015290519081900360640190fd5b60006006838154811061154257fe5b6000918252602080832086845260078252604080852033865290925292206004909102909101915061157384610e10565b8054156115b65760006115a8826001015461067064e8d4a5100061061e8760030154876000015461173a90919063ffffffff16565b90506115b433826118bc565b505b81546115cd906001600160a01b0316333086611bb2565b80546115d99084611801565b80825560038301546115f69164e8d4a510009161061e919061173a565b6001820155604080518481529051859133917f90890809c654f11d6e72a28fa60149770a0d11ec6c92319d6ceb2bb0a4ea1a159181900360200190a350505050565b6116406118b8565b6001600160a01b0316611651611446565b6001600160a01b03161461169a576040805162461bcd60e51b81526020600482018190526024820152600080516020611f44833981519152604482015290519081900360640190fd5b6001600160a01b0381166116df5760405162461bcd60e51b8152600401808060200182810382526026815260200180611ed76026913960400191505060405180910390fd5b600080546040516001600160a01b03808516939216917f8be0079c531659141344cd1fd0a4f28419497f9722a3daafe3b4186f6b6457e091a3600080546001600160a01b0319166001600160a01b0392909216919091179055565b6000826117495750600061067d565b8282028284828161175657fe5b04146117935760405162461bcd60e51b8152600401808060200182810382526021815260200180611f236021913960400191505060405180910390fd5b9392505050565b60008082116117f0576040805162461bcd60e51b815260206004820152601a60248201527f536166654d6174683a206469766973696f6e206279207a65726f000000000000604482015290519081900360640190fd5b8183816117f957fe5b049392505050565b600082820183811015611793576040805162461bcd60e51b815260206004820152601b60248201527f536166654d6174683a206164646974696f6e206f766572666c6f770000000000604482015290519081900360640190fd5b6000828211156118b2576040805162461bcd60e51b815260206004820152601e60248201527f536166654d6174683a207375627472616374696f6e206f766572666c6f770000604482015290519081900360640190fd5b50900390565b3390565b600154604080516370a0823160e01b815230600482015290516000926001600160a01b0316916370a08231916024808301926020929190829003018186803b15801561190757600080fd5b505afa15801561191b573d6000803e3d6000fd5b505050506040513d602081101561193157600080fd5b50519050808211156119c5576001546040805163a9059cbb60e01b81526001600160a01b038681166004830152602482018590529151919092169163a9059cbb9160448083019260209291908290030181600087803b15801561199357600080fd5b505af11580156119a7573d6000803e3d6000fd5b505050506040513d60208110156119bd57600080fd5b50611a489050565b6001546040805163a9059cbb60e01b81526001600160a01b038681166004830152602482018690529151919092169163a9059cbb9160448083019260209291908290030181600087803b158015611a1b57600080fd5b505af1158015611a2f573d6000803e3d6000fd5b505050506040513d6020811015611a4557600080fd5b50505b505050565b604080516001600160a01b038416602482015260448082018490528251808303909101815260649091019091526020810180516001600160e01b031663a9059cbb60e01b179052611a48908490611c08565b801580611b25575060408051636eb1769f60e11b81523060048201526001600160a01b03848116602483015291519185169163dd62ed3e91604480820192602092909190829003018186803b158015611af757600080fd5b505afa158015611b0b573d6000803e3d6000fd5b505050506040513d6020811015611b2157600080fd5b5051155b611b605760405162461bcd60e51b8152600401808060200182810382526036815260200180611f8e6036913960400191505060405180910390fd5b604080516001600160a01b038416602482015260448082018490528251808303909101815260649091019091526020810180516001600160e01b031663095ea7b360e01b179052611a48908490611c08565b604080516001600160a01b0380861660248301528416604482015260648082018490528251808303909101815260849091019091526020810180516001600160e01b03166323b872dd60e01b17905261114b9085905b6060611c5d826040518060400160405280602081526020017f5361666545524332303a206c6f772d6c6576656c2063616c6c206661696c6564815250856001600160a01b0316611cb99092919063ffffffff16565b805190915015611a4857808060200190516020811015611c7c57600080fd5b5051611a485760405162461bcd60e51b815260040180806020018281038252602a815260200180611f64602a913960400191505060405180910390fd5b6060611cc88484600085611cd0565b949350505050565b606082471015611d115760405162461bcd60e51b8152600401808060200182810382526026815260200180611efd6026913960400191505060405180910390fd5b611d1a85611e2c565b611d6b576040805162461bcd60e51b815260206004820152601d60248201527f416464726573733a2063616c6c20746f206e6f6e2d636f6e7472616374000000604482015290519081900360640190fd5b60006060866001600160a01b031685876040518082805190602001908083835b60208310611daa5780518252601f199092019160209182019101611d8b565b6001836020036101000a03801982511681845116808217855250505050505090500191505060006040518083038185875af1925050503d8060008114611e0c576040519150601f19603f3d011682016040523d82523d6000602084013e611e11565b606091505b5091509150611e21828286611e32565b979650505050505050565b3b151590565b60608315611e41575081611793565b825115611e515782518084602001fd5b8160405162461bcd60e51b81526004018080602001828103825283818151815260200191508051906020019080838360005b83811015611e9b578181015183820152602001611e83565b50505050905090810190601f168015611ec85780820380516001836020036101000a031916815260200191505b509250505060405180910390fdfe4f776e61626c653a206e6577206f776e657220697320746865207a65726f2061646472657373416464726573733a20696e73756666696369656e742062616c616e636520666f722063616c6c536166654d6174683a206d756c7469706c69636174696f6e206f766572666c6f774f776e61626c653a2063616c6c6572206973206e6f7420746865206f776e65725361666545524332303a204552433230206f7065726174696f6e20646964206e6f7420737563636565645361666545524332303a20617070726f76652066726f6d206e6f6e2d7a65726f20746f206e6f6e2d7a65726f20616c6c6f77616e6365a26469706673582212204ec485a2f73d5edc03149d3c33d89bd254f0252ab30e0fb8ee298f12a0d0be8164736f6c634300060c0033",
  "linkReferences": {},
  "deployedLinkReferences": {}
}