{
  "_format": "hh-sol-artifact-1",
  "contractName": "MasterChef",
  "sourceName": "contracts/MasterChef.sol",
  "abi": [
    {
      "inputs": [
        {
          "internalType": "contract POPSToken",
          "name": "_pops",
          "type": "address"
        },
        {
          "internalType": "uint256",
          "name": "_popsPerBlock",
          "type": "uint256"
        },
        {
          "internalType": "uint256",
          "name": "_startBlock",
          "type": "uint256"
        },
        {
          "internalType": "uint256",
          "name": "_endBlock",
          "type": "uint256"
        },
        {
          "internalType": "uint256",
          "name": "_bonusEndBlock",
          "type": "uint256"
        }
      ],
      "stateMutability": "nonpayable",
      "type": "constructor"
    },
    {
      "anonymous": false,
      "inputs": [
        {
          "indexed": false,
          "internalType": "uint256",
          "name": "_pid",
          "type": "uint256"
        },
        {
          "indexed": false,
          "internalType": "uint256",
          "name": "_allocPoint",
          "type": "uint256"
        },
        {
          "indexed": true,
          "internalType": "address",
          "name": "_lptoken",
          "type": "address"
        }
      ],
      "name": "AddPool",
      "type": "event"
    },
    {
      "anonymous": false,
      "inputs": [
        {
          "indexed": true,
          "internalType": "address",
          "name": "user",
          "type": "address"
        },
        {
          "indexed": true,
          "internalType": "uint256",
          "name": "pid",
          "type": "uint256"
        },
        {
          "indexed": false,
          "internalType": "uint256",
          "name": "amount",
          "type": "uint256"
        }
      ],
      "name": "Deposit",
      "type": "event"
    },
    {
      "anonymous": false,
      "inputs": [
        {
          "indexed": true,
          "internalType": "address",
          "name": "user",
          "type": "address"
        },
        {
          "indexed": true,
          "internalType": "uint256",
          "name": "pid",
          "type": "uint256"
        },
        {
          "indexed": false,
          "internalType": "uint256",
          "name": "amount",
          "type": "uint256"
        }
      ],
      "name": "EmergencyWithdraw",
      "type": "event"
    },
    {
      "anonymous": false,
      "inputs": [
        {
          "indexed": true,
          "internalType": "address",
          "name": "previousOwner",
          "type": "address"
        },
        {
          "indexed": true,
          "internalType": "address",
          "name": "newOwner",
          "type": "address"
        }
      ],
      "name": "OwnershipTransferred",
      "type": "event"
    },
    {
      "anonymous": false,
      "inputs": [
        {
          "indexed": false,
          "internalType": "uint256",
          "name": "_pid",
          "type": "uint256"
        },
        {
          "indexed": false,
          "internalType": "uint256",
          "name": "allocPoint",
          "type": "uint256"
        },
        {
          "indexed": false,
          "internalType": "bool",
          "name": "_withUpdate",
          "type": "bool"
        }
      ],
      "name": "UpdateAlloc",
      "type": "event"
    },
    {
      "anonymous": false,
      "inputs": [
        {
          "indexed": true,
          "internalType": "address",
          "name": "user",
          "type": "address"
        },
        {
          "indexed": true,
          "internalType": "uint256",
          "name": "pid",
          "type": "uint256"
        },
        {
          "indexed": false,
          "internalType": "uint256",
          "name": "amount",
          "type": "uint256"
        }
      ],
      "name": "Withdraw",
      "type": "event"
    },
    {
      "inputs": [],
      "name": "BONUS_MULTIPLIER",
      "outputs": [
        {
          "internalType": "uint256",
          "name": "",
          "type": "uint256"
        }
      ],
      "stateMutability": "view",
      "type": "function"
    },
    {
      "inputs": [
        {
          "internalType": "uint256",
          "name": "_allocPoint",
          "type": "uint256"
        },
        {
          "internalType": "contract IERC20",
          "name": "_lpToken",
          "type": "address"
        },
        {
          "internalType": "bool",
          "name": "_withUpdate",
          "type": "bool"
        }
      ],
      "name": "add",
      "outputs": [],
      "stateMutability": "nonpayable",
      "type": "function"
    },
    {
      "inputs": [],
      "name": "bonusEndBlock",
      "outputs": [
        {
          "internalType": "uint256",
          "name": "",
          "type": "uint256"
        }
      ],
      "stateMutability": "view",
      "type": "function"
    },
    {
      "inputs": [
        {
          "internalType": "uint256",
          "name": "_pid",
          "type": "uint256"
        },
        {
          "internalType": "uint256",
          "name": "_amount",
          "type": "uint256"
        }
      ],
      "name": "deposit",
      "outputs": [],
      "stateMutability": "nonpayable",
      "type": "function"
    },
    {
      "inputs": [
        {
          "internalType": "uint256",
          "name": "_pid",
          "type": "uint256"
        }
      ],
      "name": "emergencyWithdraw",
      "outputs": [],
      "stateMutability": "nonpayable",
      "type": "function"
    },
    {
      "inputs": [],
      "name": "endBlock",
      "outputs": [
        {
          "internalType": "uint256",
          "name": "",
          "type": "uint256"
        }
      ],
      "stateMutability": "view",
      "type": "function"
    },
    {
      "inputs": [
        {
          "internalType": "address",
          "name": "",
          "type": "address"
        }
      ],
      "name": "existingPools",
      "outputs": [
        {
          "internalType": "bool",
          "name": "",
          "type": "bool"
        }
      ],
      "stateMutability": "view",
      "type": "function"
    },
    {
      "inputs": [
        {
          "internalType": "uint256",
          "name": "_from",
          "type": "uint256"
        },
        {
          "internalType": "uint256",
          "name": "_to",
          "type": "uint256"
        }
      ],
      "name": "getMultiplier",
      "outputs": [
        {
          "internalType": "uint256",
          "name": "",
          "type": "uint256"
        }
      ],
      "stateMutability": "view",
      "type": "function"
    },
    {
      "inputs": [],
      "name": "massUpdatePools",
      "outputs": [],
      "stateMutability": "nonpayable",
      "type": "function"
    },
    {
      "inputs": [],
      "name": "owner",
      "outputs": [
        {
          "internalType": "address",
          "name": "",
          "type": "address"
        }
      ],
      "stateMutability": "view",
      "type": "function"
    },
    {
      "inputs": [
        {
          "internalType": "uint256",
          "name": "_pid",
          "type": "uint256"
        },
        {
          "internalType": "address",
          "name": "_user",
          "type": "address"
        }
      ],
      "name": "pendingPops",
      "outputs": [
        {
          "internalType": "uint256",
          "name": "",
          "type": "uint256"
        }
      ],
      "stateMutability": "view",
      "type": "function"
    },
    {
      "inputs": [
        {
          "internalType": "uint256",
          "name": "",
          "type": "uint256"
        }
      ],
      "name": "poolInfo",
      "outputs": [
        {
          "internalType": "contract IERC20",
          "name": "lpToken",
          "type": "address"
        },
        {
          "internalType": "uint256",
          "name": "allocPoint",
          "type": "uint256"
        },
        {
          "internalType": "uint256",
          "name": "lastRewardBlock",
          "type": "uint256"
        },
        {
          "internalType": "uint256",
          "name": "accPopsPerShare",
          "type": "uint256"
        }
      ],
      "stateMutability": "view",
      "type": "function"
    },
    {
      "inputs": [],
      "name": "poolLength",
      "outputs": [
        {
          "internalType": "uint256",
          "name": "",
          "type": "uint256"
        }
      ],
      "stateMutability": "view",
      "type": "function"
    },
    {
      "inputs": [],
      "name": "pops",
      "outputs": [
        {
          "internalType": "contract POPSToken",
          "name": "",
          "type": "address"
        }
      ],
      "stateMutability": "view",
      "type": "function"
    },
    {
      "inputs": [],
      "name": "popsPerBlock",
      "outputs": [
        {
          "internalType": "uint256",
          "name": "",
          "type": "uint256"
        }
      ],
      "stateMutability": "view",
      "type": "function"
    },
    {
      "inputs": [],
      "name": "renounceOwnership",
      "outputs": [],
      "stateMutability": "nonpayable",
      "type": "function"
    },
    {
      "inputs": [
        {
          "internalType": "uint256",
          "name": "_pid",
          "type": "uint256"
        },
        {
          "internalType": "uint256",
          "name": "_allocPoint",
          "type": "uint256"
        },
        {
          "internalType": "bool",
          "name": "_withUpdate",
          "type": "bool"
        }
      ],
      "name": "set",
      "outputs": [],
      "stateMutability": "nonpayable",
      "type": "function"
    },
    {
      "inputs": [],
      "name": "startBlock",
      "outputs": [
        {
          "internalType": "uint256",
          "name": "",
          "type": "uint256"
        }
      ],
      "stateMutability": "view",
      "type": "function"
    },
    {
      "inputs": [],
      "name": "totalAllocPoint",
      "outputs": [
        {
          "internalType": "uint256",
          "name": "",
          "type": "uint256"
        }
      ],
      "stateMutability": "view",
      "type": "function"
    },
    {
      "inputs": [
        {
          "internalType": "address",
          "name": "newOwner",
          "type": "address"
        }
      ],
      "name": "transferOwnership",
      "outputs": [],
      "stateMutability": "nonpayable",
      "type": "function"
    },
    {
      "inputs": [
        {
          "internalType": "uint256",
          "name": "_pid",
          "type": "uint256"
        }
      ],
      "name": "updatePool",
      "outputs": [],
      "stateMutability": "nonpayable",
      "type": "function"
    },
    {
      "inputs": [
        {
          "internalType": "uint256",
          "name": "",
          "type": "uint256"
        },
        {
          "internalType": "address",
          "name": "",
          "type": "address"
        }
      ],
      "name": "userInfo",
      "outputs": [
        {
          "internalType": "uint256",
          "name": "amount",
          "type": "uint256"
        },
        {
          "internalType": "uint256",
          "name": "rewardDebt",
          "type": "uint256"
        }
      ],
      "stateMutability": "view",
      "type": "function"
    },
    {
      "inputs": [
        {
          "internalType": "uint256",
          "name": "_pid",
          "type": "uint256"
        },
        {
          "internalType": "uint256",
          "name": "_amount",
          "type": "uint256"
        }
      ],
      "name": "withdraw",
      "outputs": [],
      "stateMutability": "nonpayable",
      "type": "function"
    }
  ],
  "bytecode": "0x6080604052600060085534801561001557600080fd5b50604051611e59380380611e59833981810160405260a081101561003857600080fd5b508051602082015160408301516060840151608090940151929391929091906000610061610129565b600080546001600160a01b0319166001600160a01b0383169081178255604051929350917f8be0079c531659141344cd1fd0a4f28419497f9722a3daafe3b4186f6b6457e0908290a35060018055818111156100ee5760405162461bcd60e51b8152600401808060200182810382526026815260200180611e336026913960400191505060405180910390fd5b600280546001600160a01b0319166001600160a01b039690961695909517909455600492909255600392909255600991909155600a5561012d565b3390565b611cf78061013c6000396000f3fe608060405234801561001057600080fd5b506004361061014c5760003560e01c80635312ea8e116100c35780638da5cb5b1161007c5780638da5cb5b146103065780638dbb1e3a1461030e57806393f1a40b14610331578063e2bbb15814610376578063f2fde38b14610399578063f9ce8217146103bf5761014c565b80635312ea8e1461029e578063630b5ba1146102bb57806364482f79146102c35780636dca5a59146102ee578063715018a6146102f65780638aa28550146102fe5761014c565b80631aed6553116101155780631aed6553146101f45780631eaaa045146101fc57806329a91b0914610232578063441a3e701461025657806348cd4cb11461027957806351eb05a6146102815761014c565b80628201d514610151578063081e3eda1461018f578063083c6323146101975780631526fe271461019f57806317caf6f1146101ec575b600080fd5b61017d6004803603604081101561016757600080fd5b50803590602001356001600160a01b03166103f9565b60408051918252519081900360200190f35b61017d6105c7565b61017d6105cd565b6101bc600480360360208110156101b557600080fd5b50356105d3565b604080516001600160a01b0390951685526020850193909352838301919091526060830152519081900360800190f35b61017d610614565b61017d61061a565b6102306004803603606081101561021257600080fd5b508035906001600160a01b0360208201351690604001351515610620565b005b61023a6108ca565b604080516001600160a01b039092168252519081900360200190f35b6102306004803603604081101561026c57600080fd5b50803590602001356108d9565b61017d610ac6565b6102306004803603602081101561029757600080fd5b5035610acc565b610230600480360360208110156102b457600080fd5b5035610cd5565b610230610e11565b610230600480360360608110156102d957600080fd5b50803590602081013590604001351515610e34565b61017d610fe7565b610230610fed565b61017d611099565b61023a61109e565b61017d6004803603604081101561032457600080fd5b50803590602001356110ad565b61035d6004803603604081101561034757600080fd5b50803590602001356001600160a01b031661113a565b6040805192835260208301919091528051918290030190f35b6102306004803603604081101561038c57600080fd5b508035906020013561115e565b610230600480360360208110156103af57600080fd5b50356001600160a01b0316611460565b6103e5600480360360208110156103d557600080fd5b50356001600160a01b0316611562565b604080519115158252519081900360200190f35b6005546000908310610441576040805162461bcd60e51b815260206004820152600c60248201526b1a5b9d985b1a590817dc1a5960a21b604482015290519081900360640190fd5b60006005848154811061045057fe5b600091825260208083208784526006825260408085206001600160a01b03898116875290845281862060049586029093016003810154815484516370a0823160e01b81523098810198909852935191985093969395939492909116926370a08231926024808301939192829003018186803b1580156104ce57600080fd5b505afa1580156104e2573d6000803e3d6000fd5b505050506040513d60208110156104f857600080fd5b505160028501549091504311801561050f57508015155b80156105205750600a548460020154105b1561058c5760006105358560020154436110ad565b90506000610568600854610562886001015461055c6004548761157790919063ffffffff16565b90611577565b906115d7565b9050610587610580846105628464e8d4a51000611577565b859061163e565b935050505b6105ba83600101546105b464e8d4a5100061056286886000015461157790919063ffffffff16565b90611698565b9450505050505b92915050565b60055490565b600a5481565b600581815481106105e057fe5b600091825260209091206004909102018054600182015460028301546003909301546001600160a01b039092169350919084565b60085481565b60035481565b6106286116f5565b6001600160a01b031661063961109e565b6001600160a01b031614610682576040805162461bcd60e51b81526020600482018190526024820152600080516020611c78833981519152604482015290519081900360640190fd5b43600a54116106d3576040805162461bcd60e51b815260206004820152601860248201527713585cdd195c90da19598e88135a5b9a5b99c8195b99195960421b604482015290519081900360640190fd5b6001600160a01b03821660009081526007602052604090205460ff16151560011415610746576040805162461bcd60e51b815260206004820152601c60248201527f4d6173746572436865663a204c5020616c726561647920616464656400000000604482015290519081900360640190fd5b801561075457610754610e11565b6000600954431161076757600954610769565b435b600854909150610779908561163e565b600855604080516080810182526001600160a01b038581168083526020808401898152848601878152600060608701818152600580546001808201835582855299517f036b6384b5eca791c62761152d0c79bb0604c104a5fb6f4eb0703f3154bb3db0600490920291820180546001600160a01b03191691909a161790985593517f036b6384b5eca791c62761152d0c79bb0604c104a5fb6f4eb0703f3154bb3db188015591517f036b6384b5eca791c62761152d0c79bb0604c104a5fb6f4eb0703f3154bb3db287015590517f036b6384b5eca791c62761152d0c79bb0604c104a5fb6f4eb0703f3154bb3db3909501949094558284526007825292859020805460ff191690941790935590548351600019919091018152918201879052825190927f44f06e62408d549dc25356ed3ab6326c665b66ce934c0e8d13bd1957a6031d4c928290030190a250505050565b6002546001600160a01b031681565b60026001541415610931576040805162461bcd60e51b815260206004820152601f60248201527f5265656e7472616e637947756172643a207265656e7472616e742063616c6c00604482015290519081900360640190fd5b6002600155600554821061097b576040805162461bcd60e51b815260206004820152600c60248201526b1a5b9d985b1a590817dc1a5960a21b604482015290519081900360640190fd5b60006005838154811061098a57fe5b6000918252602080832086845260068252604080852033865290925292208054600490920290920192508311156109fd576040805162461bcd60e51b81526020600482015260126024820152711dda5d1a191c985dce881b9bdd0819dbdbd960721b604482015290519081900360640190fd5b610a0684610acc565b6000610a3482600101546105b464e8d4a510006105628760030154876000015461157790919063ffffffff16565b9050610a4033826116f9565b8154610a4c9085611698565b8083556003840154610a699164e8d4a51000916105629190611577565b60018301558254610a84906001600160a01b0316338661188a565b604080518581529051869133917ff279e6a1f5e320cca91135676d9cb6e44ca8a08c0b88342bcdb1144f6511b5689181900360200190a3505060018055505050565b60095481565b6005548110610b11576040805162461bcd60e51b815260206004820152600c60248201526b1a5b9d985b1a590817dc1a5960a21b604482015290519081900360640190fd5b600060058281548110610b2057fe5b90600052602060002090600402019050806002015443111580610b495750600a54816002015410155b15610b545750610cd2565b8054604080516370a0823160e01b815230600482015290516000926001600160a01b0316916370a08231916024808301926020929190829003018186803b158015610b9e57600080fd5b505afa158015610bb2573d6000803e3d6000fd5b505050506040513d6020811015610bc857600080fd5b5051905080610bde575043600290910155610cd2565b6000610bee8360020154436110ad565b90506000610c15600854610562866001015461055c6004548761157790919063ffffffff16565b600254604080516340c10f1960e01b81523060048201526024810184905290519293506001600160a01b03909116916340c10f199160448082019260009290919082900301818387803b158015610c6b57600080fd5b505af1158015610c7f573d6000803e3d6000fd5b50505050610cad610ca28461056264e8d4a510008561157790919063ffffffff16565b60038601549061163e565b6003850155600a544311610cc15743610cc5565b600a545b8460020181905550505050505b50565b60026001541415610d2d576040805162461bcd60e51b815260206004820152601f60248201527f5265656e7472616e637947756172643a207265656e7472616e742063616c6c00604482015290519081900360640190fd5b60026001556005548110610d77576040805162461bcd60e51b815260206004820152600c60248201526b1a5b9d985b1a590817dc1a5960a21b604482015290519081900360640190fd5b600060058281548110610d8657fe5b600091825260208083208584526006825260408085203380875290845281862080548782556001820197909755825187815292516004909602909301965091949387937fbb757047c2b5f3974fe26b7c10f732e7bce710b0952a71082702781e62ae0595928290030190a38254610e07906001600160a01b0316338361188a565b5050600180555050565b60055460005b81811015610e3057610e2881610acc565b600101610e17565b5050565b610e3c6116f5565b6001600160a01b0316610e4d61109e565b6001600160a01b031614610e96576040805162461bcd60e51b81526020600482018190526024820152600080516020611c78833981519152604482015290519081900360640190fd5b43600a5411610ee7576040805162461bcd60e51b815260206004820152601860248201527713585cdd195c90da19598e88135a5b9a5b99c8195b99195960421b604482015290519081900360640190fd5b6005548310610f2c576040805162461bcd60e51b815260206004820152600c60248201526b1a5b9d985b1a590817dc1a5960a21b604482015290519081900360640190fd5b8015610f3a57610f3a610e11565b610f7782610f7160058681548110610f4e57fe5b90600052602060002090600402016001015460085461169890919063ffffffff16565b9061163e565b6008819055508160058481548110610f8b57fe5b6000918252602091829020600160049092020101919091556040805185815291820184905282151582820152517f16569560b3c6b0fcc09e1015438b2a2a4309aacff1ea040a0382061a8f28a9bd9181900360600190a1505050565b60045481565b610ff56116f5565b6001600160a01b031661100661109e565b6001600160a01b03161461104f576040805162461bcd60e51b81526020600482018190526024820152600080516020611c78833981519152604482015290519081900360640190fd5b600080546040516001600160a01b03909116907f8be0079c531659141344cd1fd0a4f28419497f9722a3daafe3b4186f6b6457e0908390a3600080546001600160a01b0319169055565b600a81565b6000546001600160a01b031690565b6000600a548311156110c1575060006105c1565b600a5482116110d057816110d4565b600a545b915060035482116110f5576110ee600a61055c8486611698565b90506105c1565b6003548310611108576110ee8284611698565b6110ee6111206003548461169890919063ffffffff16565b610f71600a61055c8760035461169890919063ffffffff16565b60066020908152600092835260408084209091529082529020805460019091015482565b600260015414156111b6576040805162461bcd60e51b815260206004820152601f60248201527f5265656e7472616e637947756172643a207265656e7472616e742063616c6c00604482015290519081900360640190fd5b6002600155600a54431061120c576040805162461bcd60e51b815260206004820152601860248201527713585cdd195c90da19598e88135a5b9a5b99c8195b99195960421b604482015290519081900360640190fd5b6005548210611251576040805162461bcd60e51b815260206004820152600c60248201526b1a5b9d985b1a590817dc1a5960a21b604482015290519081900360640190fd5b60006005838154811061126057fe5b6000918252602080832086845260068252604080852033865290925292206004909102909101915061129184610acc565b8054156112d45760006112c682600101546105b464e8d4a510006105628760030154876000015461157790919063ffffffff16565b90506112d233826116f9565b505b82156113ff578154604080516370a0823160e01b815230600482015290516000926001600160a01b0316916370a08231916024808301926020929190829003018186803b15801561132457600080fd5b505afa158015611338573d6000803e3d6000fd5b505050506040513d602081101561134e57600080fd5b5051835490915061136a906001600160a01b03163330876118dc565b8254604080516370a0823160e01b815230600482015290516113ec9284926001600160a01b03909116916370a0823191602480820192602092909190829003018186803b1580156113ba57600080fd5b505afa1580156113ce573d6000803e3d6000fd5b505050506040513d60208110156113e457600080fd5b505190611698565b82549094506113fb908561163e565b8255505b6003820154815461141a9164e8d4a510009161056291611577565b6001820155604080518481529051859133917f90890809c654f11d6e72a28fa60149770a0d11ec6c92319d6ceb2bb0a4ea1a159181900360200190a35050600180555050565b6114686116f5565b6001600160a01b031661147961109e565b6001600160a01b0316146114c2576040805162461bcd60e51b81526020600482018190526024820152600080516020611c78833981519152604482015290519081900360640190fd5b6001600160a01b0381166115075760405162461bcd60e51b8152600401808060200182810382526026815260200180611c0b6026913960400191505060405180910390fd5b600080546040516001600160a01b03808516939216917f8be0079c531659141344cd1fd0a4f28419497f9722a3daafe3b4186f6b6457e091a3600080546001600160a01b0319166001600160a01b0392909216919091179055565b60076020526000908152604090205460ff1681565b600082611586575060006105c1565b8282028284828161159357fe5b04146115d05760405162461bcd60e51b8152600401808060200182810382526021815260200180611c576021913960400191505060405180910390fd5b9392505050565b600080821161162d576040805162461bcd60e51b815260206004820152601a60248201527f536166654d6174683a206469766973696f6e206279207a65726f000000000000604482015290519081900360640190fd5b81838161163657fe5b049392505050565b6000828201838110156115d0576040805162461bcd60e51b815260206004820152601b60248201527f536166654d6174683a206164646974696f6e206f766572666c6f770000000000604482015290519081900360640190fd5b6000828211156116ef576040805162461bcd60e51b815260206004820152601e60248201527f536166654d6174683a207375627472616374696f6e206f766572666c6f770000604482015290519081900360640190fd5b50900390565b3390565b600254604080516370a0823160e01b815230600482015290516000926001600160a01b0316916370a08231916024808301926020929190829003018186803b15801561174457600080fd5b505afa158015611758573d6000803e3d6000fd5b505050506040513d602081101561176e57600080fd5b5051905080821115611802576002546040805163a9059cbb60e01b81526001600160a01b038681166004830152602482018590529151919092169163a9059cbb9160448083019260209291908290030181600087803b1580156117d057600080fd5b505af11580156117e4573d6000803e3d6000fd5b505050506040513d60208110156117fa57600080fd5b506118859050565b6002546040805163a9059cbb60e01b81526001600160a01b038681166004830152602482018690529151919092169163a9059cbb9160448083019260209291908290030181600087803b15801561185857600080fd5b505af115801561186c573d6000803e3d6000fd5b505050506040513d602081101561188257600080fd5b50505b505050565b604080516001600160a01b038416602482015260448082018490528251808303909101815260649091019091526020810180516001600160e01b031663a9059cbb60e01b17905261188590849061193c565b604080516001600160a01b0380861660248301528416604482015260648082018490528251808303909101815260849091019091526020810180516001600160e01b03166323b872dd60e01b17905261193690859061193c565b50505050565b6060611991826040518060400160405280602081526020017f5361666545524332303a206c6f772d6c6576656c2063616c6c206661696c6564815250856001600160a01b03166119ed9092919063ffffffff16565b805190915015611885578080602001905160208110156119b057600080fd5b50516118855760405162461bcd60e51b815260040180806020018281038252602a815260200180611c98602a913960400191505060405180910390fd5b60606119fc8484600085611a04565b949350505050565b606082471015611a455760405162461bcd60e51b8152600401808060200182810382526026815260200180611c316026913960400191505060405180910390fd5b611a4e85611b60565b611a9f576040805162461bcd60e51b815260206004820152601d60248201527f416464726573733a2063616c6c20746f206e6f6e2d636f6e7472616374000000604482015290519081900360640190fd5b60006060866001600160a01b031685876040518082805190602001908083835b60208310611ade5780518252601f199092019160209182019101611abf565b6001836020036101000a03801982511681845116808217855250505050505090500191505060006040518083038185875af1925050503d8060008114611b40576040519150601f19603f3d011682016040523d82523d6000602084013e611b45565b606091505b5091509150611b55828286611b66565b979650505050505050565b3b151590565b60608315611b755750816115d0565b825115611b855782518084602001fd5b8160405162461bcd60e51b81526004018080602001828103825283818151815260200191508051906020019080838360005b83811015611bcf578181015183820152602001611bb7565b50505050905090810190601f168015611bfc5780820380516001836020036101000a031916815260200191505b509250505060405180910390fdfe4f776e61626c653a206e6577206f776e657220697320746865207a65726f2061646472657373416464726573733a20696e73756666696369656e742062616c616e636520666f722063616c6c536166654d6174683a206d756c7469706c69636174696f6e206f766572666c6f774f776e61626c653a2063616c6c6572206973206e6f7420746865206f776e65725361666545524332303a204552433230206f7065726174696f6e20646964206e6f742073756363656564a26469706673582212206fb581432336b2f8bf2798ff5f351fb7cb02d49800889820b09d1fdc602fb50364736f6c634300060c00334d6173746572436865663a205f626f6e7573456e64426c6f636b203e205f656e64426c6f636b",
  "linkReferences": {},
  "deployedLinkReferences": {}
}