{
  "_format": "hh-sol-artifact-1",
  "contractName": "IceCreamVan",
  "sourceName": "contracts/IceCreamVan.sol",
  "abi": [
    {
      "inputs": [
        {
          "internalType": "address",
          "name": "_factory",
          "type": "address"
        },
        {
          "internalType": "address",
          "name": "_bar",
          "type": "address"
        },
        {
          "internalType": "address",
          "name": "_pops",
          "type": "address"
        },
        {
          "internalType": "address",
          "name": "_weth",
          "type": "address"
        }
      ],
      "stateMutability": "nonpayable",
      "type": "constructor"
    },
    {
      "anonymous": false,
      "inputs": [
        {
          "indexed": true,
          "internalType": "address",
          "name": "token",
          "type": "address"
        },
        {
          "indexed": true,
          "internalType": "address",
          "name": "bridge",
          "type": "address"
        }
      ],
      "name": "LogBridgeSet",
      "type": "event"
    },
    {
      "anonymous": false,
      "inputs": [
        {
          "indexed": true,
          "internalType": "address",
          "name": "server",
          "type": "address"
        },
        {
          "indexed": true,
          "internalType": "address",
          "name": "token0",
          "type": "address"
        },
        {
          "indexed": true,
          "internalType": "address",
          "name": "token1",
          "type": "address"
        },
        {
          "indexed": false,
          "internalType": "uint256",
          "name": "amount0",
          "type": "uint256"
        },
        {
          "indexed": false,
          "internalType": "uint256",
          "name": "amount1",
          "type": "uint256"
        },
        {
          "indexed": false,
          "internalType": "uint256",
          "name": "amountPOPS",
          "type": "uint256"
        }
      ],
      "name": "LogConvert",
      "type": "event"
    },
    {
      "anonymous": false,
      "inputs": [
        {
          "indexed": true,
          "internalType": "address",
          "name": "previousOwner",
          "type": "address"
        },
        {
          "indexed": true,
          "internalType": "address",
          "name": "newOwner",
          "type": "address"
        }
      ],
      "name": "OwnershipTransferred",
      "type": "event"
    },
    {
      "inputs": [],
      "name": "bar",
      "outputs": [
        {
          "internalType": "address",
          "name": "",
          "type": "address"
        }
      ],
      "stateMutability": "view",
      "type": "function"
    },
    {
      "inputs": [
        {
          "internalType": "address",
          "name": "token",
          "type": "address"
        }
      ],
      "name": "bridgeFor",
      "outputs": [
        {
          "internalType": "address",
          "name": "bridge",
          "type": "address"
        }
      ],
      "stateMutability": "view",
      "type": "function"
    },
    {
      "inputs": [],
      "name": "claimOwnership",
      "outputs": [],
      "stateMutability": "nonpayable",
      "type": "function"
    },
    {
      "inputs": [
        {
          "internalType": "address",
          "name": "token0",
          "type": "address"
        },
        {
          "internalType": "address",
          "name": "token1",
          "type": "address"
        }
      ],
      "name": "convert",
      "outputs": [],
      "stateMutability": "nonpayable",
      "type": "function"
    },
    {
      "inputs": [
        {
          "internalType": "address[]",
          "name": "token0",
          "type": "address[]"
        },
        {
          "internalType": "address[]",
          "name": "token1",
          "type": "address[]"
        }
      ],
      "name": "convertMultiple",
      "outputs": [],
      "stateMutability": "nonpayable",
      "type": "function"
    },
    {
      "inputs": [],
      "name": "factory",
      "outputs": [
        {
          "internalType": "contract ISicleFactory",
          "name": "",
          "type": "address"
        }
      ],
      "stateMutability": "view",
      "type": "function"
    },
    {
      "inputs": [],
      "name": "owner",
      "outputs": [
        {
          "internalType": "address",
          "name": "",
          "type": "address"
        }
      ],
      "stateMutability": "view",
      "type": "function"
    },
    {
      "inputs": [],
      "name": "pendingOwner",
      "outputs": [
        {
          "internalType": "address",
          "name": "",
          "type": "address"
        }
      ],
      "stateMutability": "view",
      "type": "function"
    },
    {
      "inputs": [
        {
          "internalType": "address",
          "name": "token",
          "type": "address"
        },
        {
          "internalType": "address",
          "name": "bridge",
          "type": "address"
        }
      ],
      "name": "setBridge",
      "outputs": [],
      "stateMutability": "nonpayable",
      "type": "function"
    },
    {
      "inputs": [
        {
          "internalType": "address",
          "name": "newOwner",
          "type": "address"
        },
        {
          "internalType": "bool",
          "name": "direct",
          "type": "bool"
        },
        {
          "internalType": "bool",
          "name": "renounce",
          "type": "bool"
        }
      ],
      "name": "transferOwnership",
      "outputs": [],
      "stateMutability": "nonpayable",
      "type": "function"
    }
  ],
  "bytecode": "0x61010060405234801561001157600080fd5b5060405161188c38038061188c8339818101604052608081101561003457600080fd5b5080516020820151604080840151606090940151600080546001600160a01b0319163390811782559251949593949192917f8be0079c531659141344cd1fd0a4f28419497f9722a3daafe3b4186f6b6457e0908290a36001600160a01b038416158015906100aa57506001600160a01b03831615155b80156100be57506001600160a01b03821615155b80156100d257506001600160a01b03811615155b610123576040805162461bcd60e51b815260206004820152601860248201527f5369636c654d616b65723a207a65726f20616464726573730000000000000000604482015290519081900360640190fd5b6001600160601b0319606094851b811660805292841b831660a05290831b821660c05290911b1660e05260805160601c60a05160601c60c05160601c60e05160601c6116906101fc6000398061060c528061072a5280610d2d5280610d6a5280610f0f5280610f4c5280610f755280610fa25280610fdf52806110085250806105cf5280610c975280610cdc5280610dca5280610e0f5280610e735280610eb8528061113b5250806107e15280610cfe5280610e315280610eda528061115d5250806107ae5280610807528061118d52506116906000f3fe608060405234801561001057600080fd5b506004361061009e5760003560e01c8063a761a93911610066578063a761a939146101f7578063bd1b820c1461021d578063c45a01551461024b578063e30c397814610253578063febb0f7e1461025b5761009e565b8063078dfbe7146100a3578063303e6aa4146100db5780634e71e0c81461019d5780638da5cb5b146101a55780639d22ae8c146101c9575b600080fd5b6100d9600480360360608110156100b957600080fd5b506001600160a01b03813516906020810135151590604001351515610263565b005b6100d9600480360360408110156100f157600080fd5b81019060208101813564010000000081111561010c57600080fd5b82018360208201111561011e57600080fd5b8035906020019184602083028401116401000000008311171561014057600080fd5b91939092909160208101903564010000000081111561015e57600080fd5b82018360208201111561017057600080fd5b8035906020019184602083028401116401000000008311171561019257600080fd5b5090925090506103f2565b6100d961049d565b6101ad61055f565b604080516001600160a01b039092168252519081900360200190f35b6100d9600480360360408110156101df57600080fd5b506001600160a01b038135811691602001351661056e565b6101ad6004803603602081101561020d57600080fd5b50356001600160a01b0316610707565b6100d96004803603604081101561023357600080fd5b506001600160a01b038135811691602001351661074f565b6101ad6107ac565b6101ad6107d0565b6101ad6107df565b6000546001600160a01b031633146102c2576040805162461bcd60e51b815260206004820181905260248201527f4f776e61626c653a2063616c6c6572206973206e6f7420746865206f776e6572604482015290519081900360640190fd5b811561037e576001600160a01b0383161515806102dc5750805b610325576040805162461bcd60e51b81526020600482015260156024820152744f776e61626c653a207a65726f206164647265737360581b604482015290519081900360640190fd5b600080546040516001600160a01b03808716939216917f8be0079c531659141344cd1fd0a4f28419497f9722a3daafe3b4186f6b6457e091a3600080546001600160a01b0319166001600160a01b0385161790556103ed565b6001600160a01b0383166103d1576040805162461bcd60e51b81526020600482015260156024820152744f776e61626c653a207a65726f206164647265737360581b604482015290519081900360640190fd5b600180546001600160a01b0319166001600160a01b0385161790555b505050565b333214610441576040805162461bcd60e51b81526020600482015260186024820152775369636c654d616b65723a206d7573742075736520454f4160401b604482015290519081900360640190fd5b8260005b818110156104955761048d86868381811061045c57fe5b905060200201356001600160a01b031685858481811061047857fe5b905060200201356001600160a01b0316610803565b600101610445565b505050505050565b6001546001600160a01b03163381146104fd576040805162461bcd60e51b815260206004820181905260248201527f4f776e61626c653a2063616c6c657220213d2070656e64696e67206f776e6572604482015290519081900360640190fd5b600080546040516001600160a01b03808516939216917f8be0079c531659141344cd1fd0a4f28419497f9722a3daafe3b4186f6b6457e091a3600080546001600160a01b039092166001600160a01b0319928316179055600180549091169055565b6000546001600160a01b031681565b6000546001600160a01b031633146105cd576040805162461bcd60e51b815260206004820181905260248201527f4f776e61626c653a2063616c6c6572206973206e6f7420746865206f776e6572604482015290519081900360640190fd5b7f00000000000000000000000000000000000000000000000000000000000000006001600160a01b0316826001600160a01b03161415801561064157507f00000000000000000000000000000000000000000000000000000000000000006001600160a01b0316826001600160a01b031614155b801561065f5750806001600160a01b0316826001600160a01b031614155b6106b0576040805162461bcd60e51b815260206004820152601a60248201527f5369636c654d616b65723a20496e76616c696420627269646765000000000000604482015290519081900360640190fd5b6001600160a01b0382811660008181526002602052604080822080546001600160a01b0319169486169485179055517f2e103aa707acc565f9a1547341914802b2bfe977fd79c595209f248ae4b006139190a35050565b6001600160a01b03808216600090815260026020526040902054168061074a57507f00000000000000000000000000000000000000000000000000000000000000005b919050565b33321461079e576040805162461bcd60e51b81526020600482015260186024820152775369636c654d616b65723a206d7573742075736520454f4160401b604482015290519081900360640190fd5b6107a88282610803565b5050565b7f000000000000000000000000000000000000000000000000000000000000000081565b6001546001600160a01b031681565b7f000000000000000000000000000000000000000000000000000000000000000081565b60007f00000000000000000000000000000000000000000000000000000000000000006001600160a01b031663e6a4390584846040518363ffffffff1660e01b815260040180836001600160a01b03168152602001826001600160a01b031681526020019250505060206040518083038186803b15801561088357600080fd5b505afa158015610897573d6000803e3d6000fd5b505050506040513d60208110156108ad57600080fd5b505190506001600160a01b03811661090c576040805162461bcd60e51b815260206004820152601860248201527f5369636c654d616b65723a20496e76616c696420706169720000000000000000604482015290519081900360640190fd5b61099a81826001600160a01b03166370a08231306040518263ffffffff1660e01b815260040180826001600160a01b0316815260200191505060206040518083038186803b15801561095d57600080fd5b505afa158015610971573d6000803e3d6000fd5b505050506040513d602081101561098757600080fd5b50516001600160a01b0384169190610b01565b600080826001600160a01b03166389afcb44306040518263ffffffff1660e01b815260040180826001600160a01b031681526020019150506040805180830381600087803b1580156109eb57600080fd5b505af11580156109ff573d6000803e3d6000fd5b505050506040513d6040811015610a1557600080fd5b50805160209182015160408051630dfe168160e01b815290519295509093506001600160a01b03861692630dfe168192600480840193829003018186803b158015610a5f57600080fd5b505afa158015610a73573d6000803e3d6000fd5b505050506040513d6020811015610a8957600080fd5b50516001600160a01b03868116911614610a9f57905b6001600160a01b03808516908616337fd06b1d7ed79b664d17472c6f6997b929f1abe463ccccb4e5b6a0038f2f730c158585610add8b8b8484610c6b565b60408051938452602084019290925282820152519081900360600190a45050505050565b604080516001600160a01b038481166024830152604480830185905283518084039091018152606490920183526020820180516001600160e01b031663a9059cbb60e01b178152925182516000946060949389169392918291908083835b60208310610b7e5780518252601f199092019160209182019101610b5f565b6001836020036101000a0380198251168184511680821785525050505050509050019150506000604051808303816000865af19150503d8060008114610be0576040519150601f19603f3d011682016040523d82523d6000602084013e610be5565b606091505b5091509150818015610c13575080511580610c135750808060200190516020811015610c1057600080fd5b50515b610c64576040805162461bcd60e51b815260206004820152601a60248201527f5361666545524332303a205472616e73666572206661696c6564000000000000604482015290519081900360640190fd5b5050505050565b6000836001600160a01b0316856001600160a01b03161415610dc8576000610c9384846110dc565b90507f00000000000000000000000000000000000000000000000000000000000000006001600160a01b0316866001600160a01b03161415610d2b57610d236001600160a01b037f0000000000000000000000000000000000000000000000000000000000000000167f000000000000000000000000000000000000000000000000000000000000000083610b01565b809150610dc2565b7f00000000000000000000000000000000000000000000000000000000000000006001600160a01b0316866001600160a01b03161415610d9657610d8f7f000000000000000000000000000000000000000000000000000000000000000082611133565b9150610dc2565b6000610da187610707565b9050610daf87828430611188565b9150610dbe8182846000610c6b565b9250505b506110d4565b7f00000000000000000000000000000000000000000000000000000000000000006001600160a01b0316856001600160a01b03161415610e7157610e566001600160a01b037f0000000000000000000000000000000000000000000000000000000000000000167f000000000000000000000000000000000000000000000000000000000000000085610b01565b610e6a83610e648685611133565b906110dc565b90506110d4565b7f00000000000000000000000000000000000000000000000000000000000000006001600160a01b0316846001600160a01b03161415610f0d57610eff6001600160a01b037f0000000000000000000000000000000000000000000000000000000000000000167f000000000000000000000000000000000000000000000000000000000000000084610b01565b610e6a82610e648786611133565b7f00000000000000000000000000000000000000000000000000000000000000006001600160a01b0316856001600160a01b03161415610fa057610e6a7f0000000000000000000000000000000000000000000000000000000000000000610f9b85610e64887f00000000000000000000000000000000000000000000000000000000000000008830611188565b611133565b7f00000000000000000000000000000000000000000000000000000000000000006001600160a01b0316846001600160a01b0316141561102e57610e6a7f0000000000000000000000000000000000000000000000000000000000000000610f9b84610e64897f00000000000000000000000000000000000000000000000000000000000000008930611188565b600061103986610707565b9050600061104686610707565b9050856001600160a01b0316826001600160a01b031614156110805761107982876110738a868a30611188565b87610c6b565b92506110d1565b866001600160a01b0316816001600160a01b031614156110b1576110798782876110ac8a868a30611188565b610c6b565b6110ce82826110c28a868a30611188565b6110ac8a868a30611188565b92505b50505b949350505050565b8181018181101561112d576040805162461bcd60e51b8152602060048201526016602482015275536166654d6174683a20416464204f766572666c6f7760501b604482015290519081900360640190fd5b92915050565b6000611181837f0000000000000000000000000000000000000000000000000000000000000000847f0000000000000000000000000000000000000000000000000000000000000000611188565b9392505050565b6000807f00000000000000000000000000000000000000000000000000000000000000006001600160a01b031663e6a4390587876040518363ffffffff1660e01b815260040180836001600160a01b03168152602001826001600160a01b031681526020019250505060206040518083038186803b15801561120957600080fd5b505afa15801561121d573d6000803e3d6000fd5b505050506040513d602081101561123357600080fd5b505190506001600160a01b038116611292576040805162461bcd60e51b815260206004820152601a60248201527f5369636c654d616b65723a2043616e6e6f7420636f6e76657274000000000000604482015290519081900360640190fd5b600080826001600160a01b0316630902f1ac6040518163ffffffff1660e01b815260040160606040518083038186803b1580156112ce57600080fd5b505afa1580156112e2573d6000803e3d6000fd5b505050506040513d60608110156112f857600080fd5b5080516020909101516dffffffffffffffffffffffffffff91821693501690506000611326876103e56115f5565b9050836001600160a01b0316630dfe16816040518163ffffffff1660e01b815260040160206040518083038186803b15801561136157600080fd5b505afa158015611375573d6000803e3d6000fd5b505050506040513d602081101561138b57600080fd5b50516001600160a01b038a8116911614156114c6576113b081610e64856103e86115f5565b6113ba82846115f5565b816113c157fe5b0494506113d86001600160a01b038a168589610b01565b604080516000808252602082019283905263022c0d9f60e01b835260248201818152604483018990526001600160a01b038a81166064850152608060848501908152845160a48601819052918a169563022c0d9f958c948e9491939092909160c4850191908083838b5b8381101561145a578181015183820152602001611442565b50505050905090810190601f1680156114875780820380516001836020036101000a031916815260200191505b5095505050505050600060405180830381600087803b1580156114a957600080fd5b505af11580156114bd573d6000803e3d6000fd5b505050506115e9565b6114d681610e64846103e86115f5565b6114e082856115f5565b816114e757fe5b0494506114fe6001600160a01b038a168589610b01565b604080516000808252602082019283905263022c0d9f60e01b835260248201888152604483018290526001600160a01b038a81166064850152608060848501908152845160a48601819052918a169563022c0d9f958c95948e9491939092909160c4850191908083838a5b83811015611581578181015183820152602001611569565b50505050905090810190601f1680156115ae5780820380516001836020036101000a031916815260200191505b5095505050505050600060405180830381600087803b1580156115d057600080fd5b505af11580156115e4573d6000803e3d6000fd5b505050505b50505050949350505050565b60008115806116105750508082028282828161160d57fe5b04145b61112d576040805162461bcd60e51b8152602060048201526016602482015275536166654d6174683a204d756c204f766572666c6f7760501b604482015290519081900360640190fdfea2646970667358221220b59ff5f0effbfa40f2ec84233c590fa5f07a3f4980f1dd6c5d7208a4240817dc64736f6c634300060c0033",
  "linkReferences": {},
  "deployedLinkReferences": {}
}